{
  "contracts/ECMLock.sol": {
    "ECMLock": {
      "abi": [
        {
          "inputs": [
            {
              "internalType": "address",
              "name": "_ecm",
              "type": "address"
            }
          ],
          "stateMutability": "nonpayable",
          "type": "constructor"
        },
        {
          "inputs": [],
          "name": "EnforcedPause",
          "type": "error"
        },
        {
          "inputs": [],
          "name": "ExpectedPause",
          "type": "error"
        },
        {
          "inputs": [
            {
              "internalType": "address",
              "name": "owner",
              "type": "address"
            }
          ],
          "name": "OwnableInvalidOwner",
          "type": "error"
        },
        {
          "inputs": [
            {
              "internalType": "address",
              "name": "account",
              "type": "address"
            }
          ],
          "name": "OwnableUnauthorizedAccount",
          "type": "error"
        },
        {
          "inputs": [],
          "name": "ReentrancyGuardReentrantCall",
          "type": "error"
        },
        {
          "inputs": [
            {
              "internalType": "address",
              "name": "token",
              "type": "address"
            }
          ],
          "name": "SafeERC20FailedOperation",
          "type": "error"
        },
        {
          "anonymous": false,
          "inputs": [
            {
              "indexed": true,
              "internalType": "address",
              "name": "beneficiary",
              "type": "address"
            },
            {
              "indexed": false,
              "internalType": "uint256",
              "name": "ecmAmount",
              "type": "uint256"
            },
            {
              "indexed": true,
              "internalType": "uint256",
              "name": "lockIndex",
              "type": "uint256"
            }
          ],
          "name": "Claim",
          "type": "event"
        },
        {
          "anonymous": false,
          "inputs": [
            {
              "indexed": true,
              "internalType": "address",
              "name": "owner",
              "type": "address"
            },
            {
              "indexed": false,
              "internalType": "uint256",
              "name": "amount",
              "type": "uint256"
            }
          ],
          "name": "EmergencyWithdraw",
          "type": "event"
        },
        {
          "anonymous": false,
          "inputs": [
            {
              "indexed": true,
              "internalType": "address",
              "name": "previousOwner",
              "type": "address"
            },
            {
              "indexed": true,
              "internalType": "address",
              "name": "newOwner",
              "type": "address"
            }
          ],
          "name": "OwnershipTransferred",
          "type": "event"
        },
        {
          "anonymous": false,
          "inputs": [
            {
              "indexed": false,
              "internalType": "address",
              "name": "account",
              "type": "address"
            }
          ],
          "name": "Paused",
          "type": "event"
        },
        {
          "anonymous": false,
          "inputs": [
            {
              "indexed": true,
              "internalType": "address",
              "name": "user",
              "type": "address"
            },
            {
              "indexed": false,
              "internalType": "uint256",
              "name": "amount",
              "type": "uint256"
            },
            {
              "indexed": false,
              "internalType": "uint256",
              "name": "releaseTime",
              "type": "uint256"
            },
            {
              "indexed": true,
              "internalType": "uint256",
              "name": "lockIndex",
              "type": "uint256"
            }
          ],
          "name": "TokensLocked",
          "type": "event"
        },
        {
          "anonymous": false,
          "inputs": [
            {
              "indexed": false,
              "internalType": "address",
              "name": "account",
              "type": "address"
            }
          ],
          "name": "Unpaused",
          "type": "event"
        },
        {
          "inputs": [],
          "name": "claimAllUnlocked",
          "outputs": [],
          "stateMutability": "nonpayable",
          "type": "function"
        },
        {
          "inputs": [
            {
              "internalType": "uint256[]",
              "name": "indices",
              "type": "uint256[]"
            }
          ],
          "name": "claimLocks",
          "outputs": [],
          "stateMutability": "nonpayable",
          "type": "function"
        },
        {
          "inputs": [],
          "name": "ecm",
          "outputs": [
            {
              "internalType": "contract IERC20",
              "name": "",
              "type": "address"
            }
          ],
          "stateMutability": "view",
          "type": "function"
        },
        {
          "inputs": [
            {
              "internalType": "uint256",
              "name": "amount",
              "type": "uint256"
            }
          ],
          "name": "emergencyWithdraw",
          "outputs": [],
          "stateMutability": "nonpayable",
          "type": "function"
        },
        {
          "inputs": [
            {
              "internalType": "address",
              "name": "user",
              "type": "address"
            }
          ],
          "name": "getUserLockCount",
          "outputs": [
            {
              "internalType": "uint256",
              "name": "",
              "type": "uint256"
            }
          ],
          "stateMutability": "view",
          "type": "function"
        },
        {
          "inputs": [
            {
              "internalType": "address",
              "name": "user",
              "type": "address"
            }
          ],
          "name": "getUserLocks",
          "outputs": [
            {
              "internalType": "uint256[]",
              "name": "amounts",
              "type": "uint256[]"
            },
            {
              "internalType": "uint256[]",
              "name": "releaseTimes",
              "type": "uint256[]"
            },
            {
              "internalType": "bool[]",
              "name": "claimed",
              "type": "bool[]"
            }
          ],
          "stateMutability": "view",
          "type": "function"
        },
        {
          "inputs": [],
          "name": "lockDuration",
          "outputs": [
            {
              "internalType": "uint256",
              "name": "",
              "type": "uint256"
            }
          ],
          "stateMutability": "view",
          "type": "function"
        },
        {
          "inputs": [
            {
              "internalType": "uint256",
              "name": "amount",
              "type": "uint256"
            }
          ],
          "name": "lockTokens",
          "outputs": [],
          "stateMutability": "nonpayable",
          "type": "function"
        },
        {
          "inputs": [],
          "name": "owner",
          "outputs": [
            {
              "internalType": "address",
              "name": "",
              "type": "address"
            }
          ],
          "stateMutability": "view",
          "type": "function"
        },
        {
          "inputs": [],
          "name": "pause",
          "outputs": [],
          "stateMutability": "nonpayable",
          "type": "function"
        },
        {
          "inputs": [],
          "name": "paused",
          "outputs": [
            {
              "internalType": "bool",
              "name": "",
              "type": "bool"
            }
          ],
          "stateMutability": "view",
          "type": "function"
        },
        {
          "inputs": [],
          "name": "renounceOwnership",
          "outputs": [],
          "stateMutability": "nonpayable",
          "type": "function"
        },
        {
          "inputs": [],
          "name": "totalLocked",
          "outputs": [
            {
              "internalType": "uint256",
              "name": "",
              "type": "uint256"
            }
          ],
          "stateMutability": "view",
          "type": "function"
        },
        {
          "inputs": [
            {
              "internalType": "address",
              "name": "newOwner",
              "type": "address"
            }
          ],
          "name": "transferOwnership",
          "outputs": [],
          "stateMutability": "nonpayable",
          "type": "function"
        },
        {
          "inputs": [],
          "name": "unpause",
          "outputs": [],
          "stateMutability": "nonpayable",
          "type": "function"
        }
      ],
      "devdoc": {
        "details": "Token locking contract for ECM tokens - Users can lock their ECM tokens for 1 year - Users can claim tokens after the lock period expires - Contract is pausable for emergency situations  Security features: - ReentrancyGuard on all state-changing functions - SafeERC20 for safe token transfers - Pausable for emergency control - Owner-only admin functions",
        "errors": {
          "EnforcedPause()": [
            {
              "details": "The operation failed because the contract is paused."
            }
          ],
          "ExpectedPause()": [
            {
              "details": "The operation failed because the contract is not paused."
            }
          ],
          "OwnableInvalidOwner(address)": [
            {
              "details": "The owner is not a valid owner account. (eg. `address(0)`)"
            }
          ],
          "OwnableUnauthorizedAccount(address)": [
            {
              "details": "The caller account is not authorized to perform an operation."
            }
          ],
          "ReentrancyGuardReentrantCall()": [
            {
              "details": "Unauthorized reentrant call."
            }
          ],
          "SafeERC20FailedOperation(address)": [
            {
              "details": "An operation with an ERC-20 token failed."
            }
          ]
        },
        "events": {
          "Paused(address)": {
            "details": "Emitted when the pause is triggered by `account`."
          },
          "Unpaused(address)": {
            "details": "Emitted when the pause is lifted by `account`."
          }
        },
        "kind": "dev",
        "methods": {
          "claimAllUnlocked()": {
            "details": "Iterates through all locks and claims those that are unlocked"
          },
          "claimLocks(uint256[])": {
            "details": "More gas efficient when user has many locks",
            "params": {
              "indices": "Array of lock indices to claim"
            }
          },
          "emergencyWithdraw(uint256)": {
            "details": "Only owner can call. Should only be used in emergency situations.",
            "params": {
              "amount": "Amount to withdraw"
            }
          },
          "getUserLockCount(address)": {
            "params": {
              "user": "Address to query"
            },
            "returns": {
              "_0": "Number of locks"
            }
          },
          "getUserLocks(address)": {
            "params": {
              "user": "Address to query locks for"
            },
            "returns": {
              "amounts": "Array of lock amounts",
              "claimed": "Array of claimed status",
              "releaseTimes": "Array of lock release timestamps"
            }
          },
          "lockTokens(uint256)": {
            "details": "User must approve ECM tokens beforehand",
            "params": {
              "amount": "Amount of ECM tokens to lock"
            }
          },
          "owner()": {
            "details": "Returns the address of the current owner."
          },
          "pause()": {
            "details": "Only owner can call. Prevents buy and claim operations."
          },
          "paused()": {
            "details": "Returns true if the contract is paused, and false otherwise."
          },
          "renounceOwnership()": {
            "details": "Leaves the contract without owner. It will not be possible to call `onlyOwner` functions. Can only be called by the current owner. NOTE: Renouncing ownership will leave the contract without an owner, thereby disabling any functionality that is only available to the owner."
          },
          "transferOwnership(address)": {
            "details": "Transfers ownership of the contract to a new account (`newOwner`). Can only be called by the current owner."
          },
          "unpause()": {
            "details": "Only owner can call"
          }
        },
        "title": "ECMLock",
        "version": 1
      },
      "evm": {
        "bytecode": {
          "linkReferences": {},
          "object": "60a03461011e57601f610ef538819003918201601f19168301916001600160401b038311848410176101235780849260209460405283398101031261011e57516001600160a01b0381169081900361011e5733156101085760008054336001600160a01b03198216811783556040519290916001600160a01b0316907f8be0079c531659141344cd1fd0a4f28419497f9722a3daafe3b4186f6b6457e09080a36001805581156100da5750608052604051610dbb908161013a82396080518181816101b6015281816106700152818161087b0152610b310152f35b62461bcd60e51b81526020600482015260096024820152683d32b9379030b2323960b91b6044820152606490fd5b631e4fbdf760e01b600052600060045260246000fd5b600080fd5b634e487b7160e01b600052604160045260246000fdfe608080604052600436101561001357600080fd5b60003560e01c9081630455444314610b60575080631b27fc2514610b1b57806323a35de9146109e85780633f4ba83a146109775780635312ea8e1461084257806356891412146108245780635c975abb146107fe5780636e27d88914610610578063715018a6146105b75780638456cb59146105555780638da5cb5b1461052c5780639b7d02ad146104ee578063e700ff70146102f8578063e76dd1e5146101565763f2fde38b146100c457600080fd5b34610151576020366003190112610151576004356001600160a01b03811690819003610151576100f2610c7d565b801561013b57600080546001600160a01b03198116831782556001600160a01b0316907f8be0079c531659141344cd1fd0a4f28419497f9722a3daafe3b4186f6b6457e09080a3005b631e4fbdf760e01b600052600060045260246000fd5b600080fd5b346101515760003660031901126101515761016f610ca6565b610177610d0a565b3360005260026020526040600020805480156102c857600091825b828110610218578380156101e057806101b06101da92600354610c70565b600355337f0000000000000000000000000000000000000000000000000000000000000000610cc8565b60018055005b60405162461bcd60e51b815260206004820152601060248201526f1b9bdd1a1a5b99c81d5b9b1bd8dad95960821b6044820152606490fd5b60ff60026102268385610c1d565b5001541615806102b0575b61023e575b600101610192565b9261026f60019160026102518786610c1d565b5001805460ff1916841790556102678685610c1d565b505490610c63565b938061027b8185610c1d565b50546040519081527f34fcbac0073d7c3d388e51312faf357774904998eeb8fca628b9e6f65ee1cbf760203392a39050610236565b5060016102bd8284610c1d565b500154421015610231565b60405162461bcd60e51b81526020600482015260086024820152676e6f206c6f636b7360c01b6044820152606490fd5b346101515760203660031901126101515760043567ffffffffffffffff8111610151573660238201121561015157806004013567ffffffffffffffff8111610151573660248260051b8401011161015157610351610ca6565b610359610d0a565b3360005260026020526040600020805490600093845b8481101561049f5760248160051b83010135908482101561046a576103948285610c1d565b5091600283019283549060ff821661043357426001820154116103fb57600194856103c89360ff1916179055548099610c63565b976040519081527f34fcbac0073d7c3d388e51312faf357774904998eeb8fca628b9e6f65ee1cbf760203392a30161036f565b60405162461bcd60e51b815260206004820152601060248201526f1b9bdd081e595d081d5b9b1bd8dad95960821b6044820152606490fd5b60405162461bcd60e51b815260206004820152600f60248201526e185b1c9958591e4818db185a5b5959608a1b6044820152606490fd5b60405162461bcd60e51b815260206004820152600d60248201526c0d2dcecc2d8d2c840d2dcc8caf609b1b6044820152606490fd5b8580156104b657806101b06101da92600354610c70565b60405162461bcd60e51b815260206004820152601060248201526f6e6f7468696e6720746f20636c61696d60801b6044820152606490fd5b34610151576020366003190112610151576004356001600160a01b038116908190036101515760005260026020526020604060002054604051908152f35b34610151576000366003190112610151576000546040516001600160a01b039091168152602090f35b346101515760003660031901126101515761056e610c7d565b610576610d0a565b6000805460ff60a01b1916600160a01b1790556040513381527f62e78cea01bee320cd4e420270b5ea74000d11b0c9f74754ebdbfc544b05a25890602090a1005b34610151576000366003190112610151576105d0610c7d565b600080546001600160a01b0319811682556001600160a01b03167f8be0079c531659141344cd1fd0a4f28419497f9722a3daafe3b4186f6b6457e08280a3005b346101515760203660031901126101515760043561062c610ca6565b610634610d0a565b80156107cb576106946040516323b872dd60e01b60208201523360248201523060448201528260648201526064815261066e608482610bb1565b7f0000000000000000000000000000000000000000000000000000000000000000610d2a565b6301e133804201908142116107895733600052600260205260406000206040516060810181811067ffffffffffffffff8211176107b557604052828152602081018481526040820192600084528054680100000000000000008110156107b55761070391600182018155610c1d565b91909161079f57600292518255516001820155019051151560ff801983541691161790553360005260026020526040600020549160001983019283116107895761074f82600354610c63565b60035560405191825260208201527f90e20a62e0f2a608d33bd96a4e15cb853006a15caf4455f373b7b55de520b68c60403392a360018055005b634e487b7160e01b600052601160045260246000fd5b634e487b7160e01b600052600060045260246000fd5b634e487b7160e01b600052604160045260246000fd5b60405162461bcd60e51b815260206004820152600b60248201526a1e995c9bc8185b5bdd5b9d60aa1b6044820152606490fd5b3461015157600036600319011261015157602060ff60005460a01c166040519015158152f35b34610151576000366003190112610151576020600354604051908152f35b346101515760203660031901126101515760043561085e610c7d565b610866610ca6565b6040516370a0823160e01b81523060048201527f0000000000000000000000000000000000000000000000000000000000000000906020816024816001600160a01b0386165afa90811561096b57600091610939575b50821161090157816108cf913390610cc8565b6040519081527f5fafa99d0643513820be26656b45130b01e1c03062e1266bf36f88cbd3bd969560203392a260018055005b60405162461bcd60e51b815260206004820152601060248201526f616d6f756e74203e2062616c616e636560801b6044820152606490fd5b90506020813d602011610963575b8161095460209383610bb1565b810103126101515751836108bc565b3d9150610947565b6040513d6000823e3d90fd5b3461015157600036600319011261015157610990610c7d565b60005460ff8160a01c16156109d75760ff60a01b19166000556040513381527f5db9ee0a495bf2e6ff9c91a7834c1ba4fdd244a5e8aa4e537bd38aeae4b073aa90602090a1005b638dfc202b60e01b60005260046000fd5b34610151576020366003190112610151576004356001600160a01b038116908190036101515760005260026020526040600020805490610a2782610beb565b91610a3181610beb565b610a3a82610bd3565b91610a486040519384610bb1565b808352610a5481610bd3565b602084019490601f190136863760005b828110610ad557610a8b8787876020610a9889604051968796606088526060880190610b7d565b9086820384880152610b7d565b918483036040860152519182815201919060005b818110610aba575050500390f35b82511515845285945060209384019390920191600101610aac565b8060ff6002610ae660019486610c1d565b508054610af3858d610c4f565b5284810154610b02858a610c4f565b52015416610b108288610c4f565b901515905201610a64565b34610151576000366003190112610151576040517f00000000000000000000000000000000000000000000000000000000000000006001600160a01b03168152602090f35b3461015157600036600319011261015157806301e1338060209252f35b906020808351928381520192019060005b818110610b9b5750505090565b8251845260209384019390920191600101610b8e565b90601f8019910116810190811067ffffffffffffffff8211176107b557604052565b67ffffffffffffffff81116107b55760051b60200190565b90610bf582610bd3565b610c026040519182610bb1565b8281528092610c13601f1991610bd3565b0190602036910137565b8054821015610c39576000526003602060002091020190600090565b634e487b7160e01b600052603260045260246000fd5b8051821015610c395760209160051b010190565b9190820180921161078957565b9190820391821161078957565b6000546001600160a01b03163303610c9157565b63118cdaa760e01b6000523360045260246000fd5b600260015414610cb7576002600155565b633ee5aeb560e01b60005260046000fd5b60405163a9059cbb60e01b60208201526001600160a01b039092166024830152604480830193909352918152610d0891610d03606483610bb1565b610d2a565b565b60ff60005460a01c16610d1957565b63d93c066560e01b60005260046000fd5b906000602091828151910182855af11561096b576000513d610d7c57506001600160a01b0381163b155b610d5b5750565b635274afe760e01b60009081526001600160a01b0391909116600452602490fd5b60011415610d5456fea26469706673582212208667a6fcef9cc15818dfb362656cd9653bf3306d7703930e77e160c8a8abd15264736f6c634300081c0033",
          "opcodes": "PUSH1 0xA0 CALLVALUE PUSH2 0x11E JUMPI PUSH1 0x1F PUSH2 0xEF5 CODESIZE DUP2 SWAP1 SUB SWAP2 DUP3 ADD PUSH1 0x1F NOT AND DUP4 ADD SWAP2 PUSH1 0x1 PUSH1 0x1 PUSH1 0x40 SHL SUB DUP4 GT DUP5 DUP5 LT OR PUSH2 0x123 JUMPI DUP1 DUP5 SWAP3 PUSH1 0x20 SWAP5 PUSH1 0x40 MSTORE DUP4 CODECOPY DUP2 ADD SUB SLT PUSH2 0x11E JUMPI MLOAD PUSH1 0x1 PUSH1 0x1 PUSH1 0xA0 SHL SUB DUP2 AND SWAP1 DUP2 SWAP1 SUB PUSH2 0x11E JUMPI CALLER ISZERO PUSH2 0x108 JUMPI PUSH1 0x0 DUP1 SLOAD CALLER PUSH1 0x1 PUSH1 0x1 PUSH1 0xA0 SHL SUB NOT DUP3 AND DUP2 OR DUP4 SSTORE PUSH1 0x40 MLOAD SWAP3 SWAP1 SWAP2 PUSH1 0x1 PUSH1 0x1 PUSH1 0xA0 SHL SUB AND SWAP1 PUSH32 0x8BE0079C531659141344CD1FD0A4F28419497F9722A3DAAFE3B4186F6B6457E0 SWAP1 DUP1 LOG3 PUSH1 0x1 DUP1 SSTORE DUP2 ISZERO PUSH2 0xDA JUMPI POP PUSH1 0x80 MSTORE PUSH1 0x40 MLOAD PUSH2 0xDBB SWAP1 DUP2 PUSH2 0x13A DUP3 CODECOPY PUSH1 0x80 MLOAD DUP2 DUP2 DUP2 PUSH2 0x1B6 ADD MSTORE DUP2 DUP2 PUSH2 0x670 ADD MSTORE DUP2 DUP2 PUSH2 0x87B ADD MSTORE PUSH2 0xB31 ADD MSTORE RETURN JUMPDEST PUSH3 0x461BCD PUSH1 0xE5 SHL DUP2 MSTORE PUSH1 0x20 PUSH1 0x4 DUP3 ADD MSTORE PUSH1 0x9 PUSH1 0x24 DUP3 ADD MSTORE PUSH9 0x3D32B9379030B23239 PUSH1 0xB9 SHL PUSH1 0x44 DUP3 ADD MSTORE PUSH1 0x64 SWAP1 REVERT JUMPDEST PUSH4 0x1E4FBDF7 PUSH1 0xE0 SHL PUSH1 0x0 MSTORE PUSH1 0x0 PUSH1 0x4 MSTORE PUSH1 0x24 PUSH1 0x0 REVERT JUMPDEST PUSH1 0x0 DUP1 REVERT JUMPDEST PUSH4 0x4E487B71 PUSH1 0xE0 SHL PUSH1 0x0 MSTORE PUSH1 0x41 PUSH1 0x4 MSTORE PUSH1 0x24 PUSH1 0x0 REVERT INVALID PUSH1 0x80 DUP1 PUSH1 0x40 MSTORE PUSH1 0x4 CALLDATASIZE LT ISZERO PUSH2 0x13 JUMPI PUSH1 0x0 DUP1 REVERT JUMPDEST PUSH1 0x0 CALLDATALOAD PUSH1 0xE0 SHR SWAP1 DUP2 PUSH4 0x4554443 EQ PUSH2 0xB60 JUMPI POP DUP1 PUSH4 0x1B27FC25 EQ PUSH2 0xB1B JUMPI DUP1 PUSH4 0x23A35DE9 EQ PUSH2 0x9E8 JUMPI DUP1 PUSH4 0x3F4BA83A EQ PUSH2 0x977 JUMPI DUP1 PUSH4 0x5312EA8E EQ PUSH2 0x842 JUMPI DUP1 PUSH4 0x56891412 EQ PUSH2 0x824 JUMPI DUP1 PUSH4 0x5C975ABB EQ PUSH2 0x7FE JUMPI DUP1 PUSH4 0x6E27D889 EQ PUSH2 0x610 JUMPI DUP1 PUSH4 0x715018A6 EQ PUSH2 0x5B7 JUMPI DUP1 PUSH4 0x8456CB59 EQ PUSH2 0x555 JUMPI DUP1 PUSH4 0x8DA5CB5B EQ PUSH2 0x52C JUMPI DUP1 PUSH4 0x9B7D02AD EQ PUSH2 0x4EE JUMPI DUP1 PUSH4 0xE700FF70 EQ PUSH2 0x2F8 JUMPI DUP1 PUSH4 0xE76DD1E5 EQ PUSH2 0x156 JUMPI PUSH4 0xF2FDE38B EQ PUSH2 0xC4 JUMPI PUSH1 0x0 DUP1 REVERT JUMPDEST CALLVALUE PUSH2 0x151 JUMPI PUSH1 0x20 CALLDATASIZE PUSH1 0x3 NOT ADD SLT PUSH2 0x151 JUMPI PUSH1 0x4 CALLDATALOAD PUSH1 0x1 PUSH1 0x1 PUSH1 0xA0 SHL SUB DUP2 AND SWAP1 DUP2 SWAP1 SUB PUSH2 0x151 JUMPI PUSH2 0xF2 PUSH2 0xC7D JUMP JUMPDEST DUP1 ISZERO PUSH2 0x13B JUMPI PUSH1 0x0 DUP1 SLOAD PUSH1 0x1 PUSH1 0x1 PUSH1 0xA0 SHL SUB NOT DUP2 AND DUP4 OR DUP3 SSTORE PUSH1 0x1 PUSH1 0x1 PUSH1 0xA0 SHL SUB AND SWAP1 PUSH32 0x8BE0079C531659141344CD1FD0A4F28419497F9722A3DAAFE3B4186F6B6457E0 SWAP1 DUP1 LOG3 STOP JUMPDEST PUSH4 0x1E4FBDF7 PUSH1 0xE0 SHL PUSH1 0x0 MSTORE PUSH1 0x0 PUSH1 0x4 MSTORE PUSH1 0x24 PUSH1 0x0 REVERT JUMPDEST PUSH1 0x0 DUP1 REVERT JUMPDEST CALLVALUE PUSH2 0x151 JUMPI PUSH1 0x0 CALLDATASIZE PUSH1 0x3 NOT ADD SLT PUSH2 0x151 JUMPI PUSH2 0x16F PUSH2 0xCA6 JUMP JUMPDEST PUSH2 0x177 PUSH2 0xD0A JUMP JUMPDEST CALLER PUSH1 0x0 MSTORE PUSH1 0x2 PUSH1 0x20 MSTORE PUSH1 0x40 PUSH1 0x0 KECCAK256 DUP1 SLOAD DUP1 ISZERO PUSH2 0x2C8 JUMPI PUSH1 0x0 SWAP2 DUP3 JUMPDEST DUP3 DUP2 LT PUSH2 0x218 JUMPI DUP4 DUP1 ISZERO PUSH2 0x1E0 JUMPI DUP1 PUSH2 0x1B0 PUSH2 0x1DA SWAP3 PUSH1 0x3 SLOAD PUSH2 0xC70 JUMP JUMPDEST PUSH1 0x3 SSTORE CALLER PUSH32 0x0 PUSH2 0xCC8 JUMP JUMPDEST PUSH1 0x1 DUP1 SSTORE STOP JUMPDEST PUSH1 0x40 MLOAD PUSH3 0x461BCD PUSH1 0xE5 SHL DUP2 MSTORE PUSH1 0x20 PUSH1 0x4 DUP3 ADD MSTORE PUSH1 0x10 PUSH1 0x24 DUP3 ADD MSTORE PUSH16 0x1B9BDD1A1A5B99C81D5B9B1BD8DAD959 PUSH1 0x82 SHL PUSH1 0x44 DUP3 ADD MSTORE PUSH1 0x64 SWAP1 REVERT JUMPDEST PUSH1 0xFF PUSH1 0x2 PUSH2 0x226 DUP4 DUP6 PUSH2 0xC1D JUMP JUMPDEST POP ADD SLOAD AND ISZERO DUP1 PUSH2 0x2B0 JUMPI JUMPDEST PUSH2 0x23E JUMPI JUMPDEST PUSH1 0x1 ADD PUSH2 0x192 JUMP JUMPDEST SWAP3 PUSH2 0x26F PUSH1 0x1 SWAP2 PUSH1 0x2 PUSH2 0x251 DUP8 DUP7 PUSH2 0xC1D JUMP JUMPDEST POP ADD DUP1 SLOAD PUSH1 0xFF NOT AND DUP5 OR SWAP1 SSTORE PUSH2 0x267 DUP7 DUP6 PUSH2 0xC1D JUMP JUMPDEST POP SLOAD SWAP1 PUSH2 0xC63 JUMP JUMPDEST SWAP4 DUP1 PUSH2 0x27B DUP2 DUP6 PUSH2 0xC1D JUMP JUMPDEST POP SLOAD PUSH1 0x40 MLOAD SWAP1 DUP2 MSTORE PUSH32 0x34FCBAC0073D7C3D388E51312FAF357774904998EEB8FCA628B9E6F65EE1CBF7 PUSH1 0x20 CALLER SWAP3 LOG3 SWAP1 POP PUSH2 0x236 JUMP JUMPDEST POP PUSH1 0x1 PUSH2 0x2BD DUP3 DUP5 PUSH2 0xC1D JUMP JUMPDEST POP ADD SLOAD TIMESTAMP LT ISZERO PUSH2 0x231 JUMP JUMPDEST PUSH1 0x40 MLOAD PUSH3 0x461BCD PUSH1 0xE5 SHL DUP2 MSTORE PUSH1 0x20 PUSH1 0x4 DUP3 ADD MSTORE PUSH1 0x8 PUSH1 0x24 DUP3 ADD MSTORE PUSH8 0x6E6F206C6F636B73 PUSH1 0xC0 SHL PUSH1 0x44 DUP3 ADD MSTORE PUSH1 0x64 SWAP1 REVERT JUMPDEST CALLVALUE PUSH2 0x151 JUMPI PUSH1 0x20 CALLDATASIZE PUSH1 0x3 NOT ADD SLT PUSH2 0x151 JUMPI PUSH1 0x4 CALLDATALOAD PUSH8 0xFFFFFFFFFFFFFFFF DUP2 GT PUSH2 0x151 JUMPI CALLDATASIZE PUSH1 0x23 DUP3 ADD SLT ISZERO PUSH2 0x151 JUMPI DUP1 PUSH1 0x4 ADD CALLDATALOAD PUSH8 0xFFFFFFFFFFFFFFFF DUP2 GT PUSH2 0x151 JUMPI CALLDATASIZE PUSH1 0x24 DUP3 PUSH1 0x5 SHL DUP5 ADD ADD GT PUSH2 0x151 JUMPI PUSH2 0x351 PUSH2 0xCA6 JUMP JUMPDEST PUSH2 0x359 PUSH2 0xD0A JUMP JUMPDEST CALLER PUSH1 0x0 MSTORE PUSH1 0x2 PUSH1 0x20 MSTORE PUSH1 0x40 PUSH1 0x0 KECCAK256 DUP1 SLOAD SWAP1 PUSH1 0x0 SWAP4 DUP5 JUMPDEST DUP5 DUP2 LT ISZERO PUSH2 0x49F JUMPI PUSH1 0x24 DUP2 PUSH1 0x5 SHL DUP4 ADD ADD CALLDATALOAD SWAP1 DUP5 DUP3 LT ISZERO PUSH2 0x46A JUMPI PUSH2 0x394 DUP3 DUP6 PUSH2 0xC1D JUMP JUMPDEST POP SWAP2 PUSH1 0x2 DUP4 ADD SWAP3 DUP4 SLOAD SWAP1 PUSH1 0xFF DUP3 AND PUSH2 0x433 JUMPI TIMESTAMP PUSH1 0x1 DUP3 ADD SLOAD GT PUSH2 0x3FB JUMPI PUSH1 0x1 SWAP5 DUP6 PUSH2 0x3C8 SWAP4 PUSH1 0xFF NOT AND OR SWAP1 SSTORE SLOAD DUP1 SWAP10 PUSH2 0xC63 JUMP JUMPDEST SWAP8 PUSH1 0x40 MLOAD SWAP1 DUP2 MSTORE PUSH32 0x34FCBAC0073D7C3D388E51312FAF357774904998EEB8FCA628B9E6F65EE1CBF7 PUSH1 0x20 CALLER SWAP3 LOG3 ADD PUSH2 0x36F JUMP JUMPDEST PUSH1 0x40 MLOAD PUSH3 0x461BCD PUSH1 0xE5 SHL DUP2 MSTORE PUSH1 0x20 PUSH1 0x4 DUP3 ADD MSTORE PUSH1 0x10 PUSH1 0x24 DUP3 ADD MSTORE PUSH16 0x1B9BDD081E595D081D5B9B1BD8DAD959 PUSH1 0x82 SHL PUSH1 0x44 DUP3 ADD MSTORE PUSH1 0x64 SWAP1 REVERT JUMPDEST PUSH1 0x40 MLOAD PUSH3 0x461BCD PUSH1 0xE5 SHL DUP2 MSTORE PUSH1 0x20 PUSH1 0x4 DUP3 ADD MSTORE PUSH1 0xF PUSH1 0x24 DUP3 ADD MSTORE PUSH15 0x185B1C9958591E4818DB185A5B5959 PUSH1 0x8A SHL PUSH1 0x44 DUP3 ADD MSTORE PUSH1 0x64 SWAP1 REVERT JUMPDEST PUSH1 0x40 MLOAD PUSH3 0x461BCD PUSH1 0xE5 SHL DUP2 MSTORE PUSH1 0x20 PUSH1 0x4 DUP3 ADD MSTORE PUSH1 0xD PUSH1 0x24 DUP3 ADD MSTORE PUSH13 0xD2DCECC2D8D2C840D2DCC8CAF PUSH1 0x9B SHL PUSH1 0x44 DUP3 ADD MSTORE PUSH1 0x64 SWAP1 REVERT JUMPDEST DUP6 DUP1 ISZERO PUSH2 0x4B6 JUMPI DUP1 PUSH2 0x1B0 PUSH2 0x1DA SWAP3 PUSH1 0x3 SLOAD PUSH2 0xC70 JUMP JUMPDEST PUSH1 0x40 MLOAD PUSH3 0x461BCD PUSH1 0xE5 SHL DUP2 MSTORE PUSH1 0x20 PUSH1 0x4 DUP3 ADD MSTORE PUSH1 0x10 PUSH1 0x24 DUP3 ADD MSTORE PUSH16 0x6E6F7468696E6720746F20636C61696D PUSH1 0x80 SHL PUSH1 0x44 DUP3 ADD MSTORE PUSH1 0x64 SWAP1 REVERT JUMPDEST CALLVALUE PUSH2 0x151 JUMPI PUSH1 0x20 CALLDATASIZE PUSH1 0x3 NOT ADD SLT PUSH2 0x151 JUMPI PUSH1 0x4 CALLDATALOAD PUSH1 0x1 PUSH1 0x1 PUSH1 0xA0 SHL SUB DUP2 AND SWAP1 DUP2 SWAP1 SUB PUSH2 0x151 JUMPI PUSH1 0x0 MSTORE PUSH1 0x2 PUSH1 0x20 MSTORE PUSH1 0x20 PUSH1 0x40 PUSH1 0x0 KECCAK256 SLOAD PUSH1 0x40 MLOAD SWAP1 DUP2 MSTORE RETURN JUMPDEST CALLVALUE PUSH2 0x151 JUMPI PUSH1 0x0 CALLDATASIZE PUSH1 0x3 NOT ADD SLT PUSH2 0x151 JUMPI PUSH1 0x0 SLOAD PUSH1 0x40 MLOAD PUSH1 0x1 PUSH1 0x1 PUSH1 0xA0 SHL SUB SWAP1 SWAP2 AND DUP2 MSTORE PUSH1 0x20 SWAP1 RETURN JUMPDEST CALLVALUE PUSH2 0x151 JUMPI PUSH1 0x0 CALLDATASIZE PUSH1 0x3 NOT ADD SLT PUSH2 0x151 JUMPI PUSH2 0x56E PUSH2 0xC7D JUMP JUMPDEST PUSH2 0x576 PUSH2 0xD0A JUMP JUMPDEST PUSH1 0x0 DUP1 SLOAD PUSH1 0xFF PUSH1 0xA0 SHL NOT AND PUSH1 0x1 PUSH1 0xA0 SHL OR SWAP1 SSTORE PUSH1 0x40 MLOAD CALLER DUP2 MSTORE PUSH32 0x62E78CEA01BEE320CD4E420270B5EA74000D11B0C9F74754EBDBFC544B05A258 SWAP1 PUSH1 0x20 SWAP1 LOG1 STOP JUMPDEST CALLVALUE PUSH2 0x151 JUMPI PUSH1 0x0 CALLDATASIZE PUSH1 0x3 NOT ADD SLT PUSH2 0x151 JUMPI PUSH2 0x5D0 PUSH2 0xC7D JUMP JUMPDEST PUSH1 0x0 DUP1 SLOAD PUSH1 0x1 PUSH1 0x1 PUSH1 0xA0 SHL SUB NOT DUP2 AND DUP3 SSTORE PUSH1 0x1 PUSH1 0x1 PUSH1 0xA0 SHL SUB AND PUSH32 0x8BE0079C531659141344CD1FD0A4F28419497F9722A3DAAFE3B4186F6B6457E0 DUP3 DUP1 LOG3 STOP JUMPDEST CALLVALUE PUSH2 0x151 JUMPI PUSH1 0x20 CALLDATASIZE PUSH1 0x3 NOT ADD SLT PUSH2 0x151 JUMPI PUSH1 0x4 CALLDATALOAD PUSH2 0x62C PUSH2 0xCA6 JUMP JUMPDEST PUSH2 0x634 PUSH2 0xD0A JUMP JUMPDEST DUP1 ISZERO PUSH2 0x7CB JUMPI PUSH2 0x694 PUSH1 0x40 MLOAD PUSH4 0x23B872DD PUSH1 0xE0 SHL PUSH1 0x20 DUP3 ADD MSTORE CALLER PUSH1 0x24 DUP3 ADD MSTORE ADDRESS PUSH1 0x44 DUP3 ADD MSTORE DUP3 PUSH1 0x64 DUP3 ADD MSTORE PUSH1 0x64 DUP2 MSTORE PUSH2 0x66E PUSH1 0x84 DUP3 PUSH2 0xBB1 JUMP JUMPDEST PUSH32 0x0 PUSH2 0xD2A JUMP JUMPDEST PUSH4 0x1E13380 TIMESTAMP ADD SWAP1 DUP2 TIMESTAMP GT PUSH2 0x789 JUMPI CALLER PUSH1 0x0 MSTORE PUSH1 0x2 PUSH1 0x20 MSTORE PUSH1 0x40 PUSH1 0x0 KECCAK256 PUSH1 0x40 MLOAD PUSH1 0x60 DUP2 ADD DUP2 DUP2 LT PUSH8 0xFFFFFFFFFFFFFFFF DUP3 GT OR PUSH2 0x7B5 JUMPI PUSH1 0x40 MSTORE DUP3 DUP2 MSTORE PUSH1 0x20 DUP2 ADD DUP5 DUP2 MSTORE PUSH1 0x40 DUP3 ADD SWAP3 PUSH1 0x0 DUP5 MSTORE DUP1 SLOAD PUSH9 0x10000000000000000 DUP2 LT ISZERO PUSH2 0x7B5 JUMPI PUSH2 0x703 SWAP2 PUSH1 0x1 DUP3 ADD DUP2 SSTORE PUSH2 0xC1D JUMP JUMPDEST SWAP2 SWAP1 SWAP2 PUSH2 0x79F JUMPI PUSH1 0x2 SWAP3 MLOAD DUP3 SSTORE MLOAD PUSH1 0x1 DUP3 ADD SSTORE ADD SWAP1 MLOAD ISZERO ISZERO PUSH1 0xFF DUP1 NOT DUP4 SLOAD AND SWAP2 AND OR SWAP1 SSTORE CALLER PUSH1 0x0 MSTORE PUSH1 0x2 PUSH1 0x20 MSTORE PUSH1 0x40 PUSH1 0x0 KECCAK256 SLOAD SWAP2 PUSH1 0x0 NOT DUP4 ADD SWAP3 DUP4 GT PUSH2 0x789 JUMPI PUSH2 0x74F DUP3 PUSH1 0x3 SLOAD PUSH2 0xC63 JUMP JUMPDEST PUSH1 0x3 SSTORE PUSH1 0x40 MLOAD SWAP2 DUP3 MSTORE PUSH1 0x20 DUP3 ADD MSTORE PUSH32 0x90E20A62E0F2A608D33BD96A4E15CB853006A15CAF4455F373B7B55DE520B68C PUSH1 0x40 CALLER SWAP3 LOG3 PUSH1 0x1 DUP1 SSTORE STOP JUMPDEST PUSH4 0x4E487B71 PUSH1 0xE0 SHL PUSH1 0x0 MSTORE PUSH1 0x11 PUSH1 0x4 MSTORE PUSH1 0x24 PUSH1 0x0 REVERT JUMPDEST PUSH4 0x4E487B71 PUSH1 0xE0 SHL PUSH1 0x0 MSTORE PUSH1 0x0 PUSH1 0x4 MSTORE PUSH1 0x24 PUSH1 0x0 REVERT JUMPDEST PUSH4 0x4E487B71 PUSH1 0xE0 SHL PUSH1 0x0 MSTORE PUSH1 0x41 PUSH1 0x4 MSTORE PUSH1 0x24 PUSH1 0x0 REVERT JUMPDEST PUSH1 0x40 MLOAD PUSH3 0x461BCD PUSH1 0xE5 SHL DUP2 MSTORE PUSH1 0x20 PUSH1 0x4 DUP3 ADD MSTORE PUSH1 0xB PUSH1 0x24 DUP3 ADD MSTORE PUSH11 0x1E995C9BC8185B5BDD5B9D PUSH1 0xAA SHL PUSH1 0x44 DUP3 ADD MSTORE PUSH1 0x64 SWAP1 REVERT JUMPDEST CALLVALUE PUSH2 0x151 JUMPI PUSH1 0x0 CALLDATASIZE PUSH1 0x3 NOT ADD SLT PUSH2 0x151 JUMPI PUSH1 0x20 PUSH1 0xFF PUSH1 0x0 SLOAD PUSH1 0xA0 SHR AND PUSH1 0x40 MLOAD SWAP1 ISZERO ISZERO DUP2 MSTORE RETURN JUMPDEST CALLVALUE PUSH2 0x151 JUMPI PUSH1 0x0 CALLDATASIZE PUSH1 0x3 NOT ADD SLT PUSH2 0x151 JUMPI PUSH1 0x20 PUSH1 0x3 SLOAD PUSH1 0x40 MLOAD SWAP1 DUP2 MSTORE RETURN JUMPDEST CALLVALUE PUSH2 0x151 JUMPI PUSH1 0x20 CALLDATASIZE PUSH1 0x3 NOT ADD SLT PUSH2 0x151 JUMPI PUSH1 0x4 CALLDATALOAD PUSH2 0x85E PUSH2 0xC7D JUMP JUMPDEST PUSH2 0x866 PUSH2 0xCA6 JUMP JUMPDEST PUSH1 0x40 MLOAD PUSH4 0x70A08231 PUSH1 0xE0 SHL DUP2 MSTORE ADDRESS PUSH1 0x4 DUP3 ADD MSTORE PUSH32 0x0 SWAP1 PUSH1 0x20 DUP2 PUSH1 0x24 DUP2 PUSH1 0x1 PUSH1 0x1 PUSH1 0xA0 SHL SUB DUP7 AND GAS STATICCALL SWAP1 DUP2 ISZERO PUSH2 0x96B JUMPI PUSH1 0x0 SWAP2 PUSH2 0x939 JUMPI JUMPDEST POP DUP3 GT PUSH2 0x901 JUMPI DUP2 PUSH2 0x8CF SWAP2 CALLER SWAP1 PUSH2 0xCC8 JUMP JUMPDEST PUSH1 0x40 MLOAD SWAP1 DUP2 MSTORE PUSH32 0x5FAFA99D0643513820BE26656B45130B01E1C03062E1266BF36F88CBD3BD9695 PUSH1 0x20 CALLER SWAP3 LOG2 PUSH1 0x1 DUP1 SSTORE STOP JUMPDEST PUSH1 0x40 MLOAD PUSH3 0x461BCD PUSH1 0xE5 SHL DUP2 MSTORE PUSH1 0x20 PUSH1 0x4 DUP3 ADD MSTORE PUSH1 0x10 PUSH1 0x24 DUP3 ADD MSTORE PUSH16 0x616D6F756E74203E2062616C616E6365 PUSH1 0x80 SHL PUSH1 0x44 DUP3 ADD MSTORE PUSH1 0x64 SWAP1 REVERT JUMPDEST SWAP1 POP PUSH1 0x20 DUP2 RETURNDATASIZE PUSH1 0x20 GT PUSH2 0x963 JUMPI JUMPDEST DUP2 PUSH2 0x954 PUSH1 0x20 SWAP4 DUP4 PUSH2 0xBB1 JUMP JUMPDEST DUP2 ADD SUB SLT PUSH2 0x151 JUMPI MLOAD DUP4 PUSH2 0x8BC JUMP JUMPDEST RETURNDATASIZE SWAP2 POP PUSH2 0x947 JUMP JUMPDEST PUSH1 0x40 MLOAD RETURNDATASIZE PUSH1 0x0 DUP3 RETURNDATACOPY RETURNDATASIZE SWAP1 REVERT JUMPDEST CALLVALUE PUSH2 0x151 JUMPI PUSH1 0x0 CALLDATASIZE PUSH1 0x3 NOT ADD SLT PUSH2 0x151 JUMPI PUSH2 0x990 PUSH2 0xC7D JUMP JUMPDEST PUSH1 0x0 SLOAD PUSH1 0xFF DUP2 PUSH1 0xA0 SHR AND ISZERO PUSH2 0x9D7 JUMPI PUSH1 0xFF PUSH1 0xA0 SHL NOT AND PUSH1 0x0 SSTORE PUSH1 0x40 MLOAD CALLER DUP2 MSTORE PUSH32 0x5DB9EE0A495BF2E6FF9C91A7834C1BA4FDD244A5E8AA4E537BD38AEAE4B073AA SWAP1 PUSH1 0x20 SWAP1 LOG1 STOP JUMPDEST PUSH4 0x8DFC202B PUSH1 0xE0 SHL PUSH1 0x0 MSTORE PUSH1 0x4 PUSH1 0x0 REVERT JUMPDEST CALLVALUE PUSH2 0x151 JUMPI PUSH1 0x20 CALLDATASIZE PUSH1 0x3 NOT ADD SLT PUSH2 0x151 JUMPI PUSH1 0x4 CALLDATALOAD PUSH1 0x1 PUSH1 0x1 PUSH1 0xA0 SHL SUB DUP2 AND SWAP1 DUP2 SWAP1 SUB PUSH2 0x151 JUMPI PUSH1 0x0 MSTORE PUSH1 0x2 PUSH1 0x20 MSTORE PUSH1 0x40 PUSH1 0x0 KECCAK256 DUP1 SLOAD SWAP1 PUSH2 0xA27 DUP3 PUSH2 0xBEB JUMP JUMPDEST SWAP2 PUSH2 0xA31 DUP2 PUSH2 0xBEB JUMP JUMPDEST PUSH2 0xA3A DUP3 PUSH2 0xBD3 JUMP JUMPDEST SWAP2 PUSH2 0xA48 PUSH1 0x40 MLOAD SWAP4 DUP5 PUSH2 0xBB1 JUMP JUMPDEST DUP1 DUP4 MSTORE PUSH2 0xA54 DUP2 PUSH2 0xBD3 JUMP JUMPDEST PUSH1 0x20 DUP5 ADD SWAP5 SWAP1 PUSH1 0x1F NOT ADD CALLDATASIZE DUP7 CALLDATACOPY PUSH1 0x0 JUMPDEST DUP3 DUP2 LT PUSH2 0xAD5 JUMPI PUSH2 0xA8B DUP8 DUP8 DUP8 PUSH1 0x20 PUSH2 0xA98 DUP10 PUSH1 0x40 MLOAD SWAP7 DUP8 SWAP7 PUSH1 0x60 DUP9 MSTORE PUSH1 0x60 DUP9 ADD SWAP1 PUSH2 0xB7D JUMP JUMPDEST SWAP1 DUP7 DUP3 SUB DUP5 DUP9 ADD MSTORE PUSH2 0xB7D JUMP JUMPDEST SWAP2 DUP5 DUP4 SUB PUSH1 0x40 DUP7 ADD MSTORE MLOAD SWAP2 DUP3 DUP2 MSTORE ADD SWAP2 SWAP1 PUSH1 0x0 JUMPDEST DUP2 DUP2 LT PUSH2 0xABA JUMPI POP POP POP SUB SWAP1 RETURN JUMPDEST DUP3 MLOAD ISZERO ISZERO DUP5 MSTORE DUP6 SWAP5 POP PUSH1 0x20 SWAP4 DUP5 ADD SWAP4 SWAP1 SWAP3 ADD SWAP2 PUSH1 0x1 ADD PUSH2 0xAAC JUMP JUMPDEST DUP1 PUSH1 0xFF PUSH1 0x2 PUSH2 0xAE6 PUSH1 0x1 SWAP5 DUP7 PUSH2 0xC1D JUMP JUMPDEST POP DUP1 SLOAD PUSH2 0xAF3 DUP6 DUP14 PUSH2 0xC4F JUMP JUMPDEST MSTORE DUP5 DUP2 ADD SLOAD PUSH2 0xB02 DUP6 DUP11 PUSH2 0xC4F JUMP JUMPDEST MSTORE ADD SLOAD AND PUSH2 0xB10 DUP3 DUP9 PUSH2 0xC4F JUMP JUMPDEST SWAP1 ISZERO ISZERO SWAP1 MSTORE ADD PUSH2 0xA64 JUMP JUMPDEST CALLVALUE PUSH2 0x151 JUMPI PUSH1 0x0 CALLDATASIZE PUSH1 0x3 NOT ADD SLT PUSH2 0x151 JUMPI PUSH1 0x40 MLOAD PUSH32 0x0 PUSH1 0x1 PUSH1 0x1 PUSH1 0xA0 SHL SUB AND DUP2 MSTORE PUSH1 0x20 SWAP1 RETURN JUMPDEST CALLVALUE PUSH2 0x151 JUMPI PUSH1 0x0 CALLDATASIZE PUSH1 0x3 NOT ADD SLT PUSH2 0x151 JUMPI DUP1 PUSH4 0x1E13380 PUSH1 0x20 SWAP3 MSTORE RETURN JUMPDEST SWAP1 PUSH1 0x20 DUP1 DUP4 MLOAD SWAP3 DUP4 DUP2 MSTORE ADD SWAP3 ADD SWAP1 PUSH1 0x0 JUMPDEST DUP2 DUP2 LT PUSH2 0xB9B JUMPI POP POP POP SWAP1 JUMP JUMPDEST DUP3 MLOAD DUP5 MSTORE PUSH1 0x20 SWAP4 DUP5 ADD SWAP4 SWAP1 SWAP3 ADD SWAP2 PUSH1 0x1 ADD PUSH2 0xB8E JUMP JUMPDEST SWAP1 PUSH1 0x1F DUP1 NOT SWAP2 ADD AND DUP2 ADD SWAP1 DUP2 LT PUSH8 0xFFFFFFFFFFFFFFFF DUP3 GT OR PUSH2 0x7B5 JUMPI PUSH1 0x40 MSTORE JUMP JUMPDEST PUSH8 0xFFFFFFFFFFFFFFFF DUP2 GT PUSH2 0x7B5 JUMPI PUSH1 0x5 SHL PUSH1 0x20 ADD SWAP1 JUMP JUMPDEST SWAP1 PUSH2 0xBF5 DUP3 PUSH2 0xBD3 JUMP JUMPDEST PUSH2 0xC02 PUSH1 0x40 MLOAD SWAP2 DUP3 PUSH2 0xBB1 JUMP JUMPDEST DUP3 DUP2 MSTORE DUP1 SWAP3 PUSH2 0xC13 PUSH1 0x1F NOT SWAP2 PUSH2 0xBD3 JUMP JUMPDEST ADD SWAP1 PUSH1 0x20 CALLDATASIZE SWAP2 ADD CALLDATACOPY JUMP JUMPDEST DUP1 SLOAD DUP3 LT ISZERO PUSH2 0xC39 JUMPI PUSH1 0x0 MSTORE PUSH1 0x3 PUSH1 0x20 PUSH1 0x0 KECCAK256 SWAP2 MUL ADD SWAP1 PUSH1 0x0 SWAP1 JUMP JUMPDEST PUSH4 0x4E487B71 PUSH1 0xE0 SHL PUSH1 0x0 MSTORE PUSH1 0x32 PUSH1 0x4 MSTORE PUSH1 0x24 PUSH1 0x0 REVERT JUMPDEST DUP1 MLOAD DUP3 LT ISZERO PUSH2 0xC39 JUMPI PUSH1 0x20 SWAP2 PUSH1 0x5 SHL ADD ADD SWAP1 JUMP JUMPDEST SWAP2 SWAP1 DUP3 ADD DUP1 SWAP3 GT PUSH2 0x789 JUMPI JUMP JUMPDEST SWAP2 SWAP1 DUP3 SUB SWAP2 DUP3 GT PUSH2 0x789 JUMPI JUMP JUMPDEST PUSH1 0x0 SLOAD PUSH1 0x1 PUSH1 0x1 PUSH1 0xA0 SHL SUB AND CALLER SUB PUSH2 0xC91 JUMPI JUMP JUMPDEST PUSH4 0x118CDAA7 PUSH1 0xE0 SHL PUSH1 0x0 MSTORE CALLER PUSH1 0x4 MSTORE PUSH1 0x24 PUSH1 0x0 REVERT JUMPDEST PUSH1 0x2 PUSH1 0x1 SLOAD EQ PUSH2 0xCB7 JUMPI PUSH1 0x2 PUSH1 0x1 SSTORE JUMP JUMPDEST PUSH4 0x3EE5AEB5 PUSH1 0xE0 SHL PUSH1 0x0 MSTORE PUSH1 0x4 PUSH1 0x0 REVERT JUMPDEST PUSH1 0x40 MLOAD PUSH4 0xA9059CBB PUSH1 0xE0 SHL PUSH1 0x20 DUP3 ADD MSTORE PUSH1 0x1 PUSH1 0x1 PUSH1 0xA0 SHL SUB SWAP1 SWAP3 AND PUSH1 0x24 DUP4 ADD MSTORE PUSH1 0x44 DUP1 DUP4 ADD SWAP4 SWAP1 SWAP4 MSTORE SWAP2 DUP2 MSTORE PUSH2 0xD08 SWAP2 PUSH2 0xD03 PUSH1 0x64 DUP4 PUSH2 0xBB1 JUMP JUMPDEST PUSH2 0xD2A JUMP JUMPDEST JUMP JUMPDEST PUSH1 0xFF PUSH1 0x0 SLOAD PUSH1 0xA0 SHR AND PUSH2 0xD19 JUMPI JUMP JUMPDEST PUSH4 0xD93C0665 PUSH1 0xE0 SHL PUSH1 0x0 MSTORE PUSH1 0x4 PUSH1 0x0 REVERT JUMPDEST SWAP1 PUSH1 0x0 PUSH1 0x20 SWAP2 DUP3 DUP2 MLOAD SWAP2 ADD DUP3 DUP6 GAS CALL ISZERO PUSH2 0x96B JUMPI PUSH1 0x0 MLOAD RETURNDATASIZE PUSH2 0xD7C JUMPI POP PUSH1 0x1 PUSH1 0x1 PUSH1 0xA0 SHL SUB DUP2 AND EXTCODESIZE ISZERO JUMPDEST PUSH2 0xD5B JUMPI POP JUMP JUMPDEST PUSH4 0x5274AFE7 PUSH1 0xE0 SHL PUSH1 0x0 SWAP1 DUP2 MSTORE PUSH1 0x1 PUSH1 0x1 PUSH1 0xA0 SHL SUB SWAP2 SWAP1 SWAP2 AND PUSH1 0x4 MSTORE PUSH1 0x24 SWAP1 REVERT JUMPDEST PUSH1 0x1 EQ ISZERO PUSH2 0xD54 JUMP INVALID LOG2 PUSH5 0x6970667358 0x22 SLT KECCAK256 DUP7 PUSH8 0xA6FCEF9CC15818DF 0xB3 PUSH3 0x656CD9 PUSH6 0x3BF3306D7703 SWAP4 0xE PUSH24 0xE160C8A8ABD15264736F6C634300081C0033000000000000 "
        },
        "gasEstimates": {
          "creation": {
            "codeDepositCost": "703000",
            "executionCost": "infinite",
            "totalCost": "infinite"
          },
          "external": {
            "claimAllUnlocked()": "infinite",
            "claimLocks(uint256[])": "infinite",
            "ecm()": "infinite",
            "emergencyWithdraw(uint256)": "infinite",
            "getUserLockCount(address)": "2612",
            "getUserLocks(address)": "infinite",
            "lockDuration()": "150",
            "lockTokens(uint256)": "infinite",
            "owner()": "2502",
            "pause()": "29918",
            "paused()": "2408",
            "renounceOwnership()": "28230",
            "totalLocked()": "2368",
            "transferOwnership(address)": "28439",
            "unpause()": "27650"
          }
        },
        "methodIdentifiers": {
          "claimAllUnlocked()": "e76dd1e5",
          "claimLocks(uint256[])": "e700ff70",
          "ecm()": "1b27fc25",
          "emergencyWithdraw(uint256)": "5312ea8e",
          "getUserLockCount(address)": "9b7d02ad",
          "getUserLocks(address)": "23a35de9",
          "lockDuration()": "04554443",
          "lockTokens(uint256)": "6e27d889",
          "owner()": "8da5cb5b",
          "pause()": "8456cb59",
          "paused()": "5c975abb",
          "renounceOwnership()": "715018a6",
          "totalLocked()": "56891412",
          "transferOwnership(address)": "f2fde38b",
          "unpause()": "3f4ba83a"
        }
      },
      "storageLayout": {
        "storage": [
          {
            "astId": 8,
            "contract": "contracts/ECMLock.sol:ECMLock",
            "label": "_owner",
            "offset": 0,
            "slot": "0",
            "type": "t_address"
          },
          {
            "astId": 1496,
            "contract": "contracts/ECMLock.sol:ECMLock",
            "label": "_paused",
            "offset": 20,
            "slot": "0",
            "type": "t_bool"
          },
          {
            "astId": 1606,
            "contract": "contracts/ECMLock.sol:ECMLock",
            "label": "_status",
            "offset": 0,
            "slot": "1",
            "type": "t_uint256"
          },
          {
            "astId": 1713,
            "contract": "contracts/ECMLock.sol:ECMLock",
            "label": "_userLocks",
            "offset": 0,
            "slot": "2",
            "type": "t_mapping(t_address,t_array(t_struct(Lock)1707_storage)dyn_storage)"
          },
          {
            "astId": 1715,
            "contract": "contracts/ECMLock.sol:ECMLock",
            "label": "totalLocked",
            "offset": 0,
            "slot": "3",
            "type": "t_uint256"
          }
        ],
        "types": {
          "t_address": {
            "encoding": "inplace",
            "label": "address",
            "numberOfBytes": "20"
          },
          "t_array(t_struct(Lock)1707_storage)dyn_storage": {
            "base": "t_struct(Lock)1707_storage",
            "encoding": "dynamic_array",
            "label": "struct ECMLock.Lock[]",
            "numberOfBytes": "32"
          },
          "t_bool": {
            "encoding": "inplace",
            "label": "bool",
            "numberOfBytes": "1"
          },
          "t_mapping(t_address,t_array(t_struct(Lock)1707_storage)dyn_storage)": {
            "encoding": "mapping",
            "key": "t_address",
            "label": "mapping(address => struct ECMLock.Lock[])",
            "numberOfBytes": "32",
            "value": "t_array(t_struct(Lock)1707_storage)dyn_storage"
          },
          "t_struct(Lock)1707_storage": {
            "encoding": "inplace",
            "label": "struct ECMLock.Lock",
            "members": [
              {
                "astId": 1702,
                "contract": "contracts/ECMLock.sol:ECMLock",
                "label": "amount",
                "offset": 0,
                "slot": "0",
                "type": "t_uint256"
              },
              {
                "astId": 1704,
                "contract": "contracts/ECMLock.sol:ECMLock",
                "label": "releaseTime",
                "offset": 0,
                "slot": "1",
                "type": "t_uint256"
              },
              {
                "astId": 1706,
                "contract": "contracts/ECMLock.sol:ECMLock",
                "label": "claimed",
                "offset": 0,
                "slot": "2",
                "type": "t_bool"
              }
            ],
            "numberOfBytes": "96"
          },
          "t_uint256": {
            "encoding": "inplace",
            "label": "uint256",
            "numberOfBytes": "32"
          }
        }
      },
      "userdoc": {
        "kind": "user",
        "methods": {
          "claimAllUnlocked()": {
            "notice": "Claim all unlocked tokens"
          },
          "claimLocks(uint256[])": {
            "notice": "Claim specific locks by index"
          },
          "emergencyWithdraw(uint256)": {
            "notice": "Emergency withdraw function for owner"
          },
          "getUserLockCount(address)": {
            "notice": "Get total number of locks for a user"
          },
          "getUserLocks(address)": {
            "notice": "Get all locks for a user"
          },
          "lockTokens(uint256)": {
            "notice": "Lock ECM tokens for 1 year"
          },
          "pause()": {
            "notice": "Pause contract (emergency)"
          },
          "unpause()": {
            "notice": "Unpause contract"
          }
        },
        "version": 1
      }
    }
  }
}