{
  "contracts/test/MockMaliciousTokens.sol": {
    "MockMaliciousToken": {
      "abi": [
        {
          "inputs": [
            {
              "internalType": "string",
              "name": "name",
              "type": "string"
            },
            {
              "internalType": "string",
              "name": "symbol",
              "type": "string"
            },
            {
              "internalType": "uint8",
              "name": "decimals",
              "type": "uint8"
            }
          ],
          "stateMutability": "nonpayable",
          "type": "constructor"
        },
        {
          "inputs": [
            {
              "internalType": "address",
              "name": "spender",
              "type": "address"
            },
            {
              "internalType": "uint256",
              "name": "allowance",
              "type": "uint256"
            },
            {
              "internalType": "uint256",
              "name": "needed",
              "type": "uint256"
            }
          ],
          "name": "ERC20InsufficientAllowance",
          "type": "error"
        },
        {
          "inputs": [
            {
              "internalType": "address",
              "name": "sender",
              "type": "address"
            },
            {
              "internalType": "uint256",
              "name": "balance",
              "type": "uint256"
            },
            {
              "internalType": "uint256",
              "name": "needed",
              "type": "uint256"
            }
          ],
          "name": "ERC20InsufficientBalance",
          "type": "error"
        },
        {
          "inputs": [
            {
              "internalType": "address",
              "name": "approver",
              "type": "address"
            }
          ],
          "name": "ERC20InvalidApprover",
          "type": "error"
        },
        {
          "inputs": [
            {
              "internalType": "address",
              "name": "receiver",
              "type": "address"
            }
          ],
          "name": "ERC20InvalidReceiver",
          "type": "error"
        },
        {
          "inputs": [
            {
              "internalType": "address",
              "name": "sender",
              "type": "address"
            }
          ],
          "name": "ERC20InvalidSender",
          "type": "error"
        },
        {
          "inputs": [
            {
              "internalType": "address",
              "name": "spender",
              "type": "address"
            }
          ],
          "name": "ERC20InvalidSpender",
          "type": "error"
        },
        {
          "anonymous": false,
          "inputs": [
            {
              "indexed": true,
              "internalType": "address",
              "name": "owner",
              "type": "address"
            },
            {
              "indexed": true,
              "internalType": "address",
              "name": "spender",
              "type": "address"
            },
            {
              "indexed": false,
              "internalType": "uint256",
              "name": "value",
              "type": "uint256"
            }
          ],
          "name": "Approval",
          "type": "event"
        },
        {
          "anonymous": false,
          "inputs": [
            {
              "indexed": true,
              "internalType": "address",
              "name": "from",
              "type": "address"
            },
            {
              "indexed": true,
              "internalType": "address",
              "name": "to",
              "type": "address"
            },
            {
              "indexed": false,
              "internalType": "uint256",
              "name": "value",
              "type": "uint256"
            }
          ],
          "name": "Transfer",
          "type": "event"
        },
        {
          "inputs": [
            {
              "internalType": "address",
              "name": "owner",
              "type": "address"
            },
            {
              "internalType": "address",
              "name": "spender",
              "type": "address"
            }
          ],
          "name": "allowance",
          "outputs": [
            {
              "internalType": "uint256",
              "name": "",
              "type": "uint256"
            }
          ],
          "stateMutability": "view",
          "type": "function"
        },
        {
          "inputs": [
            {
              "internalType": "address",
              "name": "spender",
              "type": "address"
            },
            {
              "internalType": "uint256",
              "name": "value",
              "type": "uint256"
            }
          ],
          "name": "approve",
          "outputs": [
            {
              "internalType": "bool",
              "name": "",
              "type": "bool"
            }
          ],
          "stateMutability": "nonpayable",
          "type": "function"
        },
        {
          "inputs": [
            {
              "internalType": "address",
              "name": "account",
              "type": "address"
            }
          ],
          "name": "balanceOf",
          "outputs": [
            {
              "internalType": "uint256",
              "name": "",
              "type": "uint256"
            }
          ],
          "stateMutability": "view",
          "type": "function"
        },
        {
          "inputs": [
            {
              "internalType": "address",
              "name": "account",
              "type": "address"
            },
            {
              "internalType": "bool",
              "name": "blocked",
              "type": "bool"
            }
          ],
          "name": "blockAddress",
          "outputs": [],
          "stateMutability": "nonpayable",
          "type": "function"
        },
        {
          "inputs": [
            {
              "internalType": "address",
              "name": "",
              "type": "address"
            }
          ],
          "name": "blockedAddresses",
          "outputs": [
            {
              "internalType": "bool",
              "name": "",
              "type": "bool"
            }
          ],
          "stateMutability": "view",
          "type": "function"
        },
        {
          "inputs": [],
          "name": "decimals",
          "outputs": [
            {
              "internalType": "uint8",
              "name": "",
              "type": "uint8"
            }
          ],
          "stateMutability": "view",
          "type": "function"
        },
        {
          "inputs": [],
          "name": "manipulatedBalance",
          "outputs": [
            {
              "internalType": "uint256",
              "name": "",
              "type": "uint256"
            }
          ],
          "stateMutability": "view",
          "type": "function"
        },
        {
          "inputs": [
            {
              "internalType": "address",
              "name": "to",
              "type": "address"
            },
            {
              "internalType": "uint256",
              "name": "amount",
              "type": "uint256"
            }
          ],
          "name": "mint",
          "outputs": [],
          "stateMutability": "nonpayable",
          "type": "function"
        },
        {
          "inputs": [],
          "name": "name",
          "outputs": [
            {
              "internalType": "string",
              "name": "",
              "type": "string"
            }
          ],
          "stateMutability": "view",
          "type": "function"
        },
        {
          "inputs": [
            {
              "internalType": "bool",
              "name": "_shouldManipulate",
              "type": "bool"
            },
            {
              "internalType": "uint256",
              "name": "_manipulatedBalance",
              "type": "uint256"
            }
          ],
          "name": "setShouldManipulateBalance",
          "outputs": [],
          "stateMutability": "nonpayable",
          "type": "function"
        },
        {
          "inputs": [
            {
              "internalType": "bool",
              "name": "_shouldReturnFalse",
              "type": "bool"
            }
          ],
          "name": "setShouldReturnFalse",
          "outputs": [],
          "stateMutability": "nonpayable",
          "type": "function"
        },
        {
          "inputs": [
            {
              "internalType": "bool",
              "name": "_shouldRevert",
              "type": "bool"
            }
          ],
          "name": "setShouldRevert",
          "outputs": [],
          "stateMutability": "nonpayable",
          "type": "function"
        },
        {
          "inputs": [],
          "name": "shouldManipulateBalance",
          "outputs": [
            {
              "internalType": "bool",
              "name": "",
              "type": "bool"
            }
          ],
          "stateMutability": "view",
          "type": "function"
        },
        {
          "inputs": [],
          "name": "shouldReturnFalse",
          "outputs": [
            {
              "internalType": "bool",
              "name": "",
              "type": "bool"
            }
          ],
          "stateMutability": "view",
          "type": "function"
        },
        {
          "inputs": [],
          "name": "shouldRevert",
          "outputs": [
            {
              "internalType": "bool",
              "name": "",
              "type": "bool"
            }
          ],
          "stateMutability": "view",
          "type": "function"
        },
        {
          "inputs": [],
          "name": "symbol",
          "outputs": [
            {
              "internalType": "string",
              "name": "",
              "type": "string"
            }
          ],
          "stateMutability": "view",
          "type": "function"
        },
        {
          "inputs": [],
          "name": "totalSupply",
          "outputs": [
            {
              "internalType": "uint256",
              "name": "",
              "type": "uint256"
            }
          ],
          "stateMutability": "view",
          "type": "function"
        },
        {
          "inputs": [
            {
              "internalType": "address",
              "name": "to",
              "type": "address"
            },
            {
              "internalType": "uint256",
              "name": "amount",
              "type": "uint256"
            }
          ],
          "name": "transfer",
          "outputs": [
            {
              "internalType": "bool",
              "name": "",
              "type": "bool"
            }
          ],
          "stateMutability": "nonpayable",
          "type": "function"
        },
        {
          "inputs": [
            {
              "internalType": "address",
              "name": "from",
              "type": "address"
            },
            {
              "internalType": "address",
              "name": "to",
              "type": "address"
            },
            {
              "internalType": "uint256",
              "name": "amount",
              "type": "uint256"
            }
          ],
          "name": "transferFrom",
          "outputs": [
            {
              "internalType": "bool",
              "name": "",
              "type": "bool"
            }
          ],
          "stateMutability": "nonpayable",
          "type": "function"
        }
      ],
      "devdoc": {
        "details": "This token can be configured to revert transfers, return false, or manipulate balances",
        "errors": {
          "ERC20InsufficientAllowance(address,uint256,uint256)": [
            {
              "details": "Indicates a failure with the `spender`’s `allowance`. Used in transfers.",
              "params": {
                "allowance": "Amount of tokens a `spender` is allowed to operate with.",
                "needed": "Minimum amount required to perform a transfer.",
                "spender": "Address that may be allowed to operate on tokens without being their owner."
              }
            }
          ],
          "ERC20InsufficientBalance(address,uint256,uint256)": [
            {
              "details": "Indicates an error related to the current `balance` of a `sender`. Used in transfers.",
              "params": {
                "balance": "Current balance for the interacting account.",
                "needed": "Minimum amount required to perform a transfer.",
                "sender": "Address whose tokens are being transferred."
              }
            }
          ],
          "ERC20InvalidApprover(address)": [
            {
              "details": "Indicates a failure with the `approver` of a token to be approved. Used in approvals.",
              "params": {
                "approver": "Address initiating an approval operation."
              }
            }
          ],
          "ERC20InvalidReceiver(address)": [
            {
              "details": "Indicates a failure with the token `receiver`. Used in transfers.",
              "params": {
                "receiver": "Address to which tokens are being transferred."
              }
            }
          ],
          "ERC20InvalidSender(address)": [
            {
              "details": "Indicates a failure with the token `sender`. Used in transfers.",
              "params": {
                "sender": "Address whose tokens are being transferred."
              }
            }
          ],
          "ERC20InvalidSpender(address)": [
            {
              "details": "Indicates a failure with the `spender` to be approved. Used in approvals.",
              "params": {
                "spender": "Address that may be allowed to operate on tokens without being their owner."
              }
            }
          ]
        },
        "events": {
          "Approval(address,address,uint256)": {
            "details": "Emitted when the allowance of a `spender` for an `owner` is set by a call to {approve}. `value` is the new allowance."
          },
          "Transfer(address,address,uint256)": {
            "details": "Emitted when `value` tokens are moved from one account (`from`) to another (`to`). Note that `value` may be zero."
          }
        },
        "kind": "dev",
        "methods": {
          "allowance(address,address)": {
            "details": "See {IERC20-allowance}."
          },
          "approve(address,uint256)": {
            "details": "See {IERC20-approve}. NOTE: If `value` is the maximum `uint256`, the allowance is not updated on `transferFrom`. This is semantically equivalent to an infinite approval. Requirements: - `spender` cannot be the zero address."
          },
          "decimals()": {
            "details": "Returns the number of decimals used to get its user representation. For example, if `decimals` equals `2`, a balance of `505` tokens should be displayed to a user as `5.05` (`505 / 10 ** 2`). Tokens usually opt for a value of 18, imitating the relationship between Ether and Wei. This is the default value returned by this function, unless it's overridden. NOTE: This information is only used for _display_ purposes: it in no way affects any of the arithmetic of the contract, including {IERC20-balanceOf} and {IERC20-transfer}."
          },
          "name()": {
            "details": "Returns the name of the token."
          },
          "symbol()": {
            "details": "Returns the symbol of the token, usually a shorter version of the name."
          },
          "totalSupply()": {
            "details": "See {IERC20-totalSupply}."
          }
        },
        "title": "MockMaliciousToken",
        "version": 1
      },
      "evm": {
        "bytecode": {
          "linkReferences": {},
          "object": "608060405234610392576000610f3d8038038061001b81610397565b92833981019160608284031261038f5781516001600160401b03811161038957836100479184016103d2565b60208301519093906001600160401b03811161038d5760409161006b9185016103d2565b92015160ff81168091036103895783516001600160401b03811161029957600354600181811c9116801561037f575b602082101461027b57601f811161031c575b50602094601f82116001146102b85794839495829394926102ad575b50508160011b916000199060031b1c1916176003555b82516001600160401b03811161029957600454600181811c9116801561028f575b602082101461027b57601f8111610218575b506020601f82116001146101b5578394829394926101aa575b50508160011b916000199060031b1c1916176004555b60ff1960055416176005553315610196575033600081815260208181526040518281527fddf252ad1be2c89b69c2b068fc378daa952ba7f163c4a11628f55a4df523b3ef9190a3604051610aff908161043e8239f35b63ec442f0560e01b81526004819052602490fd5b01519050388061012a565b6004845280842090601f198316855b818110610200575095836001959697106101e7575b505050811b01600455610140565b015160001960f88460031b161c191690553880806101d9565b9192602060018192868b0151815501940192016101c4565b600484527f8a35acfbc15ff81a39ae7d344fd709f28e8600b4aa8c65c6b64bfe7fe36bd19b601f830160051c81019160208410610271575b601f0160051c01905b8181106102665750610111565b848155600101610259565b9091508190610250565b634e487b7160e01b84526022600452602484fd5b90607f16906100ff565b634e487b7160e01b83526041600452602483fd5b0151905038806100c8565b601f198216956003855280852091855b888110610304575083600195969798106102eb575b505050811b016003556100de565b015160001960f88460031b161c191690553880806102dd565b919260206001819286850151815501940192016102c8565b600384527fc2575a0e9e593c00f959f8c92f12db2869c3395a3b0502d05e2516446f71f85b601f830160051c81019160208410610375575b601f0160051c01905b81811061036a57506100ac565b84815560010161035d565b9091508190610354565b90607f169061009a565b5080fd5b825b80fd5b600080fd5b6040519190601f01601f191682016001600160401b038111838210176103bc57604052565b634e487b7160e01b600052604160045260246000fd5b81601f82011215610392578051906001600160401b0382116103bc57610401601f8301601f1916602001610397565b92828452602083830101116103925760005b82811061042857505060206000918301015290565b8060208092840101518282870101520161041356fe608080604052600436101561001357600080fd5b60003560e01c90816306fdde031461065757508063095ea7b3146105a55780630d29f2251461058757806318160ddd1461056957806323b872dd1461053a578063313ce5671461051957806340c10f191461046d5780634f93208a1461042e5780636813d787146103f957806370a08231146103ce57806382dd1c9a1461039757806394f6414a1461037157806395d89b4114610250578063a9059cbb1461021f578063cb2deb59146101e0578063d3072d82146101ba578063dd62ed3e14610169578063ec0d49821461011b5763fca286e4146100f057600080fd5b3461011657600036600319011261011657602060ff60055460101c166040519015158152f35b600080fd5b3461011657604036600319011261011657610134610773565b602435908115158092036101165760018060a01b0316600052600760205260406000209060ff80198354169116179055600080f35b3461011657604036600319011261011657610182610773565b61018a610789565b6001600160a01b039182166000908152600160209081526040808320949093168252928352819020549051908152f35b3461011657600036600319011261011657602060ff60055460081c166040519015158152f35b34610116576040366003190112610116576101f961079f565b63ff00000060055491151560181b169063ff000000191617600555602435600655600080f35b3461011657604036600319011261011657602061024661023d610773565b60243590610981565b6040519015158152f35b346101165760003660031901126101165760405160006004548060011c90600181168015610367575b6020831081146103535782855290811561033757506001146102e0575b50819003601f01601f191681019067ffffffffffffffff8211818310176102ca576102c68291826040528261072a565b0390f35b634e487b7160e01b600052604160045260246000fd5b905060046000527f8a35acfbc15ff81a39ae7d344fd709f28e8600b4aa8c65c6b64bfe7fe36bd19b6000905b82821061032157506020915082010182610296565b600181602092548385880101520191019061030c565b90506020925060ff191682840152151560051b82010182610296565b634e487b7160e01b84526022600452602484fd5b91607f1691610279565b3461011657600036600319011261011657602060ff60055460181c166040519015158152f35b34610116576020366003190112610116576103b061079f565b151562ff00006005549160101b169062ff0000191617600555600080f35b346101165760203660031901126101165760206103f16103ec610773565b610952565b604051908152f35b346101165760203660031901126101165761041261079f565b151561ff006005549160081b169061ff00191617600555600080f35b34610116576020366003190112610116576001600160a01b0361044f610773565b166000526007602052602060ff604060002054166040519015158152f35b3461011657604036600319011261011657610486610773565b602435906001600160a01b0316801561050357600254918083018093116104ed576020926002557fddf252ad1be2c89b69c2b068fc378daa952ba7f163c4a11628f55a4df523b3ef600093849284845283825260408420818154019055604051908152a380f35b634e487b7160e01b600052601160045260246000fd5b63ec442f0560e01b600052600060045260246000fd5b3461011657600036600319011261011657602060ff60055416604051908152f35b34610116576060366003190112610116576020610246610558610773565b610560610789565b604435916107ae565b34610116576000366003190112610116576020600254604051908152f35b34610116576000366003190112610116576020600654604051908152f35b34610116576040366003190112610116576105be610773565b602435903315610641576001600160a01b031690811561062b57336000526001602052604060002082600052602052806040600020556040519081527f8c5be1e5ebec7d5bd14f71427d1e84f3dd0314c0f7b2291e5b200ac8c7c3b92560203392a3602060405160018152f35b634a1406b160e11b600052600060045260246000fd5b63e602df0560e01b600052600060045260246000fd5b346101165760003660031901126101165760006003548060011c90600181168015610720575b6020831081146103535782855290811561033757506001146106c95750819003601f01601f191681019067ffffffffffffffff8211818310176102ca576102c68291826040528261072a565b905060036000527fc2575a0e9e593c00f959f8c92f12db2869c3395a3b0502d05e2516446f71f85b6000905b82821061070a57506020915082010182610296565b60018160209254838588010152019101906106f5565b91607f169161067d565b91909160208152825180602083015260005b81811061075d575060409293506000838284010152601f8019910116010190565b806020809287010151604082860101520161073c565b600435906001600160a01b038216820361011657565b602435906001600160a01b038216820361011657565b60043590811515820361011657565b919060055460ff8160081c166108ff5760101c60ff166108f7576001600160a01b03811660009081526007602052604090205460ff1680156108d5575b610890576001600160a01b03831660008181526001602090815260408083203384529091529020549093906000198110610830575b5061082b9350610a1a565b600190565b83811061087357841561064157331561062b5761082b946000526001602052604060002060018060a01b0333166000526020528360406000209103905538610820565b8390637dc7a0d960e11b6000523360045260245260445260646000fd5b60405162461bcd60e51b815260206004820152601f60248201527f4d616c6963696f7573546f6b656e3a204164647265737320626c6f636b6564006044820152606490fd5b506001600160a01b03831660009081526007602052604090205460ff166107eb565b505050600090565b60405162461bcd60e51b815260206004820152602560248201527f4d616c6963696f7573546f6b656e3a205472616e7366657246726f6d20726576604482015264195c9d195960da1b6064820152608490fd5b60ff60055460181c1661097a576001600160a01b031660009081526020819052604090205490565b5060065490565b9060055460ff8160081c166109cb5760101c60ff166109c4576001600160a01b03821660009081526007602052604090205460ff166108905761082b9133610a1a565b5050600090565b60405162461bcd60e51b815260206004820152602160248201527f4d616c6963696f7573546f6b656e3a205472616e7366657220726576657274656044820152601960fa1b6064820152608490fd5b6001600160a01b0316908115610ab3576001600160a01b0316918215610503576000828152806020526040812054828110610a995791604082827fddf252ad1be2c89b69c2b068fc378daa952ba7f163c4a11628f55a4df523b3ef958760209652828652038282205586815280845220818154019055604051908152a3565b916064928463391434e360e21b8452600452602452604452fd5b634b637e8f60e11b600052600060045260246000fdfea2646970667358221220c063c06a47bff3355e74183f1193e7447b705d11b4185a7d7ec5f9d86c0aa4c564736f6c634300081c0033",
          "opcodes": "PUSH1 0x80 PUSH1 0x40 MSTORE CALLVALUE PUSH2 0x392 JUMPI PUSH1 0x0 PUSH2 0xF3D DUP1 CODESIZE SUB DUP1 PUSH2 0x1B DUP2 PUSH2 0x397 JUMP JUMPDEST SWAP3 DUP4 CODECOPY DUP2 ADD SWAP2 PUSH1 0x60 DUP3 DUP5 SUB SLT PUSH2 0x38F JUMPI DUP2 MLOAD PUSH1 0x1 PUSH1 0x1 PUSH1 0x40 SHL SUB DUP2 GT PUSH2 0x389 JUMPI DUP4 PUSH2 0x47 SWAP2 DUP5 ADD PUSH2 0x3D2 JUMP JUMPDEST PUSH1 0x20 DUP4 ADD MLOAD SWAP1 SWAP4 SWAP1 PUSH1 0x1 PUSH1 0x1 PUSH1 0x40 SHL SUB DUP2 GT PUSH2 0x38D JUMPI PUSH1 0x40 SWAP2 PUSH2 0x6B SWAP2 DUP6 ADD PUSH2 0x3D2 JUMP JUMPDEST SWAP3 ADD MLOAD PUSH1 0xFF DUP2 AND DUP1 SWAP2 SUB PUSH2 0x389 JUMPI DUP4 MLOAD PUSH1 0x1 PUSH1 0x1 PUSH1 0x40 SHL SUB DUP2 GT PUSH2 0x299 JUMPI PUSH1 0x3 SLOAD PUSH1 0x1 DUP2 DUP2 SHR SWAP2 AND DUP1 ISZERO PUSH2 0x37F JUMPI JUMPDEST PUSH1 0x20 DUP3 LT EQ PUSH2 0x27B JUMPI PUSH1 0x1F DUP2 GT PUSH2 0x31C JUMPI JUMPDEST POP PUSH1 0x20 SWAP5 PUSH1 0x1F DUP3 GT PUSH1 0x1 EQ PUSH2 0x2B8 JUMPI SWAP5 DUP4 SWAP5 SWAP6 DUP3 SWAP4 SWAP5 SWAP3 PUSH2 0x2AD JUMPI JUMPDEST POP POP DUP2 PUSH1 0x1 SHL SWAP2 PUSH1 0x0 NOT SWAP1 PUSH1 0x3 SHL SHR NOT AND OR PUSH1 0x3 SSTORE JUMPDEST DUP3 MLOAD PUSH1 0x1 PUSH1 0x1 PUSH1 0x40 SHL SUB DUP2 GT PUSH2 0x299 JUMPI PUSH1 0x4 SLOAD PUSH1 0x1 DUP2 DUP2 SHR SWAP2 AND DUP1 ISZERO PUSH2 0x28F JUMPI JUMPDEST PUSH1 0x20 DUP3 LT EQ PUSH2 0x27B JUMPI PUSH1 0x1F DUP2 GT PUSH2 0x218 JUMPI JUMPDEST POP PUSH1 0x20 PUSH1 0x1F DUP3 GT PUSH1 0x1 EQ PUSH2 0x1B5 JUMPI DUP4 SWAP5 DUP3 SWAP4 SWAP5 SWAP3 PUSH2 0x1AA JUMPI JUMPDEST POP POP DUP2 PUSH1 0x1 SHL SWAP2 PUSH1 0x0 NOT SWAP1 PUSH1 0x3 SHL SHR NOT AND OR PUSH1 0x4 SSTORE JUMPDEST PUSH1 0xFF NOT PUSH1 0x5 SLOAD AND OR PUSH1 0x5 SSTORE CALLER ISZERO PUSH2 0x196 JUMPI POP CALLER PUSH1 0x0 DUP2 DUP2 MSTORE PUSH1 0x20 DUP2 DUP2 MSTORE PUSH1 0x40 MLOAD DUP3 DUP2 MSTORE PUSH32 0xDDF252AD1BE2C89B69C2B068FC378DAA952BA7F163C4A11628F55A4DF523B3EF SWAP2 SWAP1 LOG3 PUSH1 0x40 MLOAD PUSH2 0xAFF SWAP1 DUP2 PUSH2 0x43E DUP3 CODECOPY RETURN JUMPDEST PUSH4 0xEC442F05 PUSH1 0xE0 SHL DUP2 MSTORE PUSH1 0x4 DUP2 SWAP1 MSTORE PUSH1 0x24 SWAP1 REVERT JUMPDEST ADD MLOAD SWAP1 POP CODESIZE DUP1 PUSH2 0x12A JUMP JUMPDEST PUSH1 0x4 DUP5 MSTORE DUP1 DUP5 KECCAK256 SWAP1 PUSH1 0x1F NOT DUP4 AND DUP6 JUMPDEST DUP2 DUP2 LT PUSH2 0x200 JUMPI POP SWAP6 DUP4 PUSH1 0x1 SWAP6 SWAP7 SWAP8 LT PUSH2 0x1E7 JUMPI JUMPDEST POP POP POP DUP2 SHL ADD PUSH1 0x4 SSTORE PUSH2 0x140 JUMP JUMPDEST ADD MLOAD PUSH1 0x0 NOT PUSH1 0xF8 DUP5 PUSH1 0x3 SHL AND SHR NOT AND SWAP1 SSTORE CODESIZE DUP1 DUP1 PUSH2 0x1D9 JUMP JUMPDEST SWAP2 SWAP3 PUSH1 0x20 PUSH1 0x1 DUP2 SWAP3 DUP7 DUP12 ADD MLOAD DUP2 SSTORE ADD SWAP5 ADD SWAP3 ADD PUSH2 0x1C4 JUMP JUMPDEST PUSH1 0x4 DUP5 MSTORE PUSH32 0x8A35ACFBC15FF81A39AE7D344FD709F28E8600B4AA8C65C6B64BFE7FE36BD19B PUSH1 0x1F DUP4 ADD PUSH1 0x5 SHR DUP2 ADD SWAP2 PUSH1 0x20 DUP5 LT PUSH2 0x271 JUMPI JUMPDEST PUSH1 0x1F ADD PUSH1 0x5 SHR ADD SWAP1 JUMPDEST DUP2 DUP2 LT PUSH2 0x266 JUMPI POP PUSH2 0x111 JUMP JUMPDEST DUP5 DUP2 SSTORE PUSH1 0x1 ADD PUSH2 0x259 JUMP JUMPDEST SWAP1 SWAP2 POP DUP2 SWAP1 PUSH2 0x250 JUMP JUMPDEST PUSH4 0x4E487B71 PUSH1 0xE0 SHL DUP5 MSTORE PUSH1 0x22 PUSH1 0x4 MSTORE PUSH1 0x24 DUP5 REVERT JUMPDEST SWAP1 PUSH1 0x7F AND SWAP1 PUSH2 0xFF JUMP JUMPDEST PUSH4 0x4E487B71 PUSH1 0xE0 SHL DUP4 MSTORE PUSH1 0x41 PUSH1 0x4 MSTORE PUSH1 0x24 DUP4 REVERT JUMPDEST ADD MLOAD SWAP1 POP CODESIZE DUP1 PUSH2 0xC8 JUMP JUMPDEST PUSH1 0x1F NOT DUP3 AND SWAP6 PUSH1 0x3 DUP6 MSTORE DUP1 DUP6 KECCAK256 SWAP2 DUP6 JUMPDEST DUP9 DUP2 LT PUSH2 0x304 JUMPI POP DUP4 PUSH1 0x1 SWAP6 SWAP7 SWAP8 SWAP9 LT PUSH2 0x2EB JUMPI JUMPDEST POP POP POP DUP2 SHL ADD PUSH1 0x3 SSTORE PUSH2 0xDE JUMP JUMPDEST ADD MLOAD PUSH1 0x0 NOT PUSH1 0xF8 DUP5 PUSH1 0x3 SHL AND SHR NOT AND SWAP1 SSTORE CODESIZE DUP1 DUP1 PUSH2 0x2DD JUMP JUMPDEST SWAP2 SWAP3 PUSH1 0x20 PUSH1 0x1 DUP2 SWAP3 DUP7 DUP6 ADD MLOAD DUP2 SSTORE ADD SWAP5 ADD SWAP3 ADD PUSH2 0x2C8 JUMP JUMPDEST PUSH1 0x3 DUP5 MSTORE PUSH32 0xC2575A0E9E593C00F959F8C92F12DB2869C3395A3B0502D05E2516446F71F85B PUSH1 0x1F DUP4 ADD PUSH1 0x5 SHR DUP2 ADD SWAP2 PUSH1 0x20 DUP5 LT PUSH2 0x375 JUMPI JUMPDEST PUSH1 0x1F ADD PUSH1 0x5 SHR ADD SWAP1 JUMPDEST DUP2 DUP2 LT PUSH2 0x36A JUMPI POP PUSH2 0xAC JUMP JUMPDEST DUP5 DUP2 SSTORE PUSH1 0x1 ADD PUSH2 0x35D JUMP JUMPDEST SWAP1 SWAP2 POP DUP2 SWAP1 PUSH2 0x354 JUMP JUMPDEST SWAP1 PUSH1 0x7F AND SWAP1 PUSH2 0x9A JUMP JUMPDEST POP DUP1 REVERT JUMPDEST DUP3 JUMPDEST DUP1 REVERT JUMPDEST PUSH1 0x0 DUP1 REVERT JUMPDEST PUSH1 0x40 MLOAD SWAP2 SWAP1 PUSH1 0x1F ADD PUSH1 0x1F NOT AND DUP3 ADD PUSH1 0x1 PUSH1 0x1 PUSH1 0x40 SHL SUB DUP2 GT DUP4 DUP3 LT OR PUSH2 0x3BC JUMPI PUSH1 0x40 MSTORE JUMP JUMPDEST PUSH4 0x4E487B71 PUSH1 0xE0 SHL PUSH1 0x0 MSTORE PUSH1 0x41 PUSH1 0x4 MSTORE PUSH1 0x24 PUSH1 0x0 REVERT JUMPDEST DUP2 PUSH1 0x1F DUP3 ADD SLT ISZERO PUSH2 0x392 JUMPI DUP1 MLOAD SWAP1 PUSH1 0x1 PUSH1 0x1 PUSH1 0x40 SHL SUB DUP3 GT PUSH2 0x3BC JUMPI PUSH2 0x401 PUSH1 0x1F DUP4 ADD PUSH1 0x1F NOT AND PUSH1 0x20 ADD PUSH2 0x397 JUMP JUMPDEST SWAP3 DUP3 DUP5 MSTORE PUSH1 0x20 DUP4 DUP4 ADD ADD GT PUSH2 0x392 JUMPI PUSH1 0x0 JUMPDEST DUP3 DUP2 LT PUSH2 0x428 JUMPI POP POP PUSH1 0x20 PUSH1 0x0 SWAP2 DUP4 ADD ADD MSTORE SWAP1 JUMP JUMPDEST DUP1 PUSH1 0x20 DUP1 SWAP3 DUP5 ADD ADD MLOAD DUP3 DUP3 DUP8 ADD ADD MSTORE ADD PUSH2 0x413 JUMP INVALID PUSH1 0x80 DUP1 PUSH1 0x40 MSTORE PUSH1 0x4 CALLDATASIZE LT ISZERO PUSH2 0x13 JUMPI PUSH1 0x0 DUP1 REVERT JUMPDEST PUSH1 0x0 CALLDATALOAD PUSH1 0xE0 SHR SWAP1 DUP2 PUSH4 0x6FDDE03 EQ PUSH2 0x657 JUMPI POP DUP1 PUSH4 0x95EA7B3 EQ PUSH2 0x5A5 JUMPI DUP1 PUSH4 0xD29F225 EQ PUSH2 0x587 JUMPI DUP1 PUSH4 0x18160DDD EQ PUSH2 0x569 JUMPI DUP1 PUSH4 0x23B872DD EQ PUSH2 0x53A JUMPI DUP1 PUSH4 0x313CE567 EQ PUSH2 0x519 JUMPI DUP1 PUSH4 0x40C10F19 EQ PUSH2 0x46D JUMPI DUP1 PUSH4 0x4F93208A EQ PUSH2 0x42E JUMPI DUP1 PUSH4 0x6813D787 EQ PUSH2 0x3F9 JUMPI DUP1 PUSH4 0x70A08231 EQ PUSH2 0x3CE JUMPI DUP1 PUSH4 0x82DD1C9A EQ PUSH2 0x397 JUMPI DUP1 PUSH4 0x94F6414A EQ PUSH2 0x371 JUMPI DUP1 PUSH4 0x95D89B41 EQ PUSH2 0x250 JUMPI DUP1 PUSH4 0xA9059CBB EQ PUSH2 0x21F JUMPI DUP1 PUSH4 0xCB2DEB59 EQ PUSH2 0x1E0 JUMPI DUP1 PUSH4 0xD3072D82 EQ PUSH2 0x1BA JUMPI DUP1 PUSH4 0xDD62ED3E EQ PUSH2 0x169 JUMPI DUP1 PUSH4 0xEC0D4982 EQ PUSH2 0x11B JUMPI PUSH4 0xFCA286E4 EQ PUSH2 0xF0 JUMPI PUSH1 0x0 DUP1 REVERT JUMPDEST CALLVALUE PUSH2 0x116 JUMPI PUSH1 0x0 CALLDATASIZE PUSH1 0x3 NOT ADD SLT PUSH2 0x116 JUMPI PUSH1 0x20 PUSH1 0xFF PUSH1 0x5 SLOAD PUSH1 0x10 SHR AND PUSH1 0x40 MLOAD SWAP1 ISZERO ISZERO DUP2 MSTORE RETURN JUMPDEST PUSH1 0x0 DUP1 REVERT JUMPDEST CALLVALUE PUSH2 0x116 JUMPI PUSH1 0x40 CALLDATASIZE PUSH1 0x3 NOT ADD SLT PUSH2 0x116 JUMPI PUSH2 0x134 PUSH2 0x773 JUMP JUMPDEST PUSH1 0x24 CALLDATALOAD SWAP1 DUP2 ISZERO ISZERO DUP1 SWAP3 SUB PUSH2 0x116 JUMPI PUSH1 0x1 DUP1 PUSH1 0xA0 SHL SUB AND PUSH1 0x0 MSTORE PUSH1 0x7 PUSH1 0x20 MSTORE PUSH1 0x40 PUSH1 0x0 KECCAK256 SWAP1 PUSH1 0xFF DUP1 NOT DUP4 SLOAD AND SWAP2 AND OR SWAP1 SSTORE PUSH1 0x0 DUP1 RETURN JUMPDEST CALLVALUE PUSH2 0x116 JUMPI PUSH1 0x40 CALLDATASIZE PUSH1 0x3 NOT ADD SLT PUSH2 0x116 JUMPI PUSH2 0x182 PUSH2 0x773 JUMP JUMPDEST PUSH2 0x18A PUSH2 0x789 JUMP JUMPDEST PUSH1 0x1 PUSH1 0x1 PUSH1 0xA0 SHL SUB SWAP2 DUP3 AND PUSH1 0x0 SWAP1 DUP2 MSTORE PUSH1 0x1 PUSH1 0x20 SWAP1 DUP2 MSTORE PUSH1 0x40 DUP1 DUP4 KECCAK256 SWAP5 SWAP1 SWAP4 AND DUP3 MSTORE SWAP3 DUP4 MSTORE DUP2 SWAP1 KECCAK256 SLOAD SWAP1 MLOAD SWAP1 DUP2 MSTORE RETURN JUMPDEST CALLVALUE PUSH2 0x116 JUMPI PUSH1 0x0 CALLDATASIZE PUSH1 0x3 NOT ADD SLT PUSH2 0x116 JUMPI PUSH1 0x20 PUSH1 0xFF PUSH1 0x5 SLOAD PUSH1 0x8 SHR AND PUSH1 0x40 MLOAD SWAP1 ISZERO ISZERO DUP2 MSTORE RETURN JUMPDEST CALLVALUE PUSH2 0x116 JUMPI PUSH1 0x40 CALLDATASIZE PUSH1 0x3 NOT ADD SLT PUSH2 0x116 JUMPI PUSH2 0x1F9 PUSH2 0x79F JUMP JUMPDEST PUSH4 0xFF000000 PUSH1 0x5 SLOAD SWAP2 ISZERO ISZERO PUSH1 0x18 SHL AND SWAP1 PUSH4 0xFF000000 NOT AND OR PUSH1 0x5 SSTORE PUSH1 0x24 CALLDATALOAD PUSH1 0x6 SSTORE PUSH1 0x0 DUP1 RETURN JUMPDEST CALLVALUE PUSH2 0x116 JUMPI PUSH1 0x40 CALLDATASIZE PUSH1 0x3 NOT ADD SLT PUSH2 0x116 JUMPI PUSH1 0x20 PUSH2 0x246 PUSH2 0x23D PUSH2 0x773 JUMP JUMPDEST PUSH1 0x24 CALLDATALOAD SWAP1 PUSH2 0x981 JUMP JUMPDEST PUSH1 0x40 MLOAD SWAP1 ISZERO ISZERO DUP2 MSTORE RETURN JUMPDEST CALLVALUE PUSH2 0x116 JUMPI PUSH1 0x0 CALLDATASIZE PUSH1 0x3 NOT ADD SLT PUSH2 0x116 JUMPI PUSH1 0x40 MLOAD PUSH1 0x0 PUSH1 0x4 SLOAD DUP1 PUSH1 0x1 SHR SWAP1 PUSH1 0x1 DUP2 AND DUP1 ISZERO PUSH2 0x367 JUMPI JUMPDEST PUSH1 0x20 DUP4 LT DUP2 EQ PUSH2 0x353 JUMPI DUP3 DUP6 MSTORE SWAP1 DUP2 ISZERO PUSH2 0x337 JUMPI POP PUSH1 0x1 EQ PUSH2 0x2E0 JUMPI JUMPDEST POP DUP2 SWAP1 SUB PUSH1 0x1F ADD PUSH1 0x1F NOT AND DUP2 ADD SWAP1 PUSH8 0xFFFFFFFFFFFFFFFF DUP3 GT DUP2 DUP4 LT OR PUSH2 0x2CA JUMPI PUSH2 0x2C6 DUP3 SWAP2 DUP3 PUSH1 0x40 MSTORE DUP3 PUSH2 0x72A JUMP JUMPDEST SUB SWAP1 RETURN JUMPDEST PUSH4 0x4E487B71 PUSH1 0xE0 SHL PUSH1 0x0 MSTORE PUSH1 0x41 PUSH1 0x4 MSTORE PUSH1 0x24 PUSH1 0x0 REVERT JUMPDEST SWAP1 POP PUSH1 0x4 PUSH1 0x0 MSTORE PUSH32 0x8A35ACFBC15FF81A39AE7D344FD709F28E8600B4AA8C65C6B64BFE7FE36BD19B PUSH1 0x0 SWAP1 JUMPDEST DUP3 DUP3 LT PUSH2 0x321 JUMPI POP PUSH1 0x20 SWAP2 POP DUP3 ADD ADD DUP3 PUSH2 0x296 JUMP JUMPDEST PUSH1 0x1 DUP2 PUSH1 0x20 SWAP3 SLOAD DUP4 DUP6 DUP9 ADD ADD MSTORE ADD SWAP2 ADD SWAP1 PUSH2 0x30C JUMP JUMPDEST SWAP1 POP PUSH1 0x20 SWAP3 POP PUSH1 0xFF NOT AND DUP3 DUP5 ADD MSTORE ISZERO ISZERO PUSH1 0x5 SHL DUP3 ADD ADD DUP3 PUSH2 0x296 JUMP JUMPDEST PUSH4 0x4E487B71 PUSH1 0xE0 SHL DUP5 MSTORE PUSH1 0x22 PUSH1 0x4 MSTORE PUSH1 0x24 DUP5 REVERT JUMPDEST SWAP2 PUSH1 0x7F AND SWAP2 PUSH2 0x279 JUMP JUMPDEST CALLVALUE PUSH2 0x116 JUMPI PUSH1 0x0 CALLDATASIZE PUSH1 0x3 NOT ADD SLT PUSH2 0x116 JUMPI PUSH1 0x20 PUSH1 0xFF PUSH1 0x5 SLOAD PUSH1 0x18 SHR AND PUSH1 0x40 MLOAD SWAP1 ISZERO ISZERO DUP2 MSTORE RETURN JUMPDEST CALLVALUE PUSH2 0x116 JUMPI PUSH1 0x20 CALLDATASIZE PUSH1 0x3 NOT ADD SLT PUSH2 0x116 JUMPI PUSH2 0x3B0 PUSH2 0x79F JUMP JUMPDEST ISZERO ISZERO PUSH3 0xFF0000 PUSH1 0x5 SLOAD SWAP2 PUSH1 0x10 SHL AND SWAP1 PUSH3 0xFF0000 NOT AND OR PUSH1 0x5 SSTORE PUSH1 0x0 DUP1 RETURN JUMPDEST CALLVALUE PUSH2 0x116 JUMPI PUSH1 0x20 CALLDATASIZE PUSH1 0x3 NOT ADD SLT PUSH2 0x116 JUMPI PUSH1 0x20 PUSH2 0x3F1 PUSH2 0x3EC PUSH2 0x773 JUMP JUMPDEST PUSH2 0x952 JUMP JUMPDEST PUSH1 0x40 MLOAD SWAP1 DUP2 MSTORE RETURN JUMPDEST CALLVALUE PUSH2 0x116 JUMPI PUSH1 0x20 CALLDATASIZE PUSH1 0x3 NOT ADD SLT PUSH2 0x116 JUMPI PUSH2 0x412 PUSH2 0x79F JUMP JUMPDEST ISZERO ISZERO PUSH2 0xFF00 PUSH1 0x5 SLOAD SWAP2 PUSH1 0x8 SHL AND SWAP1 PUSH2 0xFF00 NOT AND OR PUSH1 0x5 SSTORE PUSH1 0x0 DUP1 RETURN JUMPDEST CALLVALUE PUSH2 0x116 JUMPI PUSH1 0x20 CALLDATASIZE PUSH1 0x3 NOT ADD SLT PUSH2 0x116 JUMPI PUSH1 0x1 PUSH1 0x1 PUSH1 0xA0 SHL SUB PUSH2 0x44F PUSH2 0x773 JUMP JUMPDEST AND PUSH1 0x0 MSTORE PUSH1 0x7 PUSH1 0x20 MSTORE PUSH1 0x20 PUSH1 0xFF PUSH1 0x40 PUSH1 0x0 KECCAK256 SLOAD AND PUSH1 0x40 MLOAD SWAP1 ISZERO ISZERO DUP2 MSTORE RETURN JUMPDEST CALLVALUE PUSH2 0x116 JUMPI PUSH1 0x40 CALLDATASIZE PUSH1 0x3 NOT ADD SLT PUSH2 0x116 JUMPI PUSH2 0x486 PUSH2 0x773 JUMP JUMPDEST PUSH1 0x24 CALLDATALOAD SWAP1 PUSH1 0x1 PUSH1 0x1 PUSH1 0xA0 SHL SUB AND DUP1 ISZERO PUSH2 0x503 JUMPI PUSH1 0x2 SLOAD SWAP2 DUP1 DUP4 ADD DUP1 SWAP4 GT PUSH2 0x4ED JUMPI PUSH1 0x20 SWAP3 PUSH1 0x2 SSTORE PUSH32 0xDDF252AD1BE2C89B69C2B068FC378DAA952BA7F163C4A11628F55A4DF523B3EF PUSH1 0x0 SWAP4 DUP5 SWAP3 DUP5 DUP5 MSTORE DUP4 DUP3 MSTORE PUSH1 0x40 DUP5 KECCAK256 DUP2 DUP2 SLOAD ADD SWAP1 SSTORE PUSH1 0x40 MLOAD SWAP1 DUP2 MSTORE LOG3 DUP1 RETURN JUMPDEST PUSH4 0x4E487B71 PUSH1 0xE0 SHL PUSH1 0x0 MSTORE PUSH1 0x11 PUSH1 0x4 MSTORE PUSH1 0x24 PUSH1 0x0 REVERT JUMPDEST PUSH4 0xEC442F05 PUSH1 0xE0 SHL PUSH1 0x0 MSTORE PUSH1 0x0 PUSH1 0x4 MSTORE PUSH1 0x24 PUSH1 0x0 REVERT JUMPDEST CALLVALUE PUSH2 0x116 JUMPI PUSH1 0x0 CALLDATASIZE PUSH1 0x3 NOT ADD SLT PUSH2 0x116 JUMPI PUSH1 0x20 PUSH1 0xFF PUSH1 0x5 SLOAD AND PUSH1 0x40 MLOAD SWAP1 DUP2 MSTORE RETURN JUMPDEST CALLVALUE PUSH2 0x116 JUMPI PUSH1 0x60 CALLDATASIZE PUSH1 0x3 NOT ADD SLT PUSH2 0x116 JUMPI PUSH1 0x20 PUSH2 0x246 PUSH2 0x558 PUSH2 0x773 JUMP JUMPDEST PUSH2 0x560 PUSH2 0x789 JUMP JUMPDEST PUSH1 0x44 CALLDATALOAD SWAP2 PUSH2 0x7AE JUMP JUMPDEST CALLVALUE PUSH2 0x116 JUMPI PUSH1 0x0 CALLDATASIZE PUSH1 0x3 NOT ADD SLT PUSH2 0x116 JUMPI PUSH1 0x20 PUSH1 0x2 SLOAD PUSH1 0x40 MLOAD SWAP1 DUP2 MSTORE RETURN JUMPDEST CALLVALUE PUSH2 0x116 JUMPI PUSH1 0x0 CALLDATASIZE PUSH1 0x3 NOT ADD SLT PUSH2 0x116 JUMPI PUSH1 0x20 PUSH1 0x6 SLOAD PUSH1 0x40 MLOAD SWAP1 DUP2 MSTORE RETURN JUMPDEST CALLVALUE PUSH2 0x116 JUMPI PUSH1 0x40 CALLDATASIZE PUSH1 0x3 NOT ADD SLT PUSH2 0x116 JUMPI PUSH2 0x5BE PUSH2 0x773 JUMP JUMPDEST PUSH1 0x24 CALLDATALOAD SWAP1 CALLER ISZERO PUSH2 0x641 JUMPI PUSH1 0x1 PUSH1 0x1 PUSH1 0xA0 SHL SUB AND SWAP1 DUP2 ISZERO PUSH2 0x62B JUMPI CALLER PUSH1 0x0 MSTORE PUSH1 0x1 PUSH1 0x20 MSTORE PUSH1 0x40 PUSH1 0x0 KECCAK256 DUP3 PUSH1 0x0 MSTORE PUSH1 0x20 MSTORE DUP1 PUSH1 0x40 PUSH1 0x0 KECCAK256 SSTORE PUSH1 0x40 MLOAD SWAP1 DUP2 MSTORE PUSH32 0x8C5BE1E5EBEC7D5BD14F71427D1E84F3DD0314C0F7B2291E5B200AC8C7C3B925 PUSH1 0x20 CALLER SWAP3 LOG3 PUSH1 0x20 PUSH1 0x40 MLOAD PUSH1 0x1 DUP2 MSTORE RETURN JUMPDEST PUSH4 0x4A1406B1 PUSH1 0xE1 SHL PUSH1 0x0 MSTORE PUSH1 0x0 PUSH1 0x4 MSTORE PUSH1 0x24 PUSH1 0x0 REVERT JUMPDEST PUSH4 0xE602DF05 PUSH1 0xE0 SHL PUSH1 0x0 MSTORE PUSH1 0x0 PUSH1 0x4 MSTORE PUSH1 0x24 PUSH1 0x0 REVERT JUMPDEST CALLVALUE PUSH2 0x116 JUMPI PUSH1 0x0 CALLDATASIZE PUSH1 0x3 NOT ADD SLT PUSH2 0x116 JUMPI PUSH1 0x0 PUSH1 0x3 SLOAD DUP1 PUSH1 0x1 SHR SWAP1 PUSH1 0x1 DUP2 AND DUP1 ISZERO PUSH2 0x720 JUMPI JUMPDEST PUSH1 0x20 DUP4 LT DUP2 EQ PUSH2 0x353 JUMPI DUP3 DUP6 MSTORE SWAP1 DUP2 ISZERO PUSH2 0x337 JUMPI POP PUSH1 0x1 EQ PUSH2 0x6C9 JUMPI POP DUP2 SWAP1 SUB PUSH1 0x1F ADD PUSH1 0x1F NOT AND DUP2 ADD SWAP1 PUSH8 0xFFFFFFFFFFFFFFFF DUP3 GT DUP2 DUP4 LT OR PUSH2 0x2CA JUMPI PUSH2 0x2C6 DUP3 SWAP2 DUP3 PUSH1 0x40 MSTORE DUP3 PUSH2 0x72A JUMP JUMPDEST SWAP1 POP PUSH1 0x3 PUSH1 0x0 MSTORE PUSH32 0xC2575A0E9E593C00F959F8C92F12DB2869C3395A3B0502D05E2516446F71F85B PUSH1 0x0 SWAP1 JUMPDEST DUP3 DUP3 LT PUSH2 0x70A JUMPI POP PUSH1 0x20 SWAP2 POP DUP3 ADD ADD DUP3 PUSH2 0x296 JUMP JUMPDEST PUSH1 0x1 DUP2 PUSH1 0x20 SWAP3 SLOAD DUP4 DUP6 DUP9 ADD ADD MSTORE ADD SWAP2 ADD SWAP1 PUSH2 0x6F5 JUMP JUMPDEST SWAP2 PUSH1 0x7F AND SWAP2 PUSH2 0x67D JUMP JUMPDEST SWAP2 SWAP1 SWAP2 PUSH1 0x20 DUP2 MSTORE DUP3 MLOAD DUP1 PUSH1 0x20 DUP4 ADD MSTORE PUSH1 0x0 JUMPDEST DUP2 DUP2 LT PUSH2 0x75D JUMPI POP PUSH1 0x40 SWAP3 SWAP4 POP PUSH1 0x0 DUP4 DUP3 DUP5 ADD ADD MSTORE PUSH1 0x1F DUP1 NOT SWAP2 ADD AND ADD ADD SWAP1 JUMP JUMPDEST DUP1 PUSH1 0x20 DUP1 SWAP3 DUP8 ADD ADD MLOAD PUSH1 0x40 DUP3 DUP7 ADD ADD MSTORE ADD PUSH2 0x73C JUMP JUMPDEST PUSH1 0x4 CALLDATALOAD SWAP1 PUSH1 0x1 PUSH1 0x1 PUSH1 0xA0 SHL SUB DUP3 AND DUP3 SUB PUSH2 0x116 JUMPI JUMP JUMPDEST PUSH1 0x24 CALLDATALOAD SWAP1 PUSH1 0x1 PUSH1 0x1 PUSH1 0xA0 SHL SUB DUP3 AND DUP3 SUB PUSH2 0x116 JUMPI JUMP JUMPDEST PUSH1 0x4 CALLDATALOAD SWAP1 DUP2 ISZERO ISZERO DUP3 SUB PUSH2 0x116 JUMPI JUMP JUMPDEST SWAP2 SWAP1 PUSH1 0x5 SLOAD PUSH1 0xFF DUP2 PUSH1 0x8 SHR AND PUSH2 0x8FF JUMPI PUSH1 0x10 SHR PUSH1 0xFF AND PUSH2 0x8F7 JUMPI PUSH1 0x1 PUSH1 0x1 PUSH1 0xA0 SHL SUB DUP2 AND PUSH1 0x0 SWAP1 DUP2 MSTORE PUSH1 0x7 PUSH1 0x20 MSTORE PUSH1 0x40 SWAP1 KECCAK256 SLOAD PUSH1 0xFF AND DUP1 ISZERO PUSH2 0x8D5 JUMPI JUMPDEST PUSH2 0x890 JUMPI PUSH1 0x1 PUSH1 0x1 PUSH1 0xA0 SHL SUB DUP4 AND PUSH1 0x0 DUP2 DUP2 MSTORE PUSH1 0x1 PUSH1 0x20 SWAP1 DUP2 MSTORE PUSH1 0x40 DUP1 DUP4 KECCAK256 CALLER DUP5 MSTORE SWAP1 SWAP2 MSTORE SWAP1 KECCAK256 SLOAD SWAP1 SWAP4 SWAP1 PUSH1 0x0 NOT DUP2 LT PUSH2 0x830 JUMPI JUMPDEST POP PUSH2 0x82B SWAP4 POP PUSH2 0xA1A JUMP JUMPDEST PUSH1 0x1 SWAP1 JUMP JUMPDEST DUP4 DUP2 LT PUSH2 0x873 JUMPI DUP5 ISZERO PUSH2 0x641 JUMPI CALLER ISZERO PUSH2 0x62B JUMPI PUSH2 0x82B SWAP5 PUSH1 0x0 MSTORE PUSH1 0x1 PUSH1 0x20 MSTORE PUSH1 0x40 PUSH1 0x0 KECCAK256 PUSH1 0x1 DUP1 PUSH1 0xA0 SHL SUB CALLER AND PUSH1 0x0 MSTORE PUSH1 0x20 MSTORE DUP4 PUSH1 0x40 PUSH1 0x0 KECCAK256 SWAP2 SUB SWAP1 SSTORE CODESIZE PUSH2 0x820 JUMP JUMPDEST DUP4 SWAP1 PUSH4 0x7DC7A0D9 PUSH1 0xE1 SHL PUSH1 0x0 MSTORE CALLER PUSH1 0x4 MSTORE PUSH1 0x24 MSTORE PUSH1 0x44 MSTORE PUSH1 0x64 PUSH1 0x0 REVERT JUMPDEST PUSH1 0x40 MLOAD PUSH3 0x461BCD PUSH1 0xE5 SHL DUP2 MSTORE PUSH1 0x20 PUSH1 0x4 DUP3 ADD MSTORE PUSH1 0x1F PUSH1 0x24 DUP3 ADD MSTORE PUSH32 0x4D616C6963696F7573546F6B656E3A204164647265737320626C6F636B656400 PUSH1 0x44 DUP3 ADD MSTORE PUSH1 0x64 SWAP1 REVERT JUMPDEST POP PUSH1 0x1 PUSH1 0x1 PUSH1 0xA0 SHL SUB DUP4 AND PUSH1 0x0 SWAP1 DUP2 MSTORE PUSH1 0x7 PUSH1 0x20 MSTORE PUSH1 0x40 SWAP1 KECCAK256 SLOAD PUSH1 0xFF AND PUSH2 0x7EB JUMP JUMPDEST POP POP POP PUSH1 0x0 SWAP1 JUMP JUMPDEST PUSH1 0x40 MLOAD PUSH3 0x461BCD PUSH1 0xE5 SHL DUP2 MSTORE PUSH1 0x20 PUSH1 0x4 DUP3 ADD MSTORE PUSH1 0x25 PUSH1 0x24 DUP3 ADD MSTORE PUSH32 0x4D616C6963696F7573546F6B656E3A205472616E7366657246726F6D20726576 PUSH1 0x44 DUP3 ADD MSTORE PUSH5 0x195C9D1959 PUSH1 0xDA SHL PUSH1 0x64 DUP3 ADD MSTORE PUSH1 0x84 SWAP1 REVERT JUMPDEST PUSH1 0xFF PUSH1 0x5 SLOAD PUSH1 0x18 SHR AND PUSH2 0x97A JUMPI PUSH1 0x1 PUSH1 0x1 PUSH1 0xA0 SHL SUB AND PUSH1 0x0 SWAP1 DUP2 MSTORE PUSH1 0x20 DUP2 SWAP1 MSTORE PUSH1 0x40 SWAP1 KECCAK256 SLOAD SWAP1 JUMP JUMPDEST POP PUSH1 0x6 SLOAD SWAP1 JUMP JUMPDEST SWAP1 PUSH1 0x5 SLOAD PUSH1 0xFF DUP2 PUSH1 0x8 SHR AND PUSH2 0x9CB JUMPI PUSH1 0x10 SHR PUSH1 0xFF AND PUSH2 0x9C4 JUMPI PUSH1 0x1 PUSH1 0x1 PUSH1 0xA0 SHL SUB DUP3 AND PUSH1 0x0 SWAP1 DUP2 MSTORE PUSH1 0x7 PUSH1 0x20 MSTORE PUSH1 0x40 SWAP1 KECCAK256 SLOAD PUSH1 0xFF AND PUSH2 0x890 JUMPI PUSH2 0x82B SWAP2 CALLER PUSH2 0xA1A JUMP JUMPDEST POP POP PUSH1 0x0 SWAP1 JUMP JUMPDEST PUSH1 0x40 MLOAD PUSH3 0x461BCD PUSH1 0xE5 SHL DUP2 MSTORE PUSH1 0x20 PUSH1 0x4 DUP3 ADD MSTORE PUSH1 0x21 PUSH1 0x24 DUP3 ADD MSTORE PUSH32 0x4D616C6963696F7573546F6B656E3A205472616E736665722072657665727465 PUSH1 0x44 DUP3 ADD MSTORE PUSH1 0x19 PUSH1 0xFA SHL PUSH1 0x64 DUP3 ADD MSTORE PUSH1 0x84 SWAP1 REVERT JUMPDEST PUSH1 0x1 PUSH1 0x1 PUSH1 0xA0 SHL SUB AND SWAP1 DUP2 ISZERO PUSH2 0xAB3 JUMPI PUSH1 0x1 PUSH1 0x1 PUSH1 0xA0 SHL SUB AND SWAP2 DUP3 ISZERO PUSH2 0x503 JUMPI PUSH1 0x0 DUP3 DUP2 MSTORE DUP1 PUSH1 0x20 MSTORE PUSH1 0x40 DUP2 KECCAK256 SLOAD DUP3 DUP2 LT PUSH2 0xA99 JUMPI SWAP2 PUSH1 0x40 DUP3 DUP3 PUSH32 0xDDF252AD1BE2C89B69C2B068FC378DAA952BA7F163C4A11628F55A4DF523B3EF SWAP6 DUP8 PUSH1 0x20 SWAP7 MSTORE DUP3 DUP7 MSTORE SUB DUP3 DUP3 KECCAK256 SSTORE DUP7 DUP2 MSTORE DUP1 DUP5 MSTORE KECCAK256 DUP2 DUP2 SLOAD ADD SWAP1 SSTORE PUSH1 0x40 MLOAD SWAP1 DUP2 MSTORE LOG3 JUMP JUMPDEST SWAP2 PUSH1 0x64 SWAP3 DUP5 PUSH4 0x391434E3 PUSH1 0xE2 SHL DUP5 MSTORE PUSH1 0x4 MSTORE PUSH1 0x24 MSTORE PUSH1 0x44 MSTORE REVERT JUMPDEST PUSH4 0x4B637E8F PUSH1 0xE1 SHL PUSH1 0x0 MSTORE PUSH1 0x0 PUSH1 0x4 MSTORE PUSH1 0x24 PUSH1 0x0 REVERT INVALID LOG2 PUSH5 0x6970667358 0x22 SLT KECCAK256 0xC0 PUSH4 0xC06A47BF RETURN CALLDATALOAD MCOPY PUSH21 0x183F1193E7447B705D11B4185A7D7EC5F9D86C0AA4 0xC5 PUSH5 0x736F6C6343 STOP ADDMOD SHR STOP CALLER "
        },
        "gasEstimates": {
          "creation": {
            "codeDepositCost": "563000",
            "executionCost": "infinite",
            "totalCost": "infinite"
          },
          "external": {
            "allowance(address,address)": "2927",
            "approve(address,uint256)": "24330",
            "balanceOf(address)": "4771",
            "blockAddress(address,bool)": "24935",
            "blockedAddresses(address)": "2575",
            "decimals()": "2374",
            "manipulatedBalance()": "2302",
            "mint(address,uint256)": "50701",
            "name()": "infinite",
            "setShouldManipulateBalance(bool,uint256)": "46857",
            "setShouldReturnFalse(bool)": "24660",
            "setShouldRevert(bool)": "24616",
            "shouldManipulateBalance()": "2518",
            "shouldReturnFalse()": "2669",
            "shouldRevert()": "2606",
            "symbol()": "infinite",
            "totalSupply()": "2324",
            "transfer(address,uint256)": "55460",
            "transferFrom(address,address,uint256)": "82200"
          }
        },
        "methodIdentifiers": {
          "allowance(address,address)": "dd62ed3e",
          "approve(address,uint256)": "095ea7b3",
          "balanceOf(address)": "70a08231",
          "blockAddress(address,bool)": "ec0d4982",
          "blockedAddresses(address)": "4f93208a",
          "decimals()": "313ce567",
          "manipulatedBalance()": "0d29f225",
          "mint(address,uint256)": "40c10f19",
          "name()": "06fdde03",
          "setShouldManipulateBalance(bool,uint256)": "cb2deb59",
          "setShouldReturnFalse(bool)": "82dd1c9a",
          "setShouldRevert(bool)": "6813d787",
          "shouldManipulateBalance()": "94f6414a",
          "shouldReturnFalse()": "fca286e4",
          "shouldRevert()": "d3072d82",
          "symbol()": "95d89b41",
          "totalSupply()": "18160ddd",
          "transfer(address,uint256)": "a9059cbb",
          "transferFrom(address,address,uint256)": "23b872dd"
        }
      },
      "storageLayout": {
        "storage": [
          {
            "astId": 397,
            "contract": "contracts/test/MockMaliciousTokens.sol:MockMaliciousToken",
            "label": "_balances",
            "offset": 0,
            "slot": "0",
            "type": "t_mapping(t_address,t_uint256)"
          },
          {
            "astId": 403,
            "contract": "contracts/test/MockMaliciousTokens.sol:MockMaliciousToken",
            "label": "_allowances",
            "offset": 0,
            "slot": "1",
            "type": "t_mapping(t_address,t_mapping(t_address,t_uint256))"
          },
          {
            "astId": 405,
            "contract": "contracts/test/MockMaliciousTokens.sol:MockMaliciousToken",
            "label": "_totalSupply",
            "offset": 0,
            "slot": "2",
            "type": "t_uint256"
          },
          {
            "astId": 407,
            "contract": "contracts/test/MockMaliciousTokens.sol:MockMaliciousToken",
            "label": "_name",
            "offset": 0,
            "slot": "3",
            "type": "t_string_storage"
          },
          {
            "astId": 409,
            "contract": "contracts/test/MockMaliciousTokens.sol:MockMaliciousToken",
            "label": "_symbol",
            "offset": 0,
            "slot": "4",
            "type": "t_string_storage"
          },
          {
            "astId": 2270,
            "contract": "contracts/test/MockMaliciousTokens.sol:MockMaliciousToken",
            "label": "_decimals",
            "offset": 0,
            "slot": "5",
            "type": "t_uint8"
          },
          {
            "astId": 2501,
            "contract": "contracts/test/MockMaliciousTokens.sol:MockMaliciousToken",
            "label": "shouldRevert",
            "offset": 1,
            "slot": "5",
            "type": "t_bool"
          },
          {
            "astId": 2503,
            "contract": "contracts/test/MockMaliciousTokens.sol:MockMaliciousToken",
            "label": "shouldReturnFalse",
            "offset": 2,
            "slot": "5",
            "type": "t_bool"
          },
          {
            "astId": 2505,
            "contract": "contracts/test/MockMaliciousTokens.sol:MockMaliciousToken",
            "label": "shouldManipulateBalance",
            "offset": 3,
            "slot": "5",
            "type": "t_bool"
          },
          {
            "astId": 2507,
            "contract": "contracts/test/MockMaliciousTokens.sol:MockMaliciousToken",
            "label": "manipulatedBalance",
            "offset": 0,
            "slot": "6",
            "type": "t_uint256"
          },
          {
            "astId": 2511,
            "contract": "contracts/test/MockMaliciousTokens.sol:MockMaliciousToken",
            "label": "blockedAddresses",
            "offset": 0,
            "slot": "7",
            "type": "t_mapping(t_address,t_bool)"
          }
        ],
        "types": {
          "t_address": {
            "encoding": "inplace",
            "label": "address",
            "numberOfBytes": "20"
          },
          "t_bool": {
            "encoding": "inplace",
            "label": "bool",
            "numberOfBytes": "1"
          },
          "t_mapping(t_address,t_bool)": {
            "encoding": "mapping",
            "key": "t_address",
            "label": "mapping(address => bool)",
            "numberOfBytes": "32",
            "value": "t_bool"
          },
          "t_mapping(t_address,t_mapping(t_address,t_uint256))": {
            "encoding": "mapping",
            "key": "t_address",
            "label": "mapping(address => mapping(address => uint256))",
            "numberOfBytes": "32",
            "value": "t_mapping(t_address,t_uint256)"
          },
          "t_mapping(t_address,t_uint256)": {
            "encoding": "mapping",
            "key": "t_address",
            "label": "mapping(address => uint256)",
            "numberOfBytes": "32",
            "value": "t_uint256"
          },
          "t_string_storage": {
            "encoding": "bytes",
            "label": "string",
            "numberOfBytes": "32"
          },
          "t_uint256": {
            "encoding": "inplace",
            "label": "uint256",
            "numberOfBytes": "32"
          },
          "t_uint8": {
            "encoding": "inplace",
            "label": "uint8",
            "numberOfBytes": "1"
          }
        }
      },
      "userdoc": {
        "kind": "user",
        "methods": {
          "balanceOf(address)": {
            "notice": "Malicious balanceOf function"
          },
          "blockAddress(address,bool)": {
            "notice": "Block specific addresses from receiving tokens"
          },
          "setShouldManipulateBalance(bool,uint256)": {
            "notice": "Configure the token to manipulate balance queries"
          },
          "setShouldReturnFalse(bool)": {
            "notice": "Configure the token to return false on transfers"
          },
          "setShouldRevert(bool)": {
            "notice": "Configure the token to revert on transfers"
          },
          "transfer(address,uint256)": {
            "notice": "Malicious transfer function"
          },
          "transferFrom(address,address,uint256)": {
            "notice": "Malicious transferFrom function"
          }
        },
        "notice": "A malicious ERC20 token for testing attack vectors",
        "version": 1
      }
    }
  }
}