{
  "contracts/test/MockMaliciousToken.sol": {
    "MockMaliciousToken": {
      "abi": [
        {
          "inputs": [],
          "stateMutability": "nonpayable",
          "type": "constructor"
        },
        {
          "inputs": [
            {
              "internalType": "address",
              "name": "spender",
              "type": "address"
            },
            {
              "internalType": "uint256",
              "name": "allowance",
              "type": "uint256"
            },
            {
              "internalType": "uint256",
              "name": "needed",
              "type": "uint256"
            }
          ],
          "name": "ERC20InsufficientAllowance",
          "type": "error"
        },
        {
          "inputs": [
            {
              "internalType": "address",
              "name": "sender",
              "type": "address"
            },
            {
              "internalType": "uint256",
              "name": "balance",
              "type": "uint256"
            },
            {
              "internalType": "uint256",
              "name": "needed",
              "type": "uint256"
            }
          ],
          "name": "ERC20InsufficientBalance",
          "type": "error"
        },
        {
          "inputs": [
            {
              "internalType": "address",
              "name": "approver",
              "type": "address"
            }
          ],
          "name": "ERC20InvalidApprover",
          "type": "error"
        },
        {
          "inputs": [
            {
              "internalType": "address",
              "name": "receiver",
              "type": "address"
            }
          ],
          "name": "ERC20InvalidReceiver",
          "type": "error"
        },
        {
          "inputs": [
            {
              "internalType": "address",
              "name": "sender",
              "type": "address"
            }
          ],
          "name": "ERC20InvalidSender",
          "type": "error"
        },
        {
          "inputs": [
            {
              "internalType": "address",
              "name": "spender",
              "type": "address"
            }
          ],
          "name": "ERC20InvalidSpender",
          "type": "error"
        },
        {
          "anonymous": false,
          "inputs": [
            {
              "indexed": true,
              "internalType": "address",
              "name": "owner",
              "type": "address"
            },
            {
              "indexed": true,
              "internalType": "address",
              "name": "spender",
              "type": "address"
            },
            {
              "indexed": false,
              "internalType": "uint256",
              "name": "value",
              "type": "uint256"
            }
          ],
          "name": "Approval",
          "type": "event"
        },
        {
          "anonymous": false,
          "inputs": [
            {
              "indexed": true,
              "internalType": "address",
              "name": "from",
              "type": "address"
            },
            {
              "indexed": true,
              "internalType": "address",
              "name": "to",
              "type": "address"
            },
            {
              "indexed": false,
              "internalType": "uint256",
              "name": "value",
              "type": "uint256"
            }
          ],
          "name": "Transfer",
          "type": "event"
        },
        {
          "inputs": [
            {
              "internalType": "address",
              "name": "owner",
              "type": "address"
            },
            {
              "internalType": "address",
              "name": "spender",
              "type": "address"
            }
          ],
          "name": "allowance",
          "outputs": [
            {
              "internalType": "uint256",
              "name": "",
              "type": "uint256"
            }
          ],
          "stateMutability": "view",
          "type": "function"
        },
        {
          "inputs": [
            {
              "internalType": "address",
              "name": "spender",
              "type": "address"
            },
            {
              "internalType": "uint256",
              "name": "value",
              "type": "uint256"
            }
          ],
          "name": "approve",
          "outputs": [
            {
              "internalType": "bool",
              "name": "",
              "type": "bool"
            }
          ],
          "stateMutability": "nonpayable",
          "type": "function"
        },
        {
          "inputs": [],
          "name": "attackType",
          "outputs": [
            {
              "internalType": "string",
              "name": "",
              "type": "string"
            }
          ],
          "stateMutability": "view",
          "type": "function"
        },
        {
          "inputs": [
            {
              "internalType": "address",
              "name": "account",
              "type": "address"
            }
          ],
          "name": "balanceOf",
          "outputs": [
            {
              "internalType": "uint256",
              "name": "",
              "type": "uint256"
            }
          ],
          "stateMutability": "view",
          "type": "function"
        },
        {
          "inputs": [],
          "name": "decimals",
          "outputs": [
            {
              "internalType": "uint8",
              "name": "",
              "type": "uint8"
            }
          ],
          "stateMutability": "view",
          "type": "function"
        },
        {
          "inputs": [
            {
              "internalType": "address",
              "name": "to",
              "type": "address"
            },
            {
              "internalType": "uint256",
              "name": "amount",
              "type": "uint256"
            }
          ],
          "name": "mint",
          "outputs": [],
          "stateMutability": "nonpayable",
          "type": "function"
        },
        {
          "inputs": [],
          "name": "name",
          "outputs": [
            {
              "internalType": "string",
              "name": "",
              "type": "string"
            }
          ],
          "stateMutability": "view",
          "type": "function"
        },
        {
          "inputs": [
            {
              "internalType": "address",
              "name": "_target",
              "type": "address"
            },
            {
              "internalType": "string",
              "name": "_attackType",
              "type": "string"
            }
          ],
          "name": "setAttackConfig",
          "outputs": [],
          "stateMutability": "nonpayable",
          "type": "function"
        },
        {
          "inputs": [],
          "name": "shouldAttack",
          "outputs": [
            {
              "internalType": "bool",
              "name": "",
              "type": "bool"
            }
          ],
          "stateMutability": "view",
          "type": "function"
        },
        {
          "inputs": [],
          "name": "symbol",
          "outputs": [
            {
              "internalType": "string",
              "name": "",
              "type": "string"
            }
          ],
          "stateMutability": "view",
          "type": "function"
        },
        {
          "inputs": [],
          "name": "target",
          "outputs": [
            {
              "internalType": "address",
              "name": "",
              "type": "address"
            }
          ],
          "stateMutability": "view",
          "type": "function"
        },
        {
          "inputs": [],
          "name": "totalSupply",
          "outputs": [
            {
              "internalType": "uint256",
              "name": "",
              "type": "uint256"
            }
          ],
          "stateMutability": "view",
          "type": "function"
        },
        {
          "inputs": [
            {
              "internalType": "address",
              "name": "to",
              "type": "address"
            },
            {
              "internalType": "uint256",
              "name": "amount",
              "type": "uint256"
            }
          ],
          "name": "transfer",
          "outputs": [
            {
              "internalType": "bool",
              "name": "",
              "type": "bool"
            }
          ],
          "stateMutability": "nonpayable",
          "type": "function"
        },
        {
          "inputs": [
            {
              "internalType": "address",
              "name": "from",
              "type": "address"
            },
            {
              "internalType": "address",
              "name": "to",
              "type": "address"
            },
            {
              "internalType": "uint256",
              "name": "amount",
              "type": "uint256"
            }
          ],
          "name": "transferFrom",
          "outputs": [
            {
              "internalType": "bool",
              "name": "",
              "type": "bool"
            }
          ],
          "stateMutability": "nonpayable",
          "type": "function"
        }
      ],
      "devdoc": {
        "details": "Token that attempts reentrancy attacks during transfer/transferFrom Used for testing reentrancy guards",
        "errors": {
          "ERC20InsufficientAllowance(address,uint256,uint256)": [
            {
              "details": "Indicates a failure with the `spender`’s `allowance`. Used in transfers.",
              "params": {
                "allowance": "Amount of tokens a `spender` is allowed to operate with.",
                "needed": "Minimum amount required to perform a transfer.",
                "spender": "Address that may be allowed to operate on tokens without being their owner."
              }
            }
          ],
          "ERC20InsufficientBalance(address,uint256,uint256)": [
            {
              "details": "Indicates an error related to the current `balance` of a `sender`. Used in transfers.",
              "params": {
                "balance": "Current balance for the interacting account.",
                "needed": "Minimum amount required to perform a transfer.",
                "sender": "Address whose tokens are being transferred."
              }
            }
          ],
          "ERC20InvalidApprover(address)": [
            {
              "details": "Indicates a failure with the `approver` of a token to be approved. Used in approvals.",
              "params": {
                "approver": "Address initiating an approval operation."
              }
            }
          ],
          "ERC20InvalidReceiver(address)": [
            {
              "details": "Indicates a failure with the token `receiver`. Used in transfers.",
              "params": {
                "receiver": "Address to which tokens are being transferred."
              }
            }
          ],
          "ERC20InvalidSender(address)": [
            {
              "details": "Indicates a failure with the token `sender`. Used in transfers.",
              "params": {
                "sender": "Address whose tokens are being transferred."
              }
            }
          ],
          "ERC20InvalidSpender(address)": [
            {
              "details": "Indicates a failure with the `spender` to be approved. Used in approvals.",
              "params": {
                "spender": "Address that may be allowed to operate on tokens without being their owner."
              }
            }
          ]
        },
        "events": {
          "Approval(address,address,uint256)": {
            "details": "Emitted when the allowance of a `spender` for an `owner` is set by a call to {approve}. `value` is the new allowance."
          },
          "Transfer(address,address,uint256)": {
            "details": "Emitted when `value` tokens are moved from one account (`from`) to another (`to`). Note that `value` may be zero."
          }
        },
        "kind": "dev",
        "methods": {
          "allowance(address,address)": {
            "details": "See {IERC20-allowance}."
          },
          "approve(address,uint256)": {
            "details": "See {IERC20-approve}. NOTE: If `value` is the maximum `uint256`, the allowance is not updated on `transferFrom`. This is semantically equivalent to an infinite approval. Requirements: - `spender` cannot be the zero address."
          },
          "balanceOf(address)": {
            "details": "See {IERC20-balanceOf}."
          },
          "decimals()": {
            "details": "Returns the number of decimals used to get its user representation. For example, if `decimals` equals `2`, a balance of `505` tokens should be displayed to a user as `5.05` (`505 / 10 ** 2`). Tokens usually opt for a value of 18, imitating the relationship between Ether and Wei. This is the default value returned by this function, unless it's overridden. NOTE: This information is only used for _display_ purposes: it in no way affects any of the arithmetic of the contract, including {IERC20-balanceOf} and {IERC20-transfer}."
          },
          "name()": {
            "details": "Returns the name of the token."
          },
          "symbol()": {
            "details": "Returns the symbol of the token, usually a shorter version of the name."
          },
          "totalSupply()": {
            "details": "See {IERC20-totalSupply}."
          }
        },
        "title": "MockMaliciousToken",
        "version": 1
      },
      "evm": {
        "bytecode": {
          "linkReferences": {},
          "object": "60806040523461032657604080519081016001600160401b0381118282101761023157604090815260098252684d616c6963696f757360b81b602083015280519081016001600160401b0381118282101761023157604052600381526213505360ea1b602082015281516001600160401b03811161023157600354600181811c9116801561031c575b602082101461021157601f81116102b7575b50602092601f82116001146102525792819293600092610247575b50508160011b916000199060031b1c1916176003555b80516001600160401b03811161023157600454600181811c91168015610227575b602082101461021157601f81116101ac575b50602091601f82116001146101485791819260009261013d575b50508160011b916000199060031b1c1916176004555b604051610c3b908161032c8239f35b015190503880610118565b601f198216926004600052806000209160005b8581106101945750836001951061017b575b505050811b0160045561012e565b015160001960f88460031b161c1916905538808061016d565b9192602060018192868501518155019401920161015b565b60046000527f8a35acfbc15ff81a39ae7d344fd709f28e8600b4aa8c65c6b64bfe7fe36bd19b601f830160051c81019160208410610207575b601f0160051c01905b8181106101fb57506100fe565b600081556001016101ee565b90915081906101e5565b634e487b7160e01b600052602260045260246000fd5b90607f16906100ec565b634e487b7160e01b600052604160045260246000fd5b0151905038806100b5565b601f198216936003600052806000209160005b86811061029f5750836001959610610286575b505050811b016003556100cb565b015160001960f88460031b161c19169055388080610278565b91926020600181928685015181550194019201610265565b60036000527fc2575a0e9e593c00f959f8c92f12db2869c3395a3b0502d05e2516446f71f85b601f830160051c81019160208410610312575b601f0160051c01905b818110610306575061009a565b600081556001016102f9565b90915081906102f0565b90607f1690610088565b600080fdfe608080604052600436101561001357600080fd5b600090813560e01c90816302ae2b58146109815750806306fdde03146108da578063095ea7b31461083057806318160ddd146108125780631efe6f0c146105f257806323b872dd14610437578063313ce5671461041b57806340c10f191461037757806370a082311461033f57806395d89b4114610270578063a9059cbb14610176578063ad0b523f1461013b578063d4b83992146101125763dd62ed3e146100bb57600080fd5b3461010f57604036600319011261010f5760406100d66109ee565b916100df610a09565b9260018060a01b031681526001602052209060018060a01b03166000526020526020604060002054604051908152f35b80fd5b503461010f578060031936011261010f576005546040516001600160a01b039091168152602090f35b503461010f578060031936011261010f576101726040516101668161015f81610a91565b0382610a1f565b604051918291826109a5565b0390f35b503461010f57604036600319011261010f576101906109ee565b60055460ff8160a01c168061025e575b6101bd575b6101b26024358333610b20565b602060405160018152f35b60ff60a01b1981166005556040516101d88161015f81610a91565b60208151910120600560206040516101f1604082610a1f565b8281520164636c61696d60d81b815220036101a55782906001600160a01b0316803b1561024f57819060046040518094819363e76dd1e560e01b83525af1801561025357156101a557610245838092610a1f565b61024f57816101a5565b5080fd5b6040513d85823e3d90fd5b506001600160a01b03811615156101a0565b503461010f578060031936011261010f5760405190806004549061029382610a57565b808552916001811690811561031857506001146102bb575b6101728461016681860382610a1f565b600481527f8a35acfbc15ff81a39ae7d344fd709f28e8600b4aa8c65c6b64bfe7fe36bd19b939250905b8082106102fe57509091508101602001610166826102ab565b9192600181602092548385880101520191019092916102e5565b60ff191660208087019190915292151560051b8501909201925061016691508390506102ab565b503461010f57602036600319011261010f576020906040906001600160a01b036103676109ee565b1681528083522054604051908152f35b503461010f57604036600319011261010f576103916109ee565b6001600160a01b03166024358115610407576002548181018091116103f357602084927fddf252ad1be2c89b69c2b068fc378daa952ba7f163c4a11628f55a4df523b3ef9260025584845283825260408420818154019055604051908152a380f35b634e487b7160e01b84526011600452602484fd5b63ec442f0560e01b83526004839052602483fd5b503461010f578060031936011261010f57602060405160128152f35b503461010f57606036600319011261010f576104516109ee565b610459610a09565b604435918360055460ff8160a01c16806105e0575b610535575b50506001600160a01b03811680855260016020908152604080872033600090815292529020549060001982106104b0575b50506101b29350610b20565b84821061051a5780156105065733156104f257856040916101b2975260016020522060018060a01b0333166000526020528360406000209103905538806104a4565b634a1406b160e11b86526004869052602486fd5b63e602df0560e01b86526004869052602486fd5b6064868684637dc7a0d960e11b835233600452602452604452fd5b60ff60a01b1981166005556040516105508161015f81610a91565b6020815191012060036020604051610569604082610a1f565b828152016262757960e81b81522003610473576001600160a01b0316803b1561024f57819060446040518094819363e651372560e01b83528960048401528160248401525af180156105d5576105c1575b8490610473565b846105ce91959295610a1f565b92386105ba565b6040513d87823e3d90fd5b506001600160a01b038116151561046e565b503461010f57604036600319011261010f5761060c6109ee565b906024359167ffffffffffffffff831161024f573660238401121561024f57826004013567ffffffffffffffff81116107fe5760405193610657601f8301601f191660200186610a1f565b81855236602483830101116107fa57818492602460209301838801378501015260018060a01b03166bffffffffffffffffffffffff60a01b6005541617600555815167ffffffffffffffff81116107e6576106b3600654610a57565b601f811161077b575b50602092601f821160011461070d57928293829392610702575b50508160011b916000199060031b1c1916176006555b6005805460ff60a01b1916600160a01b17905580f35b0151905038806106d6565b60068352601f19821693600080516020610be683398151915291845b868110610763575083600195961061074a575b505050811b016006556106ec565b015160001960f88460031b161c1916905538808061073c565b91926020600181928685015181550194019201610729565b60068352601f820160051c600080516020610be68339815191520190602083106107d0575b601f0160051c600080516020610be683398151915201905b8181106107c557506106bc565b8381556001016107b8565b600080516020610be683398151915291506107a0565b634e487b7160e01b82526041600452602482fd5b8380fd5b634e487b7160e01b83526041600452602483fd5b503461010f578060031936011261010f576020600254604051908152f35b503461010f57604036600319011261010f5761084a6109ee565b6024359033156108c6576001600160a01b03169182156108b25760408291338152600160205281812085825260205220556040519081527f8c5be1e5ebec7d5bd14f71427d1e84f3dd0314c0f7b2291e5b200ac8c7c3b92560203392a3602060405160018152f35b634a1406b160e11b81526004819052602490fd5b63e602df0560e01b83526004839052602483fd5b503461010f578060031936011261010f576040519080600354906108fd82610a57565b80855291600181169081156103185750600114610924576101728461016681860382610a1f565b600381527fc2575a0e9e593c00f959f8c92f12db2869c3395a3b0502d05e2516446f71f85b939250905b80821061096757509091508101602001610166826102ab565b91926001816020925483858801015201910190929161094e565b90503461024f578160031936011261024f5760209060ff60055460a01c1615158152f35b91909160208152825180602083015260005b8181106109d8575060409293506000838284010152601f8019910116010190565b80602080928701015160408286010152016109b7565b600435906001600160a01b0382168203610a0457565b600080fd5b602435906001600160a01b0382168203610a0457565b90601f8019910116810190811067ffffffffffffffff821117610a4157604052565b634e487b7160e01b600052604160045260246000fd5b90600182811c92168015610a87575b6020831014610a7157565b634e487b7160e01b600052602260045260246000fd5b91607f1691610a66565b60065460009291610aa182610a57565b8082529160018116908115610b045750600114610abc575050565b60066000908152929350909190600080516020610be68339815191525b838310610aea575060209250010190565b600181602092949394548385870101520191019190610ad9565b9050602093945060ff929192191683830152151560051b010190565b6001600160a01b0316908115610bcf576001600160a01b0316918215610bb9576000828152806020526040812054828110610b9f5791604082827fddf252ad1be2c89b69c2b068fc378daa952ba7f163c4a11628f55a4df523b3ef958760209652828652038282205586815280845220818154019055604051908152a3565b916064928463391434e360e21b8452600452602452604452fd5b63ec442f0560e01b600052600060045260246000fd5b634b637e8f60e11b600052600060045260246000fdfef652222313e28459528d920b65115c16c04f3efc82aaedc97be59f3f377c0d3fa26469706673582212209ce89c814d68b8e1d5a2f70ca18a626ed3b82f7a0587a3bcf182935f71381ac364736f6c634300081c0033",
          "opcodes": "PUSH1 0x80 PUSH1 0x40 MSTORE CALLVALUE PUSH2 0x326 JUMPI PUSH1 0x40 DUP1 MLOAD SWAP1 DUP2 ADD PUSH1 0x1 PUSH1 0x1 PUSH1 0x40 SHL SUB DUP2 GT DUP3 DUP3 LT OR PUSH2 0x231 JUMPI PUSH1 0x40 SWAP1 DUP2 MSTORE PUSH1 0x9 DUP3 MSTORE PUSH9 0x4D616C6963696F7573 PUSH1 0xB8 SHL PUSH1 0x20 DUP4 ADD MSTORE DUP1 MLOAD SWAP1 DUP2 ADD PUSH1 0x1 PUSH1 0x1 PUSH1 0x40 SHL SUB DUP2 GT DUP3 DUP3 LT OR PUSH2 0x231 JUMPI PUSH1 0x40 MSTORE PUSH1 0x3 DUP2 MSTORE PUSH3 0x135053 PUSH1 0xEA SHL PUSH1 0x20 DUP3 ADD MSTORE DUP2 MLOAD PUSH1 0x1 PUSH1 0x1 PUSH1 0x40 SHL SUB DUP2 GT PUSH2 0x231 JUMPI PUSH1 0x3 SLOAD PUSH1 0x1 DUP2 DUP2 SHR SWAP2 AND DUP1 ISZERO PUSH2 0x31C JUMPI JUMPDEST PUSH1 0x20 DUP3 LT EQ PUSH2 0x211 JUMPI PUSH1 0x1F DUP2 GT PUSH2 0x2B7 JUMPI JUMPDEST POP PUSH1 0x20 SWAP3 PUSH1 0x1F DUP3 GT PUSH1 0x1 EQ PUSH2 0x252 JUMPI SWAP3 DUP2 SWAP3 SWAP4 PUSH1 0x0 SWAP3 PUSH2 0x247 JUMPI JUMPDEST POP POP DUP2 PUSH1 0x1 SHL SWAP2 PUSH1 0x0 NOT SWAP1 PUSH1 0x3 SHL SHR NOT AND OR PUSH1 0x3 SSTORE JUMPDEST DUP1 MLOAD PUSH1 0x1 PUSH1 0x1 PUSH1 0x40 SHL SUB DUP2 GT PUSH2 0x231 JUMPI PUSH1 0x4 SLOAD PUSH1 0x1 DUP2 DUP2 SHR SWAP2 AND DUP1 ISZERO PUSH2 0x227 JUMPI JUMPDEST PUSH1 0x20 DUP3 LT EQ PUSH2 0x211 JUMPI PUSH1 0x1F DUP2 GT PUSH2 0x1AC JUMPI JUMPDEST POP PUSH1 0x20 SWAP2 PUSH1 0x1F DUP3 GT PUSH1 0x1 EQ PUSH2 0x148 JUMPI SWAP2 DUP2 SWAP3 PUSH1 0x0 SWAP3 PUSH2 0x13D JUMPI JUMPDEST POP POP DUP2 PUSH1 0x1 SHL SWAP2 PUSH1 0x0 NOT SWAP1 PUSH1 0x3 SHL SHR NOT AND OR PUSH1 0x4 SSTORE JUMPDEST PUSH1 0x40 MLOAD PUSH2 0xC3B SWAP1 DUP2 PUSH2 0x32C DUP3 CODECOPY RETURN JUMPDEST ADD MLOAD SWAP1 POP CODESIZE DUP1 PUSH2 0x118 JUMP JUMPDEST PUSH1 0x1F NOT DUP3 AND SWAP3 PUSH1 0x4 PUSH1 0x0 MSTORE DUP1 PUSH1 0x0 KECCAK256 SWAP2 PUSH1 0x0 JUMPDEST DUP6 DUP2 LT PUSH2 0x194 JUMPI POP DUP4 PUSH1 0x1 SWAP6 LT PUSH2 0x17B JUMPI JUMPDEST POP POP POP DUP2 SHL ADD PUSH1 0x4 SSTORE PUSH2 0x12E JUMP JUMPDEST ADD MLOAD PUSH1 0x0 NOT PUSH1 0xF8 DUP5 PUSH1 0x3 SHL AND SHR NOT AND SWAP1 SSTORE CODESIZE DUP1 DUP1 PUSH2 0x16D JUMP JUMPDEST SWAP2 SWAP3 PUSH1 0x20 PUSH1 0x1 DUP2 SWAP3 DUP7 DUP6 ADD MLOAD DUP2 SSTORE ADD SWAP5 ADD SWAP3 ADD PUSH2 0x15B JUMP JUMPDEST PUSH1 0x4 PUSH1 0x0 MSTORE PUSH32 0x8A35ACFBC15FF81A39AE7D344FD709F28E8600B4AA8C65C6B64BFE7FE36BD19B PUSH1 0x1F DUP4 ADD PUSH1 0x5 SHR DUP2 ADD SWAP2 PUSH1 0x20 DUP5 LT PUSH2 0x207 JUMPI JUMPDEST PUSH1 0x1F ADD PUSH1 0x5 SHR ADD SWAP1 JUMPDEST DUP2 DUP2 LT PUSH2 0x1FB JUMPI POP PUSH2 0xFE JUMP JUMPDEST PUSH1 0x0 DUP2 SSTORE PUSH1 0x1 ADD PUSH2 0x1EE JUMP JUMPDEST SWAP1 SWAP2 POP DUP2 SWAP1 PUSH2 0x1E5 JUMP JUMPDEST PUSH4 0x4E487B71 PUSH1 0xE0 SHL PUSH1 0x0 MSTORE PUSH1 0x22 PUSH1 0x4 MSTORE PUSH1 0x24 PUSH1 0x0 REVERT JUMPDEST SWAP1 PUSH1 0x7F AND SWAP1 PUSH2 0xEC JUMP JUMPDEST PUSH4 0x4E487B71 PUSH1 0xE0 SHL PUSH1 0x0 MSTORE PUSH1 0x41 PUSH1 0x4 MSTORE PUSH1 0x24 PUSH1 0x0 REVERT JUMPDEST ADD MLOAD SWAP1 POP CODESIZE DUP1 PUSH2 0xB5 JUMP JUMPDEST PUSH1 0x1F NOT DUP3 AND SWAP4 PUSH1 0x3 PUSH1 0x0 MSTORE DUP1 PUSH1 0x0 KECCAK256 SWAP2 PUSH1 0x0 JUMPDEST DUP7 DUP2 LT PUSH2 0x29F JUMPI POP DUP4 PUSH1 0x1 SWAP6 SWAP7 LT PUSH2 0x286 JUMPI JUMPDEST POP POP POP DUP2 SHL ADD PUSH1 0x3 SSTORE PUSH2 0xCB JUMP JUMPDEST ADD MLOAD PUSH1 0x0 NOT PUSH1 0xF8 DUP5 PUSH1 0x3 SHL AND SHR NOT AND SWAP1 SSTORE CODESIZE DUP1 DUP1 PUSH2 0x278 JUMP JUMPDEST SWAP2 SWAP3 PUSH1 0x20 PUSH1 0x1 DUP2 SWAP3 DUP7 DUP6 ADD MLOAD DUP2 SSTORE ADD SWAP5 ADD SWAP3 ADD PUSH2 0x265 JUMP JUMPDEST PUSH1 0x3 PUSH1 0x0 MSTORE PUSH32 0xC2575A0E9E593C00F959F8C92F12DB2869C3395A3B0502D05E2516446F71F85B PUSH1 0x1F DUP4 ADD PUSH1 0x5 SHR DUP2 ADD SWAP2 PUSH1 0x20 DUP5 LT PUSH2 0x312 JUMPI JUMPDEST PUSH1 0x1F ADD PUSH1 0x5 SHR ADD SWAP1 JUMPDEST DUP2 DUP2 LT PUSH2 0x306 JUMPI POP PUSH2 0x9A JUMP JUMPDEST PUSH1 0x0 DUP2 SSTORE PUSH1 0x1 ADD PUSH2 0x2F9 JUMP JUMPDEST SWAP1 SWAP2 POP DUP2 SWAP1 PUSH2 0x2F0 JUMP JUMPDEST SWAP1 PUSH1 0x7F AND SWAP1 PUSH2 0x88 JUMP JUMPDEST PUSH1 0x0 DUP1 REVERT INVALID PUSH1 0x80 DUP1 PUSH1 0x40 MSTORE PUSH1 0x4 CALLDATASIZE LT ISZERO PUSH2 0x13 JUMPI PUSH1 0x0 DUP1 REVERT JUMPDEST PUSH1 0x0 SWAP1 DUP2 CALLDATALOAD PUSH1 0xE0 SHR SWAP1 DUP2 PUSH4 0x2AE2B58 EQ PUSH2 0x981 JUMPI POP DUP1 PUSH4 0x6FDDE03 EQ PUSH2 0x8DA JUMPI DUP1 PUSH4 0x95EA7B3 EQ PUSH2 0x830 JUMPI DUP1 PUSH4 0x18160DDD EQ PUSH2 0x812 JUMPI DUP1 PUSH4 0x1EFE6F0C EQ PUSH2 0x5F2 JUMPI DUP1 PUSH4 0x23B872DD EQ PUSH2 0x437 JUMPI DUP1 PUSH4 0x313CE567 EQ PUSH2 0x41B JUMPI DUP1 PUSH4 0x40C10F19 EQ PUSH2 0x377 JUMPI DUP1 PUSH4 0x70A08231 EQ PUSH2 0x33F JUMPI DUP1 PUSH4 0x95D89B41 EQ PUSH2 0x270 JUMPI DUP1 PUSH4 0xA9059CBB EQ PUSH2 0x176 JUMPI DUP1 PUSH4 0xAD0B523F EQ PUSH2 0x13B JUMPI DUP1 PUSH4 0xD4B83992 EQ PUSH2 0x112 JUMPI PUSH4 0xDD62ED3E EQ PUSH2 0xBB JUMPI PUSH1 0x0 DUP1 REVERT JUMPDEST CALLVALUE PUSH2 0x10F JUMPI PUSH1 0x40 CALLDATASIZE PUSH1 0x3 NOT ADD SLT PUSH2 0x10F JUMPI PUSH1 0x40 PUSH2 0xD6 PUSH2 0x9EE JUMP JUMPDEST SWAP2 PUSH2 0xDF PUSH2 0xA09 JUMP JUMPDEST SWAP3 PUSH1 0x1 DUP1 PUSH1 0xA0 SHL SUB AND DUP2 MSTORE PUSH1 0x1 PUSH1 0x20 MSTORE KECCAK256 SWAP1 PUSH1 0x1 DUP1 PUSH1 0xA0 SHL SUB AND PUSH1 0x0 MSTORE PUSH1 0x20 MSTORE PUSH1 0x20 PUSH1 0x40 PUSH1 0x0 KECCAK256 SLOAD PUSH1 0x40 MLOAD SWAP1 DUP2 MSTORE RETURN JUMPDEST DUP1 REVERT JUMPDEST POP CALLVALUE PUSH2 0x10F JUMPI DUP1 PUSH1 0x3 NOT CALLDATASIZE ADD SLT PUSH2 0x10F JUMPI PUSH1 0x5 SLOAD PUSH1 0x40 MLOAD PUSH1 0x1 PUSH1 0x1 PUSH1 0xA0 SHL SUB SWAP1 SWAP2 AND DUP2 MSTORE PUSH1 0x20 SWAP1 RETURN JUMPDEST POP CALLVALUE PUSH2 0x10F JUMPI DUP1 PUSH1 0x3 NOT CALLDATASIZE ADD SLT PUSH2 0x10F JUMPI PUSH2 0x172 PUSH1 0x40 MLOAD PUSH2 0x166 DUP2 PUSH2 0x15F DUP2 PUSH2 0xA91 JUMP JUMPDEST SUB DUP3 PUSH2 0xA1F JUMP JUMPDEST PUSH1 0x40 MLOAD SWAP2 DUP3 SWAP2 DUP3 PUSH2 0x9A5 JUMP JUMPDEST SUB SWAP1 RETURN JUMPDEST POP CALLVALUE PUSH2 0x10F JUMPI PUSH1 0x40 CALLDATASIZE PUSH1 0x3 NOT ADD SLT PUSH2 0x10F JUMPI PUSH2 0x190 PUSH2 0x9EE JUMP JUMPDEST PUSH1 0x5 SLOAD PUSH1 0xFF DUP2 PUSH1 0xA0 SHR AND DUP1 PUSH2 0x25E JUMPI JUMPDEST PUSH2 0x1BD JUMPI JUMPDEST PUSH2 0x1B2 PUSH1 0x24 CALLDATALOAD DUP4 CALLER PUSH2 0xB20 JUMP JUMPDEST PUSH1 0x20 PUSH1 0x40 MLOAD PUSH1 0x1 DUP2 MSTORE RETURN JUMPDEST PUSH1 0xFF PUSH1 0xA0 SHL NOT DUP2 AND PUSH1 0x5 SSTORE PUSH1 0x40 MLOAD PUSH2 0x1D8 DUP2 PUSH2 0x15F DUP2 PUSH2 0xA91 JUMP JUMPDEST PUSH1 0x20 DUP2 MLOAD SWAP2 ADD KECCAK256 PUSH1 0x5 PUSH1 0x20 PUSH1 0x40 MLOAD PUSH2 0x1F1 PUSH1 0x40 DUP3 PUSH2 0xA1F JUMP JUMPDEST DUP3 DUP2 MSTORE ADD PUSH5 0x636C61696D PUSH1 0xD8 SHL DUP2 MSTORE KECCAK256 SUB PUSH2 0x1A5 JUMPI DUP3 SWAP1 PUSH1 0x1 PUSH1 0x1 PUSH1 0xA0 SHL SUB AND DUP1 EXTCODESIZE ISZERO PUSH2 0x24F JUMPI DUP2 SWAP1 PUSH1 0x4 PUSH1 0x40 MLOAD DUP1 SWAP5 DUP2 SWAP4 PUSH4 0xE76DD1E5 PUSH1 0xE0 SHL DUP4 MSTORE GAS CALL DUP1 ISZERO PUSH2 0x253 JUMPI ISZERO PUSH2 0x1A5 JUMPI PUSH2 0x245 DUP4 DUP1 SWAP3 PUSH2 0xA1F JUMP JUMPDEST PUSH2 0x24F JUMPI DUP2 PUSH2 0x1A5 JUMP JUMPDEST POP DUP1 REVERT JUMPDEST PUSH1 0x40 MLOAD RETURNDATASIZE DUP6 DUP3 RETURNDATACOPY RETURNDATASIZE SWAP1 REVERT JUMPDEST POP PUSH1 0x1 PUSH1 0x1 PUSH1 0xA0 SHL SUB DUP2 AND ISZERO ISZERO PUSH2 0x1A0 JUMP JUMPDEST POP CALLVALUE PUSH2 0x10F JUMPI DUP1 PUSH1 0x3 NOT CALLDATASIZE ADD SLT PUSH2 0x10F JUMPI PUSH1 0x40 MLOAD SWAP1 DUP1 PUSH1 0x4 SLOAD SWAP1 PUSH2 0x293 DUP3 PUSH2 0xA57 JUMP JUMPDEST DUP1 DUP6 MSTORE SWAP2 PUSH1 0x1 DUP2 AND SWAP1 DUP2 ISZERO PUSH2 0x318 JUMPI POP PUSH1 0x1 EQ PUSH2 0x2BB JUMPI JUMPDEST PUSH2 0x172 DUP5 PUSH2 0x166 DUP2 DUP7 SUB DUP3 PUSH2 0xA1F JUMP JUMPDEST PUSH1 0x4 DUP2 MSTORE PUSH32 0x8A35ACFBC15FF81A39AE7D344FD709F28E8600B4AA8C65C6B64BFE7FE36BD19B SWAP4 SWAP3 POP SWAP1 JUMPDEST DUP1 DUP3 LT PUSH2 0x2FE JUMPI POP SWAP1 SWAP2 POP DUP2 ADD PUSH1 0x20 ADD PUSH2 0x166 DUP3 PUSH2 0x2AB JUMP JUMPDEST SWAP2 SWAP3 PUSH1 0x1 DUP2 PUSH1 0x20 SWAP3 SLOAD DUP4 DUP6 DUP9 ADD ADD MSTORE ADD SWAP2 ADD SWAP1 SWAP3 SWAP2 PUSH2 0x2E5 JUMP JUMPDEST PUSH1 0xFF NOT AND PUSH1 0x20 DUP1 DUP8 ADD SWAP2 SWAP1 SWAP2 MSTORE SWAP3 ISZERO ISZERO PUSH1 0x5 SHL DUP6 ADD SWAP1 SWAP3 ADD SWAP3 POP PUSH2 0x166 SWAP2 POP DUP4 SWAP1 POP PUSH2 0x2AB JUMP JUMPDEST POP CALLVALUE PUSH2 0x10F JUMPI PUSH1 0x20 CALLDATASIZE PUSH1 0x3 NOT ADD SLT PUSH2 0x10F JUMPI PUSH1 0x20 SWAP1 PUSH1 0x40 SWAP1 PUSH1 0x1 PUSH1 0x1 PUSH1 0xA0 SHL SUB PUSH2 0x367 PUSH2 0x9EE JUMP JUMPDEST AND DUP2 MSTORE DUP1 DUP4 MSTORE KECCAK256 SLOAD PUSH1 0x40 MLOAD SWAP1 DUP2 MSTORE RETURN JUMPDEST POP CALLVALUE PUSH2 0x10F JUMPI PUSH1 0x40 CALLDATASIZE PUSH1 0x3 NOT ADD SLT PUSH2 0x10F JUMPI PUSH2 0x391 PUSH2 0x9EE JUMP JUMPDEST PUSH1 0x1 PUSH1 0x1 PUSH1 0xA0 SHL SUB AND PUSH1 0x24 CALLDATALOAD DUP2 ISZERO PUSH2 0x407 JUMPI PUSH1 0x2 SLOAD DUP2 DUP2 ADD DUP1 SWAP2 GT PUSH2 0x3F3 JUMPI PUSH1 0x20 DUP5 SWAP3 PUSH32 0xDDF252AD1BE2C89B69C2B068FC378DAA952BA7F163C4A11628F55A4DF523B3EF SWAP3 PUSH1 0x2 SSTORE DUP5 DUP5 MSTORE DUP4 DUP3 MSTORE PUSH1 0x40 DUP5 KECCAK256 DUP2 DUP2 SLOAD ADD SWAP1 SSTORE PUSH1 0x40 MLOAD SWAP1 DUP2 MSTORE LOG3 DUP1 RETURN JUMPDEST PUSH4 0x4E487B71 PUSH1 0xE0 SHL DUP5 MSTORE PUSH1 0x11 PUSH1 0x4 MSTORE PUSH1 0x24 DUP5 REVERT JUMPDEST PUSH4 0xEC442F05 PUSH1 0xE0 SHL DUP4 MSTORE PUSH1 0x4 DUP4 SWAP1 MSTORE PUSH1 0x24 DUP4 REVERT JUMPDEST POP CALLVALUE PUSH2 0x10F JUMPI DUP1 PUSH1 0x3 NOT CALLDATASIZE ADD SLT PUSH2 0x10F JUMPI PUSH1 0x20 PUSH1 0x40 MLOAD PUSH1 0x12 DUP2 MSTORE RETURN JUMPDEST POP CALLVALUE PUSH2 0x10F JUMPI PUSH1 0x60 CALLDATASIZE PUSH1 0x3 NOT ADD SLT PUSH2 0x10F JUMPI PUSH2 0x451 PUSH2 0x9EE JUMP JUMPDEST PUSH2 0x459 PUSH2 0xA09 JUMP JUMPDEST PUSH1 0x44 CALLDATALOAD SWAP2 DUP4 PUSH1 0x5 SLOAD PUSH1 0xFF DUP2 PUSH1 0xA0 SHR AND DUP1 PUSH2 0x5E0 JUMPI JUMPDEST PUSH2 0x535 JUMPI JUMPDEST POP POP PUSH1 0x1 PUSH1 0x1 PUSH1 0xA0 SHL SUB DUP2 AND DUP1 DUP6 MSTORE PUSH1 0x1 PUSH1 0x20 SWAP1 DUP2 MSTORE PUSH1 0x40 DUP1 DUP8 KECCAK256 CALLER PUSH1 0x0 SWAP1 DUP2 MSTORE SWAP3 MSTORE SWAP1 KECCAK256 SLOAD SWAP1 PUSH1 0x0 NOT DUP3 LT PUSH2 0x4B0 JUMPI JUMPDEST POP POP PUSH2 0x1B2 SWAP4 POP PUSH2 0xB20 JUMP JUMPDEST DUP5 DUP3 LT PUSH2 0x51A JUMPI DUP1 ISZERO PUSH2 0x506 JUMPI CALLER ISZERO PUSH2 0x4F2 JUMPI DUP6 PUSH1 0x40 SWAP2 PUSH2 0x1B2 SWAP8 MSTORE PUSH1 0x1 PUSH1 0x20 MSTORE KECCAK256 PUSH1 0x1 DUP1 PUSH1 0xA0 SHL SUB CALLER AND PUSH1 0x0 MSTORE PUSH1 0x20 MSTORE DUP4 PUSH1 0x40 PUSH1 0x0 KECCAK256 SWAP2 SUB SWAP1 SSTORE CODESIZE DUP1 PUSH2 0x4A4 JUMP JUMPDEST PUSH4 0x4A1406B1 PUSH1 0xE1 SHL DUP7 MSTORE PUSH1 0x4 DUP7 SWAP1 MSTORE PUSH1 0x24 DUP7 REVERT JUMPDEST PUSH4 0xE602DF05 PUSH1 0xE0 SHL DUP7 MSTORE PUSH1 0x4 DUP7 SWAP1 MSTORE PUSH1 0x24 DUP7 REVERT JUMPDEST PUSH1 0x64 DUP7 DUP7 DUP5 PUSH4 0x7DC7A0D9 PUSH1 0xE1 SHL DUP4 MSTORE CALLER PUSH1 0x4 MSTORE PUSH1 0x24 MSTORE PUSH1 0x44 MSTORE REVERT JUMPDEST PUSH1 0xFF PUSH1 0xA0 SHL NOT DUP2 AND PUSH1 0x5 SSTORE PUSH1 0x40 MLOAD PUSH2 0x550 DUP2 PUSH2 0x15F DUP2 PUSH2 0xA91 JUMP JUMPDEST PUSH1 0x20 DUP2 MLOAD SWAP2 ADD KECCAK256 PUSH1 0x3 PUSH1 0x20 PUSH1 0x40 MLOAD PUSH2 0x569 PUSH1 0x40 DUP3 PUSH2 0xA1F JUMP JUMPDEST DUP3 DUP2 MSTORE ADD PUSH3 0x627579 PUSH1 0xE8 SHL DUP2 MSTORE KECCAK256 SUB PUSH2 0x473 JUMPI PUSH1 0x1 PUSH1 0x1 PUSH1 0xA0 SHL SUB AND DUP1 EXTCODESIZE ISZERO PUSH2 0x24F JUMPI DUP2 SWAP1 PUSH1 0x44 PUSH1 0x40 MLOAD DUP1 SWAP5 DUP2 SWAP4 PUSH4 0xE6513725 PUSH1 0xE0 SHL DUP4 MSTORE DUP10 PUSH1 0x4 DUP5 ADD MSTORE DUP2 PUSH1 0x24 DUP5 ADD MSTORE GAS CALL DUP1 ISZERO PUSH2 0x5D5 JUMPI PUSH2 0x5C1 JUMPI JUMPDEST DUP5 SWAP1 PUSH2 0x473 JUMP JUMPDEST DUP5 PUSH2 0x5CE SWAP2 SWAP6 SWAP3 SWAP6 PUSH2 0xA1F JUMP JUMPDEST SWAP3 CODESIZE PUSH2 0x5BA JUMP JUMPDEST PUSH1 0x40 MLOAD RETURNDATASIZE DUP8 DUP3 RETURNDATACOPY RETURNDATASIZE SWAP1 REVERT JUMPDEST POP PUSH1 0x1 PUSH1 0x1 PUSH1 0xA0 SHL SUB DUP2 AND ISZERO ISZERO PUSH2 0x46E JUMP JUMPDEST POP CALLVALUE PUSH2 0x10F JUMPI PUSH1 0x40 CALLDATASIZE PUSH1 0x3 NOT ADD SLT PUSH2 0x10F JUMPI PUSH2 0x60C PUSH2 0x9EE JUMP JUMPDEST SWAP1 PUSH1 0x24 CALLDATALOAD SWAP2 PUSH8 0xFFFFFFFFFFFFFFFF DUP4 GT PUSH2 0x24F JUMPI CALLDATASIZE PUSH1 0x23 DUP5 ADD SLT ISZERO PUSH2 0x24F JUMPI DUP3 PUSH1 0x4 ADD CALLDATALOAD PUSH8 0xFFFFFFFFFFFFFFFF DUP2 GT PUSH2 0x7FE JUMPI PUSH1 0x40 MLOAD SWAP4 PUSH2 0x657 PUSH1 0x1F DUP4 ADD PUSH1 0x1F NOT AND PUSH1 0x20 ADD DUP7 PUSH2 0xA1F JUMP JUMPDEST DUP2 DUP6 MSTORE CALLDATASIZE PUSH1 0x24 DUP4 DUP4 ADD ADD GT PUSH2 0x7FA JUMPI DUP2 DUP5 SWAP3 PUSH1 0x24 PUSH1 0x20 SWAP4 ADD DUP4 DUP9 ADD CALLDATACOPY DUP6 ADD ADD MSTORE PUSH1 0x1 DUP1 PUSH1 0xA0 SHL SUB AND PUSH12 0xFFFFFFFFFFFFFFFFFFFFFFFF PUSH1 0xA0 SHL PUSH1 0x5 SLOAD AND OR PUSH1 0x5 SSTORE DUP2 MLOAD PUSH8 0xFFFFFFFFFFFFFFFF DUP2 GT PUSH2 0x7E6 JUMPI PUSH2 0x6B3 PUSH1 0x6 SLOAD PUSH2 0xA57 JUMP JUMPDEST PUSH1 0x1F DUP2 GT PUSH2 0x77B JUMPI JUMPDEST POP PUSH1 0x20 SWAP3 PUSH1 0x1F DUP3 GT PUSH1 0x1 EQ PUSH2 0x70D JUMPI SWAP3 DUP3 SWAP4 DUP3 SWAP4 SWAP3 PUSH2 0x702 JUMPI JUMPDEST POP POP DUP2 PUSH1 0x1 SHL SWAP2 PUSH1 0x0 NOT SWAP1 PUSH1 0x3 SHL SHR NOT AND OR PUSH1 0x6 SSTORE JUMPDEST PUSH1 0x5 DUP1 SLOAD PUSH1 0xFF PUSH1 0xA0 SHL NOT AND PUSH1 0x1 PUSH1 0xA0 SHL OR SWAP1 SSTORE DUP1 RETURN JUMPDEST ADD MLOAD SWAP1 POP CODESIZE DUP1 PUSH2 0x6D6 JUMP JUMPDEST PUSH1 0x6 DUP4 MSTORE PUSH1 0x1F NOT DUP3 AND SWAP4 PUSH1 0x0 DUP1 MLOAD PUSH1 0x20 PUSH2 0xBE6 DUP4 CODECOPY DUP2 MLOAD SWAP2 MSTORE SWAP2 DUP5 JUMPDEST DUP7 DUP2 LT PUSH2 0x763 JUMPI POP DUP4 PUSH1 0x1 SWAP6 SWAP7 LT PUSH2 0x74A JUMPI JUMPDEST POP POP POP DUP2 SHL ADD PUSH1 0x6 SSTORE PUSH2 0x6EC JUMP JUMPDEST ADD MLOAD PUSH1 0x0 NOT PUSH1 0xF8 DUP5 PUSH1 0x3 SHL AND SHR NOT AND SWAP1 SSTORE CODESIZE DUP1 DUP1 PUSH2 0x73C JUMP JUMPDEST SWAP2 SWAP3 PUSH1 0x20 PUSH1 0x1 DUP2 SWAP3 DUP7 DUP6 ADD MLOAD DUP2 SSTORE ADD SWAP5 ADD SWAP3 ADD PUSH2 0x729 JUMP JUMPDEST PUSH1 0x6 DUP4 MSTORE PUSH1 0x1F DUP3 ADD PUSH1 0x5 SHR PUSH1 0x0 DUP1 MLOAD PUSH1 0x20 PUSH2 0xBE6 DUP4 CODECOPY DUP2 MLOAD SWAP2 MSTORE ADD SWAP1 PUSH1 0x20 DUP4 LT PUSH2 0x7D0 JUMPI JUMPDEST PUSH1 0x1F ADD PUSH1 0x5 SHR PUSH1 0x0 DUP1 MLOAD PUSH1 0x20 PUSH2 0xBE6 DUP4 CODECOPY DUP2 MLOAD SWAP2 MSTORE ADD SWAP1 JUMPDEST DUP2 DUP2 LT PUSH2 0x7C5 JUMPI POP PUSH2 0x6BC JUMP JUMPDEST DUP4 DUP2 SSTORE PUSH1 0x1 ADD PUSH2 0x7B8 JUMP JUMPDEST PUSH1 0x0 DUP1 MLOAD PUSH1 0x20 PUSH2 0xBE6 DUP4 CODECOPY DUP2 MLOAD SWAP2 MSTORE SWAP2 POP PUSH2 0x7A0 JUMP JUMPDEST PUSH4 0x4E487B71 PUSH1 0xE0 SHL DUP3 MSTORE PUSH1 0x41 PUSH1 0x4 MSTORE PUSH1 0x24 DUP3 REVERT JUMPDEST DUP4 DUP1 REVERT JUMPDEST PUSH4 0x4E487B71 PUSH1 0xE0 SHL DUP4 MSTORE PUSH1 0x41 PUSH1 0x4 MSTORE PUSH1 0x24 DUP4 REVERT JUMPDEST POP CALLVALUE PUSH2 0x10F JUMPI DUP1 PUSH1 0x3 NOT CALLDATASIZE ADD SLT PUSH2 0x10F JUMPI PUSH1 0x20 PUSH1 0x2 SLOAD PUSH1 0x40 MLOAD SWAP1 DUP2 MSTORE RETURN JUMPDEST POP CALLVALUE PUSH2 0x10F JUMPI PUSH1 0x40 CALLDATASIZE PUSH1 0x3 NOT ADD SLT PUSH2 0x10F JUMPI PUSH2 0x84A PUSH2 0x9EE JUMP JUMPDEST PUSH1 0x24 CALLDATALOAD SWAP1 CALLER ISZERO PUSH2 0x8C6 JUMPI PUSH1 0x1 PUSH1 0x1 PUSH1 0xA0 SHL SUB AND SWAP2 DUP3 ISZERO PUSH2 0x8B2 JUMPI PUSH1 0x40 DUP3 SWAP2 CALLER DUP2 MSTORE PUSH1 0x1 PUSH1 0x20 MSTORE DUP2 DUP2 KECCAK256 DUP6 DUP3 MSTORE PUSH1 0x20 MSTORE KECCAK256 SSTORE PUSH1 0x40 MLOAD SWAP1 DUP2 MSTORE PUSH32 0x8C5BE1E5EBEC7D5BD14F71427D1E84F3DD0314C0F7B2291E5B200AC8C7C3B925 PUSH1 0x20 CALLER SWAP3 LOG3 PUSH1 0x20 PUSH1 0x40 MLOAD PUSH1 0x1 DUP2 MSTORE RETURN JUMPDEST PUSH4 0x4A1406B1 PUSH1 0xE1 SHL DUP2 MSTORE PUSH1 0x4 DUP2 SWAP1 MSTORE PUSH1 0x24 SWAP1 REVERT JUMPDEST PUSH4 0xE602DF05 PUSH1 0xE0 SHL DUP4 MSTORE PUSH1 0x4 DUP4 SWAP1 MSTORE PUSH1 0x24 DUP4 REVERT JUMPDEST POP CALLVALUE PUSH2 0x10F JUMPI DUP1 PUSH1 0x3 NOT CALLDATASIZE ADD SLT PUSH2 0x10F JUMPI PUSH1 0x40 MLOAD SWAP1 DUP1 PUSH1 0x3 SLOAD SWAP1 PUSH2 0x8FD DUP3 PUSH2 0xA57 JUMP JUMPDEST DUP1 DUP6 MSTORE SWAP2 PUSH1 0x1 DUP2 AND SWAP1 DUP2 ISZERO PUSH2 0x318 JUMPI POP PUSH1 0x1 EQ PUSH2 0x924 JUMPI PUSH2 0x172 DUP5 PUSH2 0x166 DUP2 DUP7 SUB DUP3 PUSH2 0xA1F JUMP JUMPDEST PUSH1 0x3 DUP2 MSTORE PUSH32 0xC2575A0E9E593C00F959F8C92F12DB2869C3395A3B0502D05E2516446F71F85B SWAP4 SWAP3 POP SWAP1 JUMPDEST DUP1 DUP3 LT PUSH2 0x967 JUMPI POP SWAP1 SWAP2 POP DUP2 ADD PUSH1 0x20 ADD PUSH2 0x166 DUP3 PUSH2 0x2AB JUMP JUMPDEST SWAP2 SWAP3 PUSH1 0x1 DUP2 PUSH1 0x20 SWAP3 SLOAD DUP4 DUP6 DUP9 ADD ADD MSTORE ADD SWAP2 ADD SWAP1 SWAP3 SWAP2 PUSH2 0x94E JUMP JUMPDEST SWAP1 POP CALLVALUE PUSH2 0x24F JUMPI DUP2 PUSH1 0x3 NOT CALLDATASIZE ADD SLT PUSH2 0x24F JUMPI PUSH1 0x20 SWAP1 PUSH1 0xFF PUSH1 0x5 SLOAD PUSH1 0xA0 SHR AND ISZERO ISZERO DUP2 MSTORE RETURN JUMPDEST SWAP2 SWAP1 SWAP2 PUSH1 0x20 DUP2 MSTORE DUP3 MLOAD DUP1 PUSH1 0x20 DUP4 ADD MSTORE PUSH1 0x0 JUMPDEST DUP2 DUP2 LT PUSH2 0x9D8 JUMPI POP PUSH1 0x40 SWAP3 SWAP4 POP PUSH1 0x0 DUP4 DUP3 DUP5 ADD ADD MSTORE PUSH1 0x1F DUP1 NOT SWAP2 ADD AND ADD ADD SWAP1 JUMP JUMPDEST DUP1 PUSH1 0x20 DUP1 SWAP3 DUP8 ADD ADD MLOAD PUSH1 0x40 DUP3 DUP7 ADD ADD MSTORE ADD PUSH2 0x9B7 JUMP JUMPDEST PUSH1 0x4 CALLDATALOAD SWAP1 PUSH1 0x1 PUSH1 0x1 PUSH1 0xA0 SHL SUB DUP3 AND DUP3 SUB PUSH2 0xA04 JUMPI JUMP JUMPDEST PUSH1 0x0 DUP1 REVERT JUMPDEST PUSH1 0x24 CALLDATALOAD SWAP1 PUSH1 0x1 PUSH1 0x1 PUSH1 0xA0 SHL SUB DUP3 AND DUP3 SUB PUSH2 0xA04 JUMPI JUMP JUMPDEST SWAP1 PUSH1 0x1F DUP1 NOT SWAP2 ADD AND DUP2 ADD SWAP1 DUP2 LT PUSH8 0xFFFFFFFFFFFFFFFF DUP3 GT OR PUSH2 0xA41 JUMPI PUSH1 0x40 MSTORE JUMP JUMPDEST PUSH4 0x4E487B71 PUSH1 0xE0 SHL PUSH1 0x0 MSTORE PUSH1 0x41 PUSH1 0x4 MSTORE PUSH1 0x24 PUSH1 0x0 REVERT JUMPDEST SWAP1 PUSH1 0x1 DUP3 DUP2 SHR SWAP3 AND DUP1 ISZERO PUSH2 0xA87 JUMPI JUMPDEST PUSH1 0x20 DUP4 LT EQ PUSH2 0xA71 JUMPI JUMP JUMPDEST PUSH4 0x4E487B71 PUSH1 0xE0 SHL PUSH1 0x0 MSTORE PUSH1 0x22 PUSH1 0x4 MSTORE PUSH1 0x24 PUSH1 0x0 REVERT JUMPDEST SWAP2 PUSH1 0x7F AND SWAP2 PUSH2 0xA66 JUMP JUMPDEST PUSH1 0x6 SLOAD PUSH1 0x0 SWAP3 SWAP2 PUSH2 0xAA1 DUP3 PUSH2 0xA57 JUMP JUMPDEST DUP1 DUP3 MSTORE SWAP2 PUSH1 0x1 DUP2 AND SWAP1 DUP2 ISZERO PUSH2 0xB04 JUMPI POP PUSH1 0x1 EQ PUSH2 0xABC JUMPI POP POP JUMP JUMPDEST PUSH1 0x6 PUSH1 0x0 SWAP1 DUP2 MSTORE SWAP3 SWAP4 POP SWAP1 SWAP2 SWAP1 PUSH1 0x0 DUP1 MLOAD PUSH1 0x20 PUSH2 0xBE6 DUP4 CODECOPY DUP2 MLOAD SWAP2 MSTORE JUMPDEST DUP4 DUP4 LT PUSH2 0xAEA JUMPI POP PUSH1 0x20 SWAP3 POP ADD ADD SWAP1 JUMP JUMPDEST PUSH1 0x1 DUP2 PUSH1 0x20 SWAP3 SWAP5 SWAP4 SWAP5 SLOAD DUP4 DUP6 DUP8 ADD ADD MSTORE ADD SWAP2 ADD SWAP2 SWAP1 PUSH2 0xAD9 JUMP JUMPDEST SWAP1 POP PUSH1 0x20 SWAP4 SWAP5 POP PUSH1 0xFF SWAP3 SWAP2 SWAP3 NOT AND DUP4 DUP4 ADD MSTORE ISZERO ISZERO PUSH1 0x5 SHL ADD ADD SWAP1 JUMP JUMPDEST PUSH1 0x1 PUSH1 0x1 PUSH1 0xA0 SHL SUB AND SWAP1 DUP2 ISZERO PUSH2 0xBCF JUMPI PUSH1 0x1 PUSH1 0x1 PUSH1 0xA0 SHL SUB AND SWAP2 DUP3 ISZERO PUSH2 0xBB9 JUMPI PUSH1 0x0 DUP3 DUP2 MSTORE DUP1 PUSH1 0x20 MSTORE PUSH1 0x40 DUP2 KECCAK256 SLOAD DUP3 DUP2 LT PUSH2 0xB9F JUMPI SWAP2 PUSH1 0x40 DUP3 DUP3 PUSH32 0xDDF252AD1BE2C89B69C2B068FC378DAA952BA7F163C4A11628F55A4DF523B3EF SWAP6 DUP8 PUSH1 0x20 SWAP7 MSTORE DUP3 DUP7 MSTORE SUB DUP3 DUP3 KECCAK256 SSTORE DUP7 DUP2 MSTORE DUP1 DUP5 MSTORE KECCAK256 DUP2 DUP2 SLOAD ADD SWAP1 SSTORE PUSH1 0x40 MLOAD SWAP1 DUP2 MSTORE LOG3 JUMP JUMPDEST SWAP2 PUSH1 0x64 SWAP3 DUP5 PUSH4 0x391434E3 PUSH1 0xE2 SHL DUP5 MSTORE PUSH1 0x4 MSTORE PUSH1 0x24 MSTORE PUSH1 0x44 MSTORE REVERT JUMPDEST PUSH4 0xEC442F05 PUSH1 0xE0 SHL PUSH1 0x0 MSTORE PUSH1 0x0 PUSH1 0x4 MSTORE PUSH1 0x24 PUSH1 0x0 REVERT JUMPDEST PUSH4 0x4B637E8F PUSH1 0xE1 SHL PUSH1 0x0 MSTORE PUSH1 0x0 PUSH1 0x4 MSTORE PUSH1 0x24 PUSH1 0x0 REVERT INVALID 0xF6 MSTORE 0x22 0x23 SGT 0xE2 DUP5 MSIZE MSTORE DUP14 SWAP3 SIGNEXTEND PUSH6 0x115C16C04F3E 0xFC DUP3 0xAA 0xED 0xC9 PUSH28 0xE59F3F377C0D3FA26469706673582212209CE89C814D68B8E1D5A2F7 0xC LOG1 DUP11 PUSH3 0x6ED3B8 0x2F PUSH27 0x587A3BCF182935F71381AC364736F6C634300081C003300000000 "
        },
        "gasEstimates": {
          "creation": {
            "codeDepositCost": "626200",
            "executionCost": "infinite",
            "totalCost": "infinite"
          },
          "external": {
            "allowance(address,address)": "2855",
            "approve(address,uint256)": "24360",
            "attackType()": "infinite",
            "balanceOf(address)": "2596",
            "decimals()": "295",
            "mint(address,uint256)": "50719",
            "name()": "infinite",
            "setAttackConfig(address,string)": "infinite",
            "shouldAttack()": "2279",
            "symbol()": "infinite",
            "target()": "2554",
            "totalSupply()": "2332",
            "transfer(address,uint256)": "infinite",
            "transferFrom(address,address,uint256)": "infinite"
          }
        },
        "methodIdentifiers": {
          "allowance(address,address)": "dd62ed3e",
          "approve(address,uint256)": "095ea7b3",
          "attackType()": "ad0b523f",
          "balanceOf(address)": "70a08231",
          "decimals()": "313ce567",
          "mint(address,uint256)": "40c10f19",
          "name()": "06fdde03",
          "setAttackConfig(address,string)": "1efe6f0c",
          "shouldAttack()": "02ae2b58",
          "symbol()": "95d89b41",
          "target()": "d4b83992",
          "totalSupply()": "18160ddd",
          "transfer(address,uint256)": "a9059cbb",
          "transferFrom(address,address,uint256)": "23b872dd"
        }
      },
      "storageLayout": {
        "storage": [
          {
            "astId": 397,
            "contract": "contracts/test/MockMaliciousToken.sol:MockMaliciousToken",
            "label": "_balances",
            "offset": 0,
            "slot": "0",
            "type": "t_mapping(t_address,t_uint256)"
          },
          {
            "astId": 403,
            "contract": "contracts/test/MockMaliciousToken.sol:MockMaliciousToken",
            "label": "_allowances",
            "offset": 0,
            "slot": "1",
            "type": "t_mapping(t_address,t_mapping(t_address,t_uint256))"
          },
          {
            "astId": 405,
            "contract": "contracts/test/MockMaliciousToken.sol:MockMaliciousToken",
            "label": "_totalSupply",
            "offset": 0,
            "slot": "2",
            "type": "t_uint256"
          },
          {
            "astId": 407,
            "contract": "contracts/test/MockMaliciousToken.sol:MockMaliciousToken",
            "label": "_name",
            "offset": 0,
            "slot": "3",
            "type": "t_string_storage"
          },
          {
            "astId": 409,
            "contract": "contracts/test/MockMaliciousToken.sol:MockMaliciousToken",
            "label": "_symbol",
            "offset": 0,
            "slot": "4",
            "type": "t_string_storage"
          },
          {
            "astId": 2338,
            "contract": "contracts/test/MockMaliciousToken.sol:MockMaliciousToken",
            "label": "target",
            "offset": 0,
            "slot": "5",
            "type": "t_address"
          },
          {
            "astId": 2340,
            "contract": "contracts/test/MockMaliciousToken.sol:MockMaliciousToken",
            "label": "shouldAttack",
            "offset": 20,
            "slot": "5",
            "type": "t_bool"
          },
          {
            "astId": 2342,
            "contract": "contracts/test/MockMaliciousToken.sol:MockMaliciousToken",
            "label": "attackType",
            "offset": 0,
            "slot": "6",
            "type": "t_string_storage"
          }
        ],
        "types": {
          "t_address": {
            "encoding": "inplace",
            "label": "address",
            "numberOfBytes": "20"
          },
          "t_bool": {
            "encoding": "inplace",
            "label": "bool",
            "numberOfBytes": "1"
          },
          "t_mapping(t_address,t_mapping(t_address,t_uint256))": {
            "encoding": "mapping",
            "key": "t_address",
            "label": "mapping(address => mapping(address => uint256))",
            "numberOfBytes": "32",
            "value": "t_mapping(t_address,t_uint256)"
          },
          "t_mapping(t_address,t_uint256)": {
            "encoding": "mapping",
            "key": "t_address",
            "label": "mapping(address => uint256)",
            "numberOfBytes": "32",
            "value": "t_uint256"
          },
          "t_string_storage": {
            "encoding": "bytes",
            "label": "string",
            "numberOfBytes": "32"
          },
          "t_uint256": {
            "encoding": "inplace",
            "label": "uint256",
            "numberOfBytes": "32"
          }
        }
      },
      "userdoc": {
        "kind": "user",
        "methods": {},
        "version": 1
      }
    }
  }
}