{
  "_format": "hh-sol-artifact-1",
  "contractName": "ECMLock",
  "sourceName": "contracts/ECMLock.sol",
  "abi": [
    {
      "inputs": [
        {
          "internalType": "address",
          "name": "_ecm",
          "type": "address"
        }
      ],
      "stateMutability": "nonpayable",
      "type": "constructor"
    },
    {
      "inputs": [],
      "name": "EnforcedPause",
      "type": "error"
    },
    {
      "inputs": [],
      "name": "ExpectedPause",
      "type": "error"
    },
    {
      "inputs": [
        {
          "internalType": "address",
          "name": "owner",
          "type": "address"
        }
      ],
      "name": "OwnableInvalidOwner",
      "type": "error"
    },
    {
      "inputs": [
        {
          "internalType": "address",
          "name": "account",
          "type": "address"
        }
      ],
      "name": "OwnableUnauthorizedAccount",
      "type": "error"
    },
    {
      "inputs": [],
      "name": "ReentrancyGuardReentrantCall",
      "type": "error"
    },
    {
      "inputs": [
        {
          "internalType": "address",
          "name": "token",
          "type": "address"
        }
      ],
      "name": "SafeERC20FailedOperation",
      "type": "error"
    },
    {
      "anonymous": false,
      "inputs": [
        {
          "indexed": true,
          "internalType": "address",
          "name": "beneficiary",
          "type": "address"
        },
        {
          "indexed": false,
          "internalType": "uint256",
          "name": "ecmAmount",
          "type": "uint256"
        },
        {
          "indexed": true,
          "internalType": "uint256",
          "name": "lockIndex",
          "type": "uint256"
        }
      ],
      "name": "Claim",
      "type": "event"
    },
    {
      "anonymous": false,
      "inputs": [
        {
          "indexed": true,
          "internalType": "address",
          "name": "owner",
          "type": "address"
        },
        {
          "indexed": false,
          "internalType": "uint256",
          "name": "amount",
          "type": "uint256"
        }
      ],
      "name": "EmergencyWithdraw",
      "type": "event"
    },
    {
      "anonymous": false,
      "inputs": [
        {
          "indexed": true,
          "internalType": "address",
          "name": "previousOwner",
          "type": "address"
        },
        {
          "indexed": true,
          "internalType": "address",
          "name": "newOwner",
          "type": "address"
        }
      ],
      "name": "OwnershipTransferred",
      "type": "event"
    },
    {
      "anonymous": false,
      "inputs": [
        {
          "indexed": false,
          "internalType": "address",
          "name": "account",
          "type": "address"
        }
      ],
      "name": "Paused",
      "type": "event"
    },
    {
      "anonymous": false,
      "inputs": [
        {
          "indexed": true,
          "internalType": "address",
          "name": "user",
          "type": "address"
        },
        {
          "indexed": false,
          "internalType": "uint256",
          "name": "amount",
          "type": "uint256"
        },
        {
          "indexed": false,
          "internalType": "uint256",
          "name": "releaseTime",
          "type": "uint256"
        },
        {
          "indexed": true,
          "internalType": "uint256",
          "name": "lockIndex",
          "type": "uint256"
        }
      ],
      "name": "TokensLocked",
      "type": "event"
    },
    {
      "anonymous": false,
      "inputs": [
        {
          "indexed": false,
          "internalType": "address",
          "name": "account",
          "type": "address"
        }
      ],
      "name": "Unpaused",
      "type": "event"
    },
    {
      "inputs": [],
      "name": "claimAllUnlocked",
      "outputs": [],
      "stateMutability": "nonpayable",
      "type": "function"
    },
    {
      "inputs": [
        {
          "internalType": "uint256[]",
          "name": "indices",
          "type": "uint256[]"
        }
      ],
      "name": "claimLocks",
      "outputs": [],
      "stateMutability": "nonpayable",
      "type": "function"
    },
    {
      "inputs": [],
      "name": "ecm",
      "outputs": [
        {
          "internalType": "contract IERC20",
          "name": "",
          "type": "address"
        }
      ],
      "stateMutability": "view",
      "type": "function"
    },
    {
      "inputs": [
        {
          "internalType": "uint256",
          "name": "amount",
          "type": "uint256"
        }
      ],
      "name": "emergencyWithdraw",
      "outputs": [],
      "stateMutability": "nonpayable",
      "type": "function"
    },
    {
      "inputs": [
        {
          "internalType": "address",
          "name": "user",
          "type": "address"
        }
      ],
      "name": "getUserLockCount",
      "outputs": [
        {
          "internalType": "uint256",
          "name": "",
          "type": "uint256"
        }
      ],
      "stateMutability": "view",
      "type": "function"
    },
    {
      "inputs": [
        {
          "internalType": "address",
          "name": "user",
          "type": "address"
        }
      ],
      "name": "getUserLocks",
      "outputs": [
        {
          "internalType": "uint256[]",
          "name": "amounts",
          "type": "uint256[]"
        },
        {
          "internalType": "uint256[]",
          "name": "releaseTimes",
          "type": "uint256[]"
        },
        {
          "internalType": "bool[]",
          "name": "claimed",
          "type": "bool[]"
        }
      ],
      "stateMutability": "view",
      "type": "function"
    },
    {
      "inputs": [],
      "name": "lockDuration",
      "outputs": [
        {
          "internalType": "uint256",
          "name": "",
          "type": "uint256"
        }
      ],
      "stateMutability": "view",
      "type": "function"
    },
    {
      "inputs": [
        {
          "internalType": "uint256",
          "name": "amount",
          "type": "uint256"
        }
      ],
      "name": "lockTokens",
      "outputs": [],
      "stateMutability": "nonpayable",
      "type": "function"
    },
    {
      "inputs": [],
      "name": "owner",
      "outputs": [
        {
          "internalType": "address",
          "name": "",
          "type": "address"
        }
      ],
      "stateMutability": "view",
      "type": "function"
    },
    {
      "inputs": [],
      "name": "pause",
      "outputs": [],
      "stateMutability": "nonpayable",
      "type": "function"
    },
    {
      "inputs": [],
      "name": "paused",
      "outputs": [
        {
          "internalType": "bool",
          "name": "",
          "type": "bool"
        }
      ],
      "stateMutability": "view",
      "type": "function"
    },
    {
      "inputs": [],
      "name": "renounceOwnership",
      "outputs": [],
      "stateMutability": "nonpayable",
      "type": "function"
    },
    {
      "inputs": [],
      "name": "totalLocked",
      "outputs": [
        {
          "internalType": "uint256",
          "name": "",
          "type": "uint256"
        }
      ],
      "stateMutability": "view",
      "type": "function"
    },
    {
      "inputs": [
        {
          "internalType": "address",
          "name": "newOwner",
          "type": "address"
        }
      ],
      "name": "transferOwnership",
      "outputs": [],
      "stateMutability": "nonpayable",
      "type": "function"
    },
    {
      "inputs": [],
      "name": "unpause",
      "outputs": [],
      "stateMutability": "nonpayable",
      "type": "function"
    }
  ],
  "bytecode": "0x60a03461011e57601f610ef538819003918201601f19168301916001600160401b038311848410176101235780849260209460405283398101031261011e57516001600160a01b0381169081900361011e5733156101085760008054336001600160a01b03198216811783556040519290916001600160a01b0316907f8be0079c531659141344cd1fd0a4f28419497f9722a3daafe3b4186f6b6457e09080a36001805581156100da5750608052604051610dbb908161013a82396080518181816101b6015281816106700152818161087b0152610b310152f35b62461bcd60e51b81526020600482015260096024820152683d32b9379030b2323960b91b6044820152606490fd5b631e4fbdf760e01b600052600060045260246000fd5b600080fd5b634e487b7160e01b600052604160045260246000fdfe608080604052600436101561001357600080fd5b60003560e01c9081630455444314610b60575080631b27fc2514610b1b57806323a35de9146109e85780633f4ba83a146109775780635312ea8e1461084257806356891412146108245780635c975abb146107fe5780636e27d88914610610578063715018a6146105b75780638456cb59146105555780638da5cb5b1461052c5780639b7d02ad146104ee578063e700ff70146102f8578063e76dd1e5146101565763f2fde38b146100c457600080fd5b34610151576020366003190112610151576004356001600160a01b03811690819003610151576100f2610c7d565b801561013b57600080546001600160a01b03198116831782556001600160a01b0316907f8be0079c531659141344cd1fd0a4f28419497f9722a3daafe3b4186f6b6457e09080a3005b631e4fbdf760e01b600052600060045260246000fd5b600080fd5b346101515760003660031901126101515761016f610ca6565b610177610d0a565b3360005260026020526040600020805480156102c857600091825b828110610218578380156101e057806101b06101da92600354610c70565b600355337f0000000000000000000000000000000000000000000000000000000000000000610cc8565b60018055005b60405162461bcd60e51b815260206004820152601060248201526f1b9bdd1a1a5b99c81d5b9b1bd8dad95960821b6044820152606490fd5b60ff60026102268385610c1d565b5001541615806102b0575b61023e575b600101610192565b9261026f60019160026102518786610c1d565b5001805460ff1916841790556102678685610c1d565b505490610c63565b938061027b8185610c1d565b50546040519081527f34fcbac0073d7c3d388e51312faf357774904998eeb8fca628b9e6f65ee1cbf760203392a39050610236565b5060016102bd8284610c1d565b500154421015610231565b60405162461bcd60e51b81526020600482015260086024820152676e6f206c6f636b7360c01b6044820152606490fd5b346101515760203660031901126101515760043567ffffffffffffffff8111610151573660238201121561015157806004013567ffffffffffffffff8111610151573660248260051b8401011161015157610351610ca6565b610359610d0a565b3360005260026020526040600020805490600093845b8481101561049f5760248160051b83010135908482101561046a576103948285610c1d565b5091600283019283549060ff821661043357426001820154116103fb57600194856103c89360ff1916179055548099610c63565b976040519081527f34fcbac0073d7c3d388e51312faf357774904998eeb8fca628b9e6f65ee1cbf760203392a30161036f565b60405162461bcd60e51b815260206004820152601060248201526f1b9bdd081e595d081d5b9b1bd8dad95960821b6044820152606490fd5b60405162461bcd60e51b815260206004820152600f60248201526e185b1c9958591e4818db185a5b5959608a1b6044820152606490fd5b60405162461bcd60e51b815260206004820152600d60248201526c0d2dcecc2d8d2c840d2dcc8caf609b1b6044820152606490fd5b8580156104b657806101b06101da92600354610c70565b60405162461bcd60e51b815260206004820152601060248201526f6e6f7468696e6720746f20636c61696d60801b6044820152606490fd5b34610151576020366003190112610151576004356001600160a01b038116908190036101515760005260026020526020604060002054604051908152f35b34610151576000366003190112610151576000546040516001600160a01b039091168152602090f35b346101515760003660031901126101515761056e610c7d565b610576610d0a565b6000805460ff60a01b1916600160a01b1790556040513381527f62e78cea01bee320cd4e420270b5ea74000d11b0c9f74754ebdbfc544b05a25890602090a1005b34610151576000366003190112610151576105d0610c7d565b600080546001600160a01b0319811682556001600160a01b03167f8be0079c531659141344cd1fd0a4f28419497f9722a3daafe3b4186f6b6457e08280a3005b346101515760203660031901126101515760043561062c610ca6565b610634610d0a565b80156107cb576106946040516323b872dd60e01b60208201523360248201523060448201528260648201526064815261066e608482610bb1565b7f0000000000000000000000000000000000000000000000000000000000000000610d2a565b6301e133804201908142116107895733600052600260205260406000206040516060810181811067ffffffffffffffff8211176107b557604052828152602081018481526040820192600084528054680100000000000000008110156107b55761070391600182018155610c1d565b91909161079f57600292518255516001820155019051151560ff801983541691161790553360005260026020526040600020549160001983019283116107895761074f82600354610c63565b60035560405191825260208201527f90e20a62e0f2a608d33bd96a4e15cb853006a15caf4455f373b7b55de520b68c60403392a360018055005b634e487b7160e01b600052601160045260246000fd5b634e487b7160e01b600052600060045260246000fd5b634e487b7160e01b600052604160045260246000fd5b60405162461bcd60e51b815260206004820152600b60248201526a1e995c9bc8185b5bdd5b9d60aa1b6044820152606490fd5b3461015157600036600319011261015157602060ff60005460a01c166040519015158152f35b34610151576000366003190112610151576020600354604051908152f35b346101515760203660031901126101515760043561085e610c7d565b610866610ca6565b6040516370a0823160e01b81523060048201527f0000000000000000000000000000000000000000000000000000000000000000906020816024816001600160a01b0386165afa90811561096b57600091610939575b50821161090157816108cf913390610cc8565b6040519081527f5fafa99d0643513820be26656b45130b01e1c03062e1266bf36f88cbd3bd969560203392a260018055005b60405162461bcd60e51b815260206004820152601060248201526f616d6f756e74203e2062616c616e636560801b6044820152606490fd5b90506020813d602011610963575b8161095460209383610bb1565b810103126101515751836108bc565b3d9150610947565b6040513d6000823e3d90fd5b3461015157600036600319011261015157610990610c7d565b60005460ff8160a01c16156109d75760ff60a01b19166000556040513381527f5db9ee0a495bf2e6ff9c91a7834c1ba4fdd244a5e8aa4e537bd38aeae4b073aa90602090a1005b638dfc202b60e01b60005260046000fd5b34610151576020366003190112610151576004356001600160a01b038116908190036101515760005260026020526040600020805490610a2782610beb565b91610a3181610beb565b610a3a82610bd3565b91610a486040519384610bb1565b808352610a5481610bd3565b602084019490601f190136863760005b828110610ad557610a8b8787876020610a9889604051968796606088526060880190610b7d565b9086820384880152610b7d565b918483036040860152519182815201919060005b818110610aba575050500390f35b82511515845285945060209384019390920191600101610aac565b8060ff6002610ae660019486610c1d565b508054610af3858d610c4f565b5284810154610b02858a610c4f565b52015416610b108288610c4f565b901515905201610a64565b34610151576000366003190112610151576040517f00000000000000000000000000000000000000000000000000000000000000006001600160a01b03168152602090f35b3461015157600036600319011261015157806301e1338060209252f35b906020808351928381520192019060005b818110610b9b5750505090565b8251845260209384019390920191600101610b8e565b90601f8019910116810190811067ffffffffffffffff8211176107b557604052565b67ffffffffffffffff81116107b55760051b60200190565b90610bf582610bd3565b610c026040519182610bb1565b8281528092610c13601f1991610bd3565b0190602036910137565b8054821015610c39576000526003602060002091020190600090565b634e487b7160e01b600052603260045260246000fd5b8051821015610c395760209160051b010190565b9190820180921161078957565b9190820391821161078957565b6000546001600160a01b03163303610c9157565b63118cdaa760e01b6000523360045260246000fd5b600260015414610cb7576002600155565b633ee5aeb560e01b60005260046000fd5b60405163a9059cbb60e01b60208201526001600160a01b039092166024830152604480830193909352918152610d0891610d03606483610bb1565b610d2a565b565b60ff60005460a01c16610d1957565b63d93c066560e01b60005260046000fd5b906000602091828151910182855af11561096b576000513d610d7c57506001600160a01b0381163b155b610d5b5750565b635274afe760e01b60009081526001600160a01b0391909116600452602490fd5b60011415610d5456fea26469706673582212208667a6fcef9cc15818dfb362656cd9653bf3306d7703930e77e160c8a8abd15264736f6c634300081c0033",
  "linkReferences": {},
  "deployedLinkReferences": {}
}